:1000000008260020412D00003D2D00003D2D000060
:1000100000000000000000000000000000000000E0
:100020000000000000000000000000003D2D000066
:1000300000000000000000003D2D00003D2D0000EC
:100040003D2D00003D2D00003D2D00003D2D000008
:10005000FD1000003D2D00003D2D00003D2D000055
:100060003D2D0000BD100000CD100000DD1000008F
:10007000ED10000000000000000000003D2D000019
:100080003D2D00003D2D00003D2D00003D2D0000C8
:100090003D2D000000000000000000003D2D00008C
:1000A0003D2D00003D2D00003D2D00003D2D0000A8
:1000B0000000000010B5064C2378002B07D1054B3B
:1000C000002B02D0044800E000BF0123237010BDC4
:1000D000700000200000000038520000084B10B5EE
:1000E000002B03D00749084800E000BF0748036819
:1000F000002B00D110BD064B002BFBD09847F9E731
:100100000000000074000020385200003852000047
:1001100000000000044A137802210B431370537847
:100120005BB2002BFBDB70470018004000B583B0CA
:10013000124A936940210B43936101A900230B707C
:1001400005200F4B984705200E4B98470E4A137811
:1001500001210B43137053785BB2002BFBDB0B4B7D
:1001600019004031002204C39942FCD11022084BEF
:100170001A60084B984703B000BDC0460004004019
:10018000E52B0000592B00000018004060050020FE
:1001900000E100E015010000F0B5DE4657464E468E
:1001A0004546E0B587B08046049116001F00002246
:1001B000002300218B463F24012021000096019757
:1001C0005C4603944446059413E02024641A050019
:1001D000E540A84614E0009C019D121BAB415C4623
:1001E0004D462C43A346039C45462C4303940139BA
:1001F00025D3202464420C19E7D40500A540A84665
:1002000004008C40A14692185B4114001D00059E1D
:100210004F463E40B446049E47463E40B246664680
:1002200057463E4303D00600264332002B00009C75
:10023000019D9D42DBD8CED19442D8D8CBE7039B19
:100240005846190007B03CBC90469946A246AB46BA
:10025000F0BD10B5490840230024814202D21800A5
:1002600010BD1C00091A631C9BB28842F9D94023B7
:10027000FF2CF4D814800023F1E70000F0B583B020
:100280000F00160008AA117804004C434022BC421B
:1002900002D9100003B0F0BD002B14D102000800F9
:1002A0000021194CA04701003A0000230020174C00
:1002B000A04700220123121A8B41120C1B041A437F
:1002C00032800022E5E70022012BF9D10A00002349
:1002D00000210D4CA04702000B0000920193380052
:1002E00000210A4CA047050080239B014022984230
:1002F000CFD8790FF800009A019BA047EA00821A34
:10030000D2B252032A43DBE7D13600009901000044
:1003100010B582B004000E4B1B78002B07D00029CB
:1003200005D10B4B5B78834210D01D200CE001A956
:100330000C701320074B98471320074B9847044B2A
:100340005C7001221A70002002B010BD0020FBE793
:100350008C000020E52B0000592B00002B4B98420D
:1003600023D00FD92A4B98422FD02A4B984242D102
:1003700001293AD0002946D0022938D0032938D0A3
:10038000002039E0244B984235D1012907D00029BB
:1003900033D0022905D0032905D000202CE01F48C6
:1003A0002AE01F4828E01F4826E0012907D000293D
:1003B00025D0022905D0032905D000201CE01A48C9
:1003C0001AE01A4818E01A4816E0012907D0002957
:1003D00017D0022905D0032905D000200CE01548CC
:1003E0000AE0154808E0154806E0154804E01548FD
:1003F00002E0154800E0002070471448FCE70320A5
:10040000FAE71348F8E71348F6E7C046000C004245
:1004100000100042001400420008004203000500E2
:1004200003000600030007000300010003001E0094
:1004300003001F000300090003000A0003000B0073
:100440000300110003001200030013000300040066
:10045000030008000300100030B585B06A460F4B5A
:1004600032CB32C21B6813600300009A824211D063
:10047000019A82420AD0029A824209D00020039A4D
:100480009A4201D005B030BD033004E0012002E003
:10049000022000E00020C0B2F4E7C046DC480000C3
:1004A000F0B5C64600B50C00904600280FD1002AD2
:1004B00011DD8F18094E0A4D306821002B689847CE
:1004C0000134BC42F8D1404604BC9046F0BD012343
:1004D0005B429846F7E78046F5E7C046A80500204E
:1004E000A0050020F0B5C64600B50E001500013885
:1004F000022810D8002A11D000240C4B98460C4F2B
:1005000043461868315D3B689847002808DB013492
:10051000A542F5D106E00124644203E0140001E0A5
:1005200001246442200004BC9046F0BDA8050020D0
:10053000A4050020F0B5DE4657464E464546E0B5D8
:1005400091B005000C00160029600800BC4B9847CC
:10055000020023680520DB0706D511B03CBC90469D
:100560009946A246AB46F0BD236817309B07F4D4EA
:10057000B449086A971C0123BB4003430B620FA9CF
:100580002D27F35D0B701432D3B202931800AE4BDB
:1005900098470298AD4B9847F05D0021AC4B9847C7
:1005A000F37A6B712423F35CAB712523F35CEB715D
:1005B000F37E2B72337F6B722B6898461800A04B2A
:1005C0009847143000220E2306A98C4663441A80F3
:1005D000328A02928023DB019A4200D19EE00FD939
:1005E000C023DB01029A9A4200D192E080231B02D1
:1005F0009A4200D01FE1032306930023079308E0EB
:1006000080239B019A4200D015E1102306930F3BF3
:10061000079333680593F368039373690493337EF8
:100620009B462623F35C9A4673689946002B00D1BB
:10063000A0E080235B05994500D184E0737E002B08
:1006400002D0B37E424693732A68029FD369002B7F
:10065000FCD10E3306AA944663441B88424693811C
:10066000059B039A1343049A13434A4613431F43BB
:100670005B461B021F4353465B071F432723F35C64
:10068000002B01D104331F43737E9B02327F520241
:100690001343727F120213432422B25C52041343A9
:1006A0002522B25C12041343B17AF27A1143194342
:1006B0003389FF2B00D181E0802252041743194374
:1006C0002C23F35C002B03D1624B9B789B0701D555
:1006D00080231F432A68D369002BFCD1434659600D
:1006E0002A68D369002BFCD143461F600EAB8022E1
:1006F0001A7000225A70DA709A70336B0A93736B17
:100700000B93B36B0C93F36B02930D9300270AAE1C
:1007100063E008230693073B07937AE73368059362
:10072000F368039373690493337E9B462623F35C3B
:100730009A4673689946002B18D080235B0599452B
:1007400001D0002025E02723F35C002B00D075E7C3
:10075000336A1F00C0B2404B984701000E2206AB1F
:100760009C46624438003D4B984712E008230693AC
:10077000002307932723F35C002B0ED0069B0093E6
:10078000079B0E2206A98C466244B16A306A344F38
:10079000B847002800D0E0E650E7336A1F00C0B237
:1007A0002D4B98470100069B0093079B0E2206A83D
:1007B0008446624438002A4FB847EAE7F37E002BAC
:1007C00000D17DE78023DB041F4379E72000254B20
:1007D000984707E00137042F0DD0F9B2BB009859B4
:1007E0000028F3D0431CF5D00EA90870000CC0B24D
:1007F0001D4B9847EEE70023EB602B616B61AB610B
:10080000EB612B62AB626B620022EB85AB85303310
:10081000EA540133EA540133EA540133EA542868B4
:10082000074B984704001149114B9847A400114BFE
:10083000E550002091E61023069300230793E8E695
:100840005904000000040040E52B0000592B000073
:100850001103000000200041012C000053020000A1
:100860007D0200005D030000DD2C0000250A000071
:1008700059100000B0050020C2791C23002A01D1C4
:1008800018007047C28D92B2173B002AF8D1036856
:10089000DA69002AFCD1198502211A7E0A42FCD0AD
:1008A0000023EDE782791C23002A01D1180070474C
:1008B000828D92B2173B002AF8D10268107E400761
:1008C000F4D5D369002BFCD1538BDBB298061DD035
:1008D000980703D5022353831833E7E7580703D556
:1008E000042353831A33E1E7D80703D50123538345
:1008F0001233DBE7D80603D5102353833233D5E711
:100900009B0603D5202353832133CFE7138D0B8020
:100910000023CBE7F8B506000C00150007680A4B6A
:100920009847F38D9BB2002B03D0084B98470520C6
:10093000F8BDF585054B9847B46205223323F25480
:10094000323BBB750020F3E771250000B1250000A4
:10095000F8B504000D00160007680F4B9847A38DEB
:100960009BB2002B03D00D4B98470520F8BDA68500
:100970000A4B9847656205223223E2542E3BBB7531
:10098000237A002B01D02023BB75637A0020002B33
:10099000ECD00823BB75E9E771250000B125000004
:1009A000931C9B00C31859603021012393401A0007
:1009B000435C13434354704710B5C2791C23002A8B
:1009C00001D1180010BD0122014B98470300F8E740
:1009D0001509000010B50122014B984710BDC04613
:1009E0005109000010B51723002A01D1180010BDCD
:1009F000C4790533002CF9D0014B98470300F5E783
:100A00001509000010B51723002A01D1180010BDE8
:100A100084790533002CF9D0014B98470300F5E7A2
:100A200051090000F8B58000624BC5582C68E36995
:100A3000002BFCD1237EA67D1E403023EB5C3122AF
:100A4000AF5C1F40F30722D5EB8D9BB2002B1CD06F
:100A5000AA6A1378DBB2511CA962697901290ED008
:100A60009BB2DB05DB0D2385EB8D013B9BB2EB8558
:100A7000002B0CD1013323750133A37507E05178A6
:100A800009020B430232AA62EBE701232375B30785
:100A900006D50223237500223133EA54FB071AD40A
:100AA000730765D5AB8D9BB2002B5FD0638BDBB238
:100AB0001A0714D43F221340002B34D09A0711D5C3
:100AC0001A223223EA54303B63837B0750D5280037
:100AD0006B6998474CE02800EB689847E0E73722BD
:100AE0001340E9E75A0705D51E223223EA542E3B6C
:100AF0006383EAE7DA0705D513223223EA54313B50
:100B00006383E2E7DA0605D542223223EA54223B28
:100B10006383DAE720221A42D7D021323223EA5403
:100B2000123B6383D1E7238DDB05DB0DDAB2696A03
:100B30000A706A6A511C69626979012910D0AB8D0B
:100B4000013B9BB2AB85002B12D1043323750022ED
:100B50002E33EA54BB070BD528002B69984707E0D2
:100B60001B0A53706B6A01336B62E8E70423237539
:100B7000F30604D5102323752376FB060ED4B306A3
:100B800004D52023237523763B070BD4330704D5E4
:100B9000082323752376BB0608D4F8BD2800EB692B
:100BA0009847ECE72800AB699847EFE72B6A2800E5
:100BB0009847F2E7B0050020F0B58BB005000C00B7
:100BC000160029600B681C209B0701D50BB0F0BDF7
:100BD0000B681738DB07F9D40800604B9847604A68
:100BE000116A871C0123BB400B43136209A9242708
:100BF000F35D0B701430C3B201931800594B984742
:100C00000198594B9847F05D0021584B984733782D
:100C1000012B38D02B000C3329002831002204C3CB
:100C20008B42FCD10023EB62AB620024AB862B86A7
:100C30003633EC540133EC540133EC54353B6B72D6
:100C40002C712868454B984707004949494B9847FC
:100C5000BF00494BFD502F6804AB80221A705C70B6
:100C60007F3A9A70DC703378002B02D1002204ABFB
:100C70009A70B36A0593F36A0693336B0793736BA9
:100C8000089300240BE023680C2213432360C1E780
:100C900038003A4B98470AE00134042C10D0E1B2F6
:100CA000A30002AA0C201218D0580028F0D0431C30
:100CB000F2D004A90870000CC0B2314B9847EBE7A2
:100CC00033786B71337CAB71B37CEB71337D2B72FA
:100CD000002202ABDA803378012B28D07368B26827
:100CE0001343F2681343317C727C002A03D1254AF6
:100CF0009278920701D580221343B27C002A02D059
:100D0000802292021143F27C002A02D080229200BB
:100D10001143327D002A02D08022920111433A68A9
:100D200013433B607B680B437B6000204EE72868E1
:100D30000A4B98471430C0B2134B9847010002ABDE
:100D40009A1DB069114B984703001720002B00D063
:100D50003CE702AB06331B783B73BFE75904000046
:100D600000040040E52B0000592B00001103000097
:100D7000850E000059100000B00500205D03000042
:100D8000DD2C000000200041012C00005302000077
:100D900010B544791523012C01D0180010BD047A38
:100DA0000023002CF9D1002A58D04B78002B44D0D6
:100DB00003681B7EDB0710D40A78D10900230029C1
:100DC00004D15309DB012E498C4663441F21114095
:100DD00001228A409A610523DFE70A78D4090023BB
:100DE000002C04D15309DB01254CA44663441F2485
:100DF00014400122A2405A6103681A7ED20701D52D
:100E00008A789A62C2790023002AC6D10268042136
:100E1000137E0B42FCD0117E00234907BDD5538BB6
:100E20005B0701D5042353838379012B02D0936A96
:100E30000023B2E7936A0023AFE70A78D1090023C1
:100E4000002904D15309DB010D498C4663441F215D
:100E5000114001228A405A6100239EE70A78D10995
:100E60000023002904D15309DB0105498C46634462
:100E70001F21114001228A409A6100238DE7C0465C
:100E800000440041F8B58000704BC45826683723F1
:100E9000E75C3622A25C1740337EB57D1D40EB0730
:100EA00002D56379012B1ED06B0711D5738B5B07BD
:100EB0005AD5637A012B08D01E223823E254353BE1
:100EC0006372023333753B074AD4B36A04237383D6
:100ED000AB0703D56379012B00D197E06DB2002DEC
:100EE00000DAA9E0F8BD637A002B22D0637A002BE8
:100EF000DAD02168E26A1378DBB2501CE062A07994
:100F0000012827D09BB2DB05DB0D8B62A38E013B52
:100F10009BB2A386A38E9BB2002BC5D10133337540
:100F2000637A012BC0D1E379002BBDD10233B375B5
:100F3000BAE7474B1B88B362638E013B9BB2638663
:100F4000638E9BB2002B01D1013333756379012B82
:100F5000CCD0A9E75078000203430232E262D2E724
:100F60002000A3699847B0E7637A012B28D0236853
:100F70009B6ADB05DB0DDAB2A16A0A70A26A511C1A
:100F8000A162A179012934D0238E013B9BB2238633
:100F9000238E9BB2002B00D09AE700223833E25414
:100FA000343B3375637A022B29D0637A002B00D04F
:100FB0008EE7BB0700D48BE720002369984787E7BB
:100FC00023689B6A638E013B9BB26386638E9BB2F0
:100FD000002B00D07CE70433337500223433E25415
:100FE000353B6372FB0700D472E72000E368984743
:100FF0006EE71B0A5370A36A0133A362C4E77B0741
:1010000000D465E720006369984761E7637A012BA4
:1010100000D063E7E379002B00D05FE7023333753C
:101020000133637200223533E254FB0700D455E7E5
:101030002000E368984751E78023337533767B06B9
:1010400000D44FE7636A200098474BE7B0050020C3
:10105000AC0500207047000030B50B4B1B78002B0F
:101060000ED10A4C0A4D25600A4B00221A606560B9
:101070005A60A5609A60E560DA600132024B1A702E
:101080008000024BC15030BD8E0000209000002037
:1010900055100000B005002010B582B001AC092346
:1010A0002370013363700133A3700133E370024B8B
:1010B0009847205602B010BD5904000010B5024BED
:1010C0001B680020984710BD9000002010B5024B0F
:1010D0005B680120984710BD9000002010B5024BBE
:1010E0009B680220984710BD9000002010B5024B6D
:1010F000DB680320984710BD9000002070B50022E7
:10110000104B1A70002310491F25104E0D4C0AE099
:101110000D4908E023780133DBB223700F2B10D880
:1011200000211F2BF4D928001840012282400869B1
:101130001042EFD00A619B009B59002BEAD09847E0
:10114000E8E770BDC00500200018004060050020E1
:1011500070B50020084B98470500084CFA2189001B
:10116000A047074B186007492800A047064B1860A6
:101170000522064B1A6070BDCD2A0000B93500006B
:101180000000002040420F000400002010E000E0BA
:1011900030B5084B1C68084A0025802149020138F7
:1011A00007D3002CFBD05460956013680B42FCD031
:1011B000F5E730BD0000002010E000E070B582B01F
:1011C0000023164A136001AC01256570A3702570D9
:1011D00021000320124EB04721000420B047210017
:1011E0000A20B0470F4B8022D2005A6108225A6170
:1011F00008325A610C4B1B681D4203D00A4B1B6816
:101200009B0701D4094B98470122094B1A70BFF381
:101210005F8F62B6002002B070BDC046A000002003
:10122000492500000044004110E000E05111000099
:101230000A00002070B5441E002804D0024D012091
:10124000A847013CFBD270BD91110000F0B5C64625
:1012500000B50A4C8023DB0098466361082666616E
:10126000102565610120064FB8474346A3610A2057
:10127000B847A661A56104BC9046F0BD004400419A
:1012800035120000F0B5DE4657464E464546E0B5FD
:1012900083B007000E00140000226B46DA710029AB
:1012A0000CD0002C68D006204042002F5AD10023D9
:1012B0009B46013398466B46DF1D09E0002858D055
:1012C000002C5CD001239B46002398466B46DE1D14
:1012D00001222C492C482D4B98472B4B9A4601252F
:1012E000042199465A4653425A4193463878534608
:1012F0001B681A7E2A42FCD01A7E2A42FCD09862D1
:101300001A7E0A42FCD04A469279944606E060462C
:1013100001280DD0986AC0B2002A0DD01A7E0A4268
:10132000FCD0588B00220842F1D059831E32EEE7E0
:10133000986AC005C00DEFE73070013CA4B25E446E
:1013400043465A425341FF18002CCFD10E4B196827
:1013500002220B7E1342FCD000220A490A480B4BA2
:101360009847002003B03CBC90469946A246AB4645
:10137000F0BD0F204042F5E70F204042F2E70F207A
:101380004042EFE7C4050020C8050020910D000091
:1013900030B591B0304C1123237000236370A370DB
:1013A00001A901224A708B700A7011202B4B9847BB
:1013B0002278D1090023002904D15309DB012849EF
:1013C0008C4663441F21114001221000884098611F
:1013D00002AC227000230393049323746374A274F9
:1013E000E27423752332A354183A002108A81D4B38
:1013F000984780235B02E3601B4BA36201235B429F
:10140000E3621A4B23631A4B63631A4BA3612200F6
:1014100019491A481A4B984700281AD1174D2C68B9
:101420002000184B98471F2318401E3B8340164A44
:1014300013602A68D369002BFCD12368022213436E
:101440002360124B98470120114B9847002011B0A0
:1014500030BD06204042FAE7C405002049250000BF
:101460000044004193370000020010000200120007
:1014700002001300001BB700000C0042C80500204A
:10148000B90B00009910000000E100E04D120000CF
:101490003512000010B5032806D10A894B68086888
:1014A0001900094B984710BDB82252000749084857
:1014B000084B98470848094B98470D20084B984718
:1014C00001204042EFE7C04685120000EC480000D2
:1014D000FC480000F538000010490000113A0000F7
:1014E0002939000010B5064B9847041E01D0200092
:1014F00010BD044B98470122034B1A70F7E7C04612
:10150000D91800000D150000A400002000B583B01C
:101510000023019301A91148114B9847002801D0DD
:1015200003B000BD80214900019B194301910B4884
:101530000C4B98470028F3D101A9D0204001084B5B
:1015400098470028ECD180214902019B1943019161
:10155000D0204001034B9847E2E7C0460814000042
:10156000F1170000FD17000010B582B0284B1C6871
:10157000002C04D0264B1C68200002B010BD1900BE
:1015800080204001234B9847002803D00022204BA5
:101590001A60F1E701A920481E4B9847002803D0A4
:1015A00000221B4B1A60E7E7194B1B681B4A93424A
:1015B0000ED01B4A934212D01A4A93421CD01449AF
:1015C000194A0B681A40A023DB0213430B60D1E7D2
:1015D000019B012BF3D0154A0D4B1A60EFE7019BDD
:1015E000032BECD0042B03D0114A094B1A60E6E719
:1015F000104A074B1A60E2E70549EC208003054BCF
:1016000098470028DBD00022014B1A60B4E7C0469F
:10161000A8000020F1170000F4130000A002100041
:10162000B0021000F0001000FFFFF0FFA102100058
:10163000B2021000B1021000F0B583B00023019394
:10164000009301A90B20284B9847041E30D1019923
:10165000CB0706D4012319430B20244B9847041EC3
:1016600026D101A90120204B9847041E20D10199C1
:101670008B0720D505251C4F1D4E69460F20B84706
:10168000041E20D1009B5B072BD40220B047013DF4
:10169000002DF2D1AD22520016491748174B98473A
:1016A0001748184B98470D20174B9847042464425D
:1016B000200003B0F0BD0223194301200B4B9847D3
:1016C000041ED7D0F4E7A82252000A490A480B4D5D
:1016D000A847009A21000D48A8470D200A4B9847BB
:1016E000E6E70B4B9847E3E7F1170000FD17000012
:1016F0003512000024490000FC480000F5380000C5
:1017000048490000113A0000293900003049000022
:10171000D917000070B582B000230193154E01A9BE
:101720003000154DA84704000121019B1943019188
:101730003000124B98470419E4B201A9A0204001DF
:10174000A8472418E4B201994B0502D460B202B054
:1017500070BD0B4B19400191A02676013000074B5C
:101760009847050001A93000034B98472818201816
:1017700040B2ECE718110000F1170000FD1700005F
:10178000FFFBFFFF10B50021A0204001034B98474D
:1017900004003220024B9847200010BDFD170000C6
:1017A0003512000010B5064B9847002800D010BD38
:1017B000044B98470028FAD1034B9847F7E7C046F7
:1017C00039160000851700001517000010B5014BF1
:1017D000984710BD9113000010B5014B984710BDFC
:1017E000B51F000010B5014B984710BDDD1F00006C
:1017F00010B5014B984710BDF11F000010B5014B0B
:10180000984710BD09200000F0B5D6464F46464621
:10181000C0B582B0804689461500134B1F88083F2B
:10182000BBB201931E0004009A421AD90F4B9A468C
:10183000371A4346E11A4944019A2000D04700284C
:1018400009D1AD1B3919A419B542F2D8AAB249443D
:101850002000064B984702B01CBC90469946A24611
:10186000F0BD0021F2E7C046080000204921000039
:10187000F0B5D6464F464646C0B582B0804689464A
:101880001500134B1F88083FBBB201931E000400D4
:101890009A421AD90F4B9A46371A4346E11A4944DD
:1018A000019A2000D047002809D1AD1B3919A4198D
:1018B000B542F2D8AAB249442000064B984702B07C
:1018C0001CBC90469946A246F0BD0021F2E7C046F6
:1018D00008000020A522000070B50020144B984796
:1018E000041E19D1134B9847000D032801D0124B49
:1018F0009847124B98471248124DA8470D4B9847EE
:1019000001001148A8470D20104B984700211048AE
:10191000104B9847200070BDEB220F490F48094B30
:1019200098470F480F4B98470D20084B9847F1E711
:10193000CD17000069150000A51700002120000048
:101940009C490000F5380000A84900002939000032
:1019500000030200FD17000064490000FC4800007D
:1019600080490000113A000000B585B001AB01903C
:1019700000220292198119000320024B984705B0FA
:1019800000BDC0469514000070B584B008AC257841
:1019900001AC20703F30C4B20E2C00D984E0A0000E
:1019A0004F4C2058874601AB0A0C5A700A0A9A70AD
:1019B000D97005214B4B1B78002B77D00139C9B268
:1019C00083E00B0ADBB2002D07D101AA537001ABF3
:1019D00099700022DA700521ECE78022524213430D
:1019E00001AA5370F3E701AB00225A709A70DA70C3
:1019F0000521DFE701AB00225A709A70DA700521E9
:101A0000D8E701ABFF225A709A70DA700521D1E74E
:101A100001AA080C5070080A9070D170190A11714F
:101A200053710721C6E701AA080C5070080A90708C
:101A3000D170190C1171190A517193710821B9E70C
:101A40000B0ADBB2002D0CD101A8437001AB9970D9
:101A5000110ED970110C1971110A59719A7108215E
:101A6000A8E780204042034301A84370EEE701ABA2
:101A7000080C5870080A9870D970110E1971110C61
:101A80005971110A9971DA71092193E79022520074
:101A900015491648164B98471648174B98470D207E
:101AA000164B9847002317E0002315E04E1E01AAAD
:101AB00095197F23124C5B0010784340E35C0132A0
:101AC000AA42F8D15B0001AA935589B201A80D4B37
:101AD000984701230028D9D1180004B070BDC04632
:101AE000B8490000AC000020F8490000FC480000A4
:101AF000F5380000884E0000113A00002939000036
:101B0000844A00006919000000B585B001AB0022CD
:101B100001920290198119000320024B984705B0E9
:101B200000BDC04695140000F0B5C64600B582B0B1
:101B30000700CF282BD003003B33DBB2012B26D983
:101B40000B246B46DE1D264B984601213000C04712
:101B5000051E25D13378BB4230D0013CE4B2002CC5
:101B6000F3D10B346B46DE1D1D4F01213000B84709
:101B7000002825D13378002B2FD0013CE4B2002C73
:101B8000F3D10125280002B004BC9046F0BD01212C
:101B90006B46D81D124B984700250028D0D0F1E79E
:101BA0005C22FF320F491048104B98471048114BE8
:101BB00098470D20104B98470025E3E70B24D1E709
:101BC0006A22FF3207490848084B98470848094BE2
:101BD00098470D20084B9847D4E70125D2E7C04627
:101BE000091B0000104A0000FC480000F538000006
:101BF000B44E0000113A000029390000F0B5DE466D
:101C000057464E464546E0B587B001908946029258
:101C100000239A4680239B019B466A46D3813C4B16
:101C200098462FE0BE2292003A493B483B4B9847EA
:101C30003B483C4B98470D203B4B984700252800DC
:101C400007B03CBC90469946A246AB46F0BD002C7E
:101C50002EDD019B5344180039002D4B9847041E7C
:101C600034D1029B002B03D1304B1B78002B39D091
:101C70005346FB181BB29A464B46DF1BBBB2994634
:101C8000002B43D04F46D94501D96B46DF89BFB2FF
:101C90000A2404ABDE1C01213000C047051EC1D15F
:101CA00033781B090F2BD2D0013C24B2631CF2D134
:101CB000C122920017491848184CA04704ABD978A4
:101CC0001B48A0470D20184B9847B8E7194A1149FF
:101CD0001148124B98471848124B98470D20124B49
:101CE0009847ACE7022105A8094B98470028BFD0C8
:101CF000C622920007490848084B98470F48094BED
:101D000098470D20084B9847250098E7012596E74E
:101D1000091B00001C4A0000FC480000F5380000C8
:101D2000E84E0000113A000029390000AC00002004
:101D30001C4F00000D0300004C4F00007C4F0000C2
:101D4000F0B5D6464F464646C0B586B003900491DE
:101D500030280FD8304B1F78FBB205930023302278
:101D600003998A425B41DBB29A460A252B4B98467F
:101D7000D14633E02A4B1F78EEE70598294B984768
:101D80000400012841D0284A28492948294EB04753
:101D900003992948B0470D20284B98470120284E29
:101DA000B0470023009300220021CF201B4FB847EB
:101DB000CF201C4B9847EA2292001C491C481D4F1B
:101DC000B847049B039A29001E48B8470D201B4BB7
:101DD00098470120B047013D002D16D04B46009397
:101DE0000423049A039F39000598C0470400012882
:101DF000C3D0154A0D490E480E4EB047390013485E
:101E0000B0470D200D4B9847C8E7200006B01CBC1A
:101E100090469946A246F0BDF44900008919000099
:101E2000F5490000291B0000950300003C4A000012
:101E3000FC480000F538000074500000293900000B
:101E400035120000AC5000008F0300004850000025
:101E5000F0B5DE4657464E464546E0B587B002909F
:101E60008B46FF280FD8414B1F78FBB2039300230A
:101E7000FF2202998A425B41DBB29A460A253C4B1B
:101E80009846D14631E03B4B1F78EEE703983A4B3A
:101E900098470400012840D0384A394939483A4E19
:101EA000B04702993948B0470D20394B9847012077
:101EB000384EB0470023009300220021CF202C4F42
:101EC000B847CF202C4B9847334A2D492D482E4FE9
:101ED000B847029A29003148B8470D202C4B984743
:101EE0000120B047013D002D38D04B46009304231C
:101EF0000022029F39000398C04704000128C5D082
:101F00008222D2001E491F481F4EB0473900244884
:101F1000B0470D201E4B9847C9E74A46042105A843
:101F2000204B9847040001280BD01F4A144915483C
:101F3000154B98471D481E4B98470D20144B98474A
:101F4000B5E705AA53781B02917809040B43117871
:101F50000B43D278120613435A461360200007B091
:101F60003CBC90469946A246AB46F0BDF6490000FF
:101F700089190000F7490000291B00001604000021
:101F80005C4A0000FC480000F5380000DC4F00000F
:101F900029390000351200003504000030500000DF
:101FA000B04F0000FD1B00001D0400001050000099
:101FB000113A000010B582B00023009300220021E6
:101FC000CF20044CA047CF20034B9847002002B0FD
:101FD00010BDC04689190000291B000000B583B060
:101FE00001A9024B9847019803B000BD511E0000A3
:101FF00010B5044B98470023012801D1180010BDEB
:10200000063BFBE7511E000010B5044B9847002328
:10201000012801D1180010BD063BFBE7411D00005F
:1020200010B582B000230093354A137069463548D5
:10203000354B9847002828D0314B1B78002B0DD109
:102040007C33009999432C3B194300912D482F4B29
:102050009847041E3AD00122294B1A7001A980200A
:102060004001294B984700283CD0264C2000284BA3
:102070009847702301009943502001432000254BCD
:1020800098470024200002B010BD01221C4B1A709A
:102090009822D20020492148214B98472148224BC1
:1020A00098470D20214B984769461648164B98478C
:1020B000041EC1D11E4A18491848194B98471D489B
:1020C000194B98470D20194B9847DBE71A4A1249DC
:1020D0001248134B98471948134B98470D20134B40
:1020E0009847CFE7164A0C490C480D4B98471548BE
:1020F0000D4B98470D200D4B984706246442C1E7CD
:10210000AC00002024E80000511E0000411D00002A
:10211000DD1F000009200000784A0000FC48000094
:10212000F5380000844B0000113A00002939000006
:10213000C3040000D44B0000CD040000004C00009C
:10214000D7040000344C0000F0B5DE4657464E463A
:102150004546E0B587B00290039116000A2500239A
:102160009B4600243E4B9846A94637E001239B46F8
:10217000013635E0C8203B4B9847012845D03A4A04
:102180003A493B483B4FB84702993B48B8470D2076
:102190003A4B984701203A4FB84700942300220059
:1021A0002100CF202E4DA847CF202E4B9847354AEF
:1021B0002E492F482F4B9A4698473300029A49469A
:1021C0003148D0470D202D4B98470120B8470123B7
:1021D0005B429C46E1444B46002B38D0012EC5D0D3
:1021E000009433002200029D2900C820C047012826
:1021F000C0D0264A1D491E481E4FB8472900244812
:10220000B8470D201D4B9847C4E75B46002B16D0FE
:1022100005AF2200310038001E4B98473B78039AE7
:102220001370012811D01C4A10491148114B9847CE
:102230001A481B4B98470D20104B9847AAE72200DD
:1022400031000398134B9847EBE7002001E006208C
:10225000404207B03CBC90469946A246AB46F0BD12
:1022600089190000291B00005C0400006C4A000072
:10227000FC480000F5380000884C000029390000B7
:10228000351200007D040000E84C000056040000F8
:10229000584C0000FD1B00006C040000C04C000006
:1022A000113A0000F0B5DE46474680B589B004908B
:1022B0008B4603920A268027BF016B46DF823500DA
:1022C0002DE0013303932DE0824A83498348844CF7
:1022D000A04731008348A0470D20834B9847012039
:1022E000824CA0470023009300220021CF20804E83
:1022F000B047CF207F4B98477F4A77497748784E41
:10230000B047039B049A29007C48B0470D20764BC8
:1023100098470120A047013D002D00D1D2E0039B4A
:10232000012BCED000230093039B0022049E31009A
:10233000C7206F4CA0470128C6D1C7206D4B9847D6
:1023400001280BD06E4A64496448654CA047049943
:102350006C48A0470D20644B9847C0E7002207ABAC
:102360001A80039C0026A8463500260021E00023A1
:10237000B7425B4102330B2004AA9446604410220A
:1023800052421343037001215F4B984700281DD12F
:102390005B46581921005C4B984700282ED15B4BB7
:1023A0001B78002B37D065192DB2361BB6B2002E24
:1023B00052D0341CBE4201D96B46DC8AA4B2002D37
:1023C000D5D10323BE42D6D9023BD4E74546504A75
:1023D00050494248424B98474F48504B98470D2030
:1023E000414B98474E4A3C493C483D4B98474D48E5
:1023F0004A4B98470D203C4B984770E745464A4A60
:1024000044493648364B98474848444B98470D2036
:10241000354B9847E6E7022107A83B4B9847002831
:10242000C1D04546D72292003A492C482C4B9847B8
:102430003F483A4B98470D202B4B9847D2E79A22BA
:1024400052003C492548264B98473B48334B984718
:102450000D20254B984727E045462C4B1C78631EE2
:102460009C410234A1B207A8344B98470028E6D11A
:1024700008AB1B19053B1B78002B06D108AB9C460B
:102480006444063C2378C32B1AD03C22FF322949EE
:102490001248134CA04707A98B784A780978284836
:1024A000A0470D20104B9847264A0B490B480C4B70
:1024B00098471C48194B98470D200B4B98470EE73F
:1024C000002001E00620404209B00CBC90469B462B
:1024D000F0BDC046C30300004C4A0000FC480000A9
:1024E000F5380000044D00002939000035120000C5
:1024F00089190000291B0000EB030000E84C0000D4
:10250000C9030000344D000069190000AC00002030
:10251000490300002C4A00006C4D0000113A0000F5
:10252000D9030000604E000052030000A44D0000DB
:10253000D84D0000004A0000104E0000091B0000AA
:10254000304E0000E103000000B583B001AB8022F3
:102550001A700A785A704A789A708A78DA70190074
:10256000014B984703B000BDDD2C00007047000010
:102570000C4B1B68002B06D1EFF31083002B07D008
:102580000022094B1A70074A136801331360704721
:1025900072B6BFF35F8F0022044B1A700132024BF8
:1025A0001A70F0E7B0000020B40000200A000020FC
:1025B000084B1A68013A1A601B68002B09D1064BB8
:1025C0001B78002B05D00122044B1A70BFF35F8FDC
:1025D00062B67047B0000020B40000200A0000205E
:1025E00010B5082803D880001C4B1B589F460020BC
:1025F00032E01B4B18692FE01A4B1B6A9B059B0F9F
:102600001948D84028E0164B586925E0144B1B6840
:1026100000209B0720D513491022CB681A42FCD01A
:102620000F4B1A6824231340042B01D00F4813E0EA
:1026300000200F4B98470A4B9B681B041B0C584308
:102640000AE05023074AD35C00205B0704D5044B03
:10265000D86801E08020000210BDC046C8500000CC
:10266000B80000200008004000127A00006CDC0274
:10267000012C000070B50C490B6A0478857840780D
:102680000122104080014026B34303432A40D20177
:102690008020834313430322224012020348034055
:1026A00013430B6270BDC04600080040FFFCFFFFF3
:1026B000F0B5CE46474680B5194B99469B6941789F
:1026C0008C4605780679C7784479807801210840DE
:1026D000800004229343034360460840C000043254
:1026E000934303433800084080014027BB43034322
:1026F00030000840C0018026B34303430720054053
:102700002D02084803402B4321400903064803409B
:102710000B434A4693610CBC90469946F0BDC046B7
:1027200000080040FFF8FFFFFFEFFFFF10B5037A3E
:102730009B061B0C42899205920D134318494B606E
:102740008379C279134342888488224313434278B1
:10275000D20113430B600378042B11D0202B0ED130
:10276000037B9B06028A1343C28912040D490A4067
:1027700013430B4A936011680B4B0B43136010BD5E
:10278000037B9B06028A1343C289120405490A404F
:102790001343034A9360136804210B431360EEE76D
:1027A000B80000200000FF0324040000082803D81C
:1027B0008000254B1B589F46172044E0234A136A8C
:1027C00002210B43136200203DE0204A936902215D
:1027D0000B439361002036E01C4A138A02210B430D
:1027E000138200202FE0194A938A02210B4393821F
:1027F000002028E016490B68022213430B60134B9C
:102800009A8419000E32CB681A42FCD0104A9168A3
:102810000E4BD96252689A6200229A8419001032D3
:10282000CB681A42FCD00A4B1B689BB2074A9384C0
:10283000002008E0054944228B5C022003438B54AE
:10284000002000E000207047EC500000000800402D
:10285000B8000020F0B58DB0C222D200444B9A607F
:10286000444A53681E218B431A390B43536002229A
:1028700001AB1A700024404DE0B201A9A847013411
:10288000252CF9D13D4C2368DB0439498A695B0E5C
:102890001B043B48024013438B610AA80123437089
:1028A00083700025C5700371457102330370354B89
:1028B00098470420344B984705AB00225D809D80EB
:1028C0009A71DA713F2159813B3919705A70236826
:1028D0009B0E3F2B4AD005A803722C4B0382072383
:1028E00003733833C3812A4B984704A800254570E9
:1028F000012686700570274B98470620224FB8475F
:10290000254B984701AC02966570257265720423C9
:10291000237021000120214B98470120204B98472C
:10292000267021000020144B984700201D4B98472B
:102930000720B8470E49D022CB681340D02BFBD1DB
:10294000194A0023137253729372D37201A90122A0
:102950004A604B700B724B7207330B7000200F4BA9
:10296000984700200E4B98470DB0F0BD203BB2E7D2
:102970000008004000400041E52B0000246080007A
:10298000FFFF80FFB1260000AD270000B905000061
:102990002D27000075260000AD290000D129000078
:1029A000892A0000592B000000040040064A936960
:1029B00008210B4393610122044B1A7019000B7814
:1029C0001342FCD17047C04600040040000C004098
:1029D00070B5060004000D782D0205434B78002BDE
:1029E00002D08023DB021D434B7A002B02D08023D0
:1029F0001B031D434868012810D9431E184234D1D7
:102A0000022830D90223002201325B009842FBD811
:102A100012023243140080235B031D430B7A002B08
:102A200002D080239B031D43134A53785BB2002BD3
:102A3000FBDB124B9847124B1E700F4A53785BB268
:102A4000002BFBDB0C4B9C601A0053785BB2002B15
:102A5000FBDB094A5368802149020B401D43556046
:102A6000084B984770BD0022D2E70402344380230C
:102A70009B021D43D2E7C046000C004071250000B8
:102A8000080C0040B125000010B504000B4A537833
:102A90005BB2002BFBDB0A4B98470A4B1C70074AC2
:102AA00053785BB2002BFBDB044A516880235B0246
:102AB0000B435360044B984710BDC046000C0040C8
:102AC00071250000040C0040B125000070B5040021
:102AD0001A4A53785BB2002BFBDB194B9847194B12
:102AE0001C70164A53785BB2002BFBDB134E7068E8
:102AF000C004C00E144B98470500124B1C7076683A
:102B0000F602F60F114B1C700C4A53785BB2002B87
:102B1000FBDB0A4B9C682402240C0D4B9847002ECB
:102B200007D1012C07D9210028000A4B984705003E
:102B300001E00134E540280070BDC046000C0040B3
:102B400071250000040C0040E1250000080C004045
:102B5000B1250000B935000010B50400064B9847B8
:102B6000064B1C70064A53888021C9010B435380D1
:102B7000044B984710BDC04671250000020C004070
:102B8000000C0040B125000010B504000F4B984721
:102B90000F4B1C700F4A53881B05180F53880E49A2
:102BA0000B40538053880D490B4053801100802205
:102BB000D2014B881342FCD106494A8803020648D9
:102BC000024013434B80064B984710BD712500000F
:102BD000020C0040000C0040FFF0FFFFFFBFFFFFB2
:102BE000B125000010B50C7824020443024B98472D
:102BF000A4B2024B5C8010BD892B0000000C004089
:102C000010B50400064B9847064B1C70064B5C88B9
:102C10002405240F054B98472000054B984710BD0D
:102C200071250000020C0040000C0040B12500009E
:102C3000CD2A000030B5D378002B35D11378802B06
:102C400029D01B0680246402234354780225AC4318
:102C500006D19478002C20D18024A4022343416023
:102C60005478013C012C1CD90D042D0CA024E40542
:102C70002C431C4384620D0CD02424062C431C439B
:102C80008462D478002C22D15B031CD59378012B6D
:102C90001ED0416117E00023D7E7C024E40223439C
:102CA000DDE70D4C2340DFE741600C04240CA0233A
:102CB000DB05234383620C0CD0231B062343836272
:102CC000D378002B03D15378013B012B02D930BDBF
:102CD0008161F8E78160FAE7FFFFFBFF10B50A00AA
:102CE000C1090023002904D14309DB0105498C46B1
:102CF00063441F242040012181401800024B984763
:102D000010BDC04600440041352C00007047000053
:102D100010B5054B9847054B9847054B9847054B11
:102D20009847054B984710BD552800006D250000B9
:102D30000D2D00002D0100000D2D0000FEE700000C
:102D4000F8B52A4A2A4B9A4211D01A00294B9A42C6
:102D50000DD2294A03339B1A9B0801339B000022A2
:102D6000234822498C58845004329A42FAD1234A8B
:102D7000234B9A420AD2D34321495B1803218B4348
:102D800004339B18002102C29342FCD11D4AFF214B
:102D90001D4B8B439360FD3990235B001B4AD15040
:102DA0001B4AD3780325AB4302242343D370D37843
:102DB0000C27BB4308263343D370164B987B302235
:102DC0009043202210439873997BB9433143997300
:102DD0009A7BAA4322439A730F4A536880210B437C
:102DE00053600E4B98470E4B9847FEE73852000051
:102DF000000000207000002004000020700000206F
:102E00000806002000ED00E0000000000070004116
:102E100000500041004800410040004125370000BB
:102E2000813000000300064A1268002A04D0044AD8
:102E30001068C318136070470249014A1160F6E731
:102E4000D000002008260020012040427047802347
:102E50009B014B60002070470120704700207047A5
:102E600001220A4B1A700A4B1A88436A9B1A094AB4
:102E70001360094B1B78002B06D0084B1A78084BBF
:102E80001A700022044B1A707047C0464405002097
:102E90001401002040050020080100200901002045
:102EA0004505002010B5104B1B78002B0AD00F4BA6
:102EB0001A88012A12D00E4B19680E4B984700222F
:102EC000094B1A700C4B1B78002B06D00B4B1A7851
:102ED0000B4B1A700022084B1A7010BD044B196876
:102EE000084B9847EBE7C0460C0100201401002076
:102EF00010010020050A000008010020090100203F
:102F000045050020D509000070B582B005000E000F
:102F100000226B46DA80064C6B46991D2800A047BC
:102F20000028F9D16B4606331B88337002B070BDA0
:102F3000A508000070B505008CB2034E21002800E2
:102F4000B0470028FAD170BD79080000F0B591B003
:102F50008023DB05009300230193FF2269460A8149
:102F600000228B72CB72012524216C4665540131FD
:102F7000655401316354013163540A93053163543C
:102F80000131635405932382E376227622776276B9
:102F90001323A376627780235B030393244B0C9364
:102FA000244B0D9301235B420E930F930890224C08
:102FB000224B1C60224A234B1A60234A234B1A607F
:102FC0006A4623492000234B9847234F3B68986863
:102FD0000021224EB0473B6858680021B0470122CB
:102FE0001F4920001F4EB04700221F492000B04754
:102FF0003122A35C03210B43A354266830001B4BF2
:1030000098471F2318408540194B1D602268D369DB
:10301000002BFCD13368022213433360013A154B75
:103020001A8015490448154B984711B0F0BDC046A9
:103030000200160002001700D4000020A80500209E
:10304000352F0000A4050020092F0000A005002056
:1030500000140042350500000C000020493A000031
:10306000612E0000A1090000A52E000099100000AB
:1030700000E100E0140100202C010020D50900002F
:10308000F0B5C64600B584B0C84B9847E120400271
:10309000C74B9847C74B9847C74B9847002800D065
:1030A00052E2C64DC64B984604330193D1E100224B
:1030B000C24B1A70C34B1A78042A00D917E1930047
:1030C000C14AD3589F46C14B1B88012B11D0BC4B22
:1030D000FF221A80BE4A13600122BC4B1A80BD4BEE
:1030E0001A7002AB991DEA230B80BB48BB4B984773
:1030F000B3E1BB4B1B681B78122B0ED0B049B44A0E
:1031000011600121B14A1180B24A117002AA911DC9
:103110000B80B148B14B98479FE1113BA94A13700E
:10312000A74AFF211180AA490A60A84A1380A94B27
:1031300001221A7002AB991D5B230B80A648A74B96
:1031400098478AE1A64B1B681B78A52B17D0122B3A
:1031500023D0A44B1B78002B31D102AB991D5A23ED
:103160000B80974BFF221A80994A13600122974BDC
:103170001A80984B1A709848984B98476DE1022234
:10318000904B1A70FF234246137101228F4B1A8015
:1031900001999148944B98475FE102AB991D5B23DD
:1031A0000B80874BFF221A80894A13600122874BCC
:1031B0001A80884B1A708848884B98474DE1012245
:1031C000824B1A807E498448874B984745E1032209
:1031D0007C4B1A70824B1A68844B1A600B227B4B13
:1031E0001A807D48416A824B984736E17F4B1C68C4
:1031F000230021000C31002000E010001F783A006D
:103200004240D2B201338B42F7D187421BD1794F72
:103210000C2221003800784B98473A683B78032B02
:1032200026D0012B3AD00123744A1370744A1370CC
:103230000522744B1A7002AB991DAC230B806648B3
:10324000664B984709E101235E4A13705C4AFF21EF
:1032500011805F490A605D4A13805E4B01221A703B
:1032600002AB991D5A230B805B485C4B9847F4E0F6
:103270000421544B1970120C634B1A800339554BBF
:1032800019706249524B1960504B1A8002AB991D5C
:10329000AC230B805048514B9847DEE00122574B3E
:1032A0001A700432474B1A70D7E0484B1A88564BB5
:1032B0001B889A4214D00122424B1A7002AB991D0E
:1032C0005A230B803E4BFF20188040480280404A22
:1032D0001360404B01221A703F48404B9847BCE0B6
:1032E0000122464B1A700432364B1A70B5E00122A7
:1032F000344B1A70B1E00022454B1A70314B1A78EA
:10330000042A4ED89300434AD3589F462C4BFF22A1
:103310001A802F4A136001222C4B1A802D4B1A70F1
:1033200002AB991DEA230B802B482C4B984799E060
:103330000123244A13702249254A1160254A13703B
:10334000224A138002AB991DEA230B802248234BAB
:10335000984787E001231B4A137019491C4A1160E2
:103360001C4A1370194A138002AB991DEA230B8083
:1033700019481A4B984775E00122124B1A7002AB9C
:10338000991DEA230B800E4BFF2018800F48028006
:103390000F4A13600F4B01221A700F480F4B9847CA
:1033A00060E00122074B1A705CE0C046112D00005E
:1033B0004D2F0000BD110000E51400004405002061
:1033C0002C010020450500201051000014010020B0
:1033D000100100200C010020D4000020B9090000D9
:1033E0004005002028010020D5090000240100200C
:1033F000050A000018010020813700001601002096
:1034000008010020090100200A01002040010020DD
:103410003C010020245100004F4B58684F4B984707
:103420004F4A504B1A6001224F4B1A804F4B1A7073
:103430004F4B1A704F49030E0B70C870030C4B7042
:10344000000A887004224C484C4B984700224C4B91
:103450001A702B78002B00D029E64A4B1B78002BE2
:1034600000D048E7464B1B78002BF2D0404B1B782E
:10347000052BEED1384B1A681B78052BE6D89B003C
:103480004149CB589F46344B996858683F4B984701
:10349000334A344B1A600122334B1A80334B1A7073
:1034A00003A9AC230B80324B1A703348384B984732
:1034B000CCE7120C374F284C39006068364B9847E0
:1034C000274A284B1A600122274B1A80274B1A7073
:1034D000274B1A70628839002748284B9847B5E770
:1034E000120C1D4B58682B492C4B98471C4A1D4BFE
:1034F0001A6001221C4B1A801C4B1A7003A9AC23C2
:103500000B801B4B1A701C48214B98479EE70127E4
:10351000174B1F70224B1F70174E34682000214B31
:1035200098471F231840874061331F4AD75032689D
:10353000D369002BFCD12368022293432360064BFE
:1035400098681A4B984781E719481A4B984700200A
:1035500004B004BC9046F0BD18010020E51700003F
:103560002C01002010010020140100200C0100207B
:103570004505002048050020D4000020E509000092
:10358000160100203C01002038510000FD1700000A
:10359000B90900004001002009180000711800005E
:1035A000280100209910000000E100E04D2F0000EC
:1035B00050510000113A0000002243088B4274D39E
:1035C00003098B425FD3030A8B4244D3030B8B4224
:1035D00028D3030C8B420DD3FF22090212BA030C2D
:1035E0008B4202D31212090265D0030B8B4219D30E
:1035F00000E0090AC30B8B4201D3CB03C01A52412E
:10360000830B8B4201D38B03C01A5241430B8B4275
:1036100001D34B03C01A5241030B8B4201D30B035E
:10362000C01A5241C30A8B4201D3CB02C01A524185
:10363000830A8B4201D38B02C01A5241430A8B4248
:1036400001D34B02C01A5241030A8B4201D30B0231
:10365000C01A5241CDD2C3098B4201D3CB01C01A4B
:10366000524183098B4201D38B01C01A5241430955
:103670008B4201D34B01C01A524103098B4201D343
:103680000B01C01A5241C3088B4201D3CB00C01AB0
:10369000524183088B4201D38B00C01A5241430828
:1036A0008B4201D34B00C01A5241411A00D201464D
:1036B000524110467047FFE701B5002000F006F8C0
:1036C00002BDC0460029F7D076E770477047C04674
:1036D000F0B5CE46474615042D0C2E0080B50704E4
:1036E000140C3F0C9946030C7E435D4367436343D0
:1036F0007F19340CE4199C46A54203D980235B0250
:103700009846C4444B46514343433604360C250C7B
:1037100024046544A4195918491920000CBC90468A
:103720009946F0BD70B500260C4D0D4C641BA410DD
:10373000A64209D1002601F06FFD0A4D0A4C641B18
:10374000A410A64205D170BDB300EB5898470136CE
:10375000EEE7B300EB5898470136F2E72452000039
:1037600024520000245200002852000010B5034BE0
:103770000100186800F060F810BDC0460C00002081
:10378000002310B59A4200D110BDCC5CC454013363
:10379000F8E703008218934200D170471970013393
:1037A000F9E7000070B50500002910D00C1F236850
:1037B000002B00DAE418280000F0C2FC1D4A136850
:1037C000002B05D163601460280000F0BAFC70BDC6
:1037D000A34209D9216860188342F3D118685B6855
:1037E00041182160EEE713005A68002A01D0A24276
:1037F000F9D919685818A0420BD12068091858182F
:1038000019608242E0D110685268411819605A600C
:10381000DAE7A04202D90C232B60D5E721686018B3
:10382000824203D1106852684118216062605C6076
:10383000CAE7C04658050020032370B5CD1C9D4340
:10384000083506000C2D1ED20C25A9421DD83000CB
:1038500000F076FC254A14682100002919D1244C77
:103860002368002B03D1300000F0DCF82060290031
:10387000300000F0D7F8431C2CD10C23300033600B
:1038800000F05FFC03E0002DDFDA0C233360002042
:1038900070BD0B685B1B1AD40B2B03D90B60CC18C3
:1038A000256003E08C420ED163681360300000F0A5
:1038B00048FC200007220B30231D9043C31AE7D099
:1038C0005A42E250E4E74B6863600C00EEE70C00FC
:1038D0004968C2E70323C41C9C43A042E0D0211ADC
:1038E000300000F09FF8431CDAD1C6E758050020ED
:1038F0005C0500200FB40B4B13B51C68002C05D0E1
:10390000A369002B02D1200000F018FB05AB049A3C
:10391000A1682000019300F03DFC16BC08BC04B077
:103920001847C0460C000020084B70B51C68050005
:10393000002C05D0A369002B02D1200000F0FEFA74
:103940002900A268200000F0C9FE70BD0C00002014
:1039500070B505000E00002804D08369002B01D14A
:1039600000F0ECFAAB69AC68002B02D1280000F043
:10397000E5FA244B9C420FD16C68A3891B0702D542
:103980002369002B20D12100280000F069F90028CC
:103990001AD00120404270BD1B4B9C4201D1AC6843
:1039A000EBE71A4B9C42E8D1EC68E6E7013B0136B5
:1039B000A360002B04DAA269934216DB0A2914D013
:1039C00023685A1C226019703178A3680029EDD150
:1039D000013BA360002B0FDA22000A31280000F01F
:1039E000E9F8431CD5D00A20D5E72200280000F0D2
:1039F000E1F8431CE8D1CCE70A2023685A1C226076
:103A00001870C8E7A4510000C451000084510000A0
:103A100010B5034B01001868FFF79AFF10BDC046B0
:103A20000C000020002370B5064C05000800236040
:103A3000FFF7F8F9431C03D12368002B00D02B605B
:103A400070BDC046040600204A424A41802310B59A
:103A50005200DB0000F002F810BD0000F0B51D00C0
:103A60004F4B85B01E6804000F000092002E05D059
:103A7000B369002B02D1300000F060FA494B9C4240
:103A800050D17468009B022B05D0012B00D984E033
:103A9000002D00DA81E02100300000F0E1F9616BD7
:103AA000002908D023004433994202D03000FFF7A8
:103AB00079FE002363630023A3616360A3891B066F
:103AC00003D521693000FFF76DFEA389364A134004
:103AD000A381009B022B5AD003AB02AA2100300025
:103AE00000F0C2FAA3891843A081002D24D1029DC1
:103AF0002800FFF73BFE0195071E42D1029B019370
:103B0000AB4239D1012040420223A2891343A38151
:103B10000023A360230047332360236101236361F3
:103B200005B0F0BD214B9C4201D1B468AAE7204BFF
:103B30009C42A7D1F468A5E7002FD9D0B369002B28
:103B400002D1300000F0FAF9009B012B03D1A389C8
:103B5000009A1A43A2810820A38927602761656122
:103B6000184018D0012018400023984211D06D420F
:103B7000A360A5611800D3E70198FFF7F7FD071EC2
:103B8000C0D08023A289019D1343A381D6E70020E2
:103B9000BAE7A560C4E7A060C2E701204042BFE7E2
:103BA0000C000020A45100005CF3FFFFC451000092
:103BB00084510000F8B505000E001400002804D060
:103BC0008369002B01D100F0B9F9224B9C422DD121
:103BD0006C68A369A360A3891B0731D52369002BF7
:103BE0002ED023682269F7B2981A6369F6B2984218
:103BF00005DB2100280000F033F9002826D1A36856
:103C00000130013BA36023685A1C22601F70636966
:103C1000984204D0A389DB071AD50A2E18D12100B7
:103C2000280000F01DF9002812D00FE00A4B9C423A
:103C300001D1AC68CDE7094B9C42CAD1EC68C8E71A
:103C40002100280000F00CF80028CAD00126764296
:103C50003000F8BDA4510000C451000084510000A0
:103C6000364B70B51D6806000C00002D05D0AB6901
:103C7000002B02D1280000F061F9314B9C420FD19A
:103C80006C680C23E25E93B219072DD4D90611D4C7
:103C900009230120336037331343A381404270BDB1
:103CA000284B9C4201D1AC68EBE7274B9C42E8D102
:103CB000EC68E6E75B0713D5616B002908D02300A9
:103CC0004433994202D03000FFF76CFD0023636358
:103CD0002422A3899343A381002363602369236083
:103CE0000823A2891343A3812369002B0BD1A021B0
:103CF0008022A389890092000B40934203D02100C7
:103D0000300000F0D9F90123A289134011D000231B
:103D1000A36063695B42A361002023698342BED133
:103D20000C23E25E1306BAD540231343A381013866
:103D3000B5E7920700D46369A360EDE70C000020AB
:103D4000A4510000C451000084510000F7B58A89D5
:103D500005000C00130760D44B68002B04DC0B6CCF
:103D6000002B01DC0020FEBDE76A002FFAD0002303
:103D70002E682B6080235B011A4034D0606DA389CC
:103D80005B0706D56368C01A636B002B01D0236CF8
:103D9000C01A0200216A00232800E76AB847A189F7
:103DA000431C06D12B681D2B31D82C4ADA40D3078F
:103DB0002DD50023636023692360CB0405D5431C04
:103DC00002D12B68002B00D16065616B2E60002949
:103DD000C8D023004433994202D02800FFF7E2FC08
:103DE00000206063BFE70123216A2800B847431C15
:103DF000C5D12B68002BC2D01D2B01D0162B01D1B1
:103E00002E60AFE74023A2891343A381ABE7402391
:103E10000B430120A3814042A5E70F69002FA1D0E9
:103E20000B680F60DB1B01930023920700D14B69E5
:103E3000A360019B002B00DC94E7019B3A00216A00
:103E40002800A66AB047002803DC4023A289134358
:103E5000DFE7019B3F181B1A0193EAE701004020AE
:103E60000B6970B505000C00002B01D1002070BD5E
:103E7000002804D08369002B01D100F05FF80B4BC0
:103E80009C4209D16C680C22A35E002BEED021006D
:103E90002800FFF75BFFEAE7054B9C4201D1AC68C5
:103EA000F1E7044B9C42EED1EC68ECE7A451000032
:103EB000C45100008451000010B5024900F0B2F86E
:103EC00010BDC046613E0000002310B50400036031
:103ED0004360836081814366C28103614361836182
:103EE000190008225C30FFF754FC054B2462636222
:103EF000044BA362044BE362044B236310BDC04632
:103F00004947000071470000A9470000D54700005D
:103F100070B568254A1E55430E0029007431FFF71D
:103F20008BFC041E08D000212A00016046600C3082
:103F3000A0606832FFF72DFC200070BD836913B5C7
:103F40000400002B28D18364C3640365134B144A17
:103F50001B6882620193984201D101238361200092
:103F600000F020F86060200000F01CF8A060200045
:103F700000F018F80022E06004216068FFF7A4FF59
:103F800001220921A068FFF79FFF02221221E068A9
:103F9000FFF79AFF0123A36113BDC04680510000C3
:103FA000B93E0000F8B51E4B07001E68B369002B30
:103FB00002D13000FFF7C2FF4836B4687368013B96
:103FC00004D53368002B07D03668F6E70C22A55ECF
:103FD000002D0DD06834F2E704213800FFF798FF78
:103FE00030600028F0D10C2304003B602000F8BDB5
:103FF000012320005B42E3810233A38165662560D3
:10400000A560656025616561A561082229005C30B5
:10401000FFF7BFFB6563A563A564E564E6E7C046FB
:1040200080510000F7B504000700002601914834D4
:10403000002C01D13000FEBD6368A5680093009B91
:10404000013B009301D52468F2E7AB89012B08D925
:104050000E22AB5E013304D029003800019B984743
:1040600006436835EBE7000070B50E001D000E2317
:10407000C95E90B01400002907DA00232B60B389D1
:104080001B0611D48023DB000FE001AA00F0CEFB59
:104090000028F2DBF022029B12021340054A9B1813
:1040A0005A4253412B60EDE740230020236010B0BB
:1040B00070BDC04600E0FFFFF7B502268B89050002
:1040C0000C00334206D023004733236023610123D1
:1040D0006361F7BD01AB6A46FFF7C6FF00990700B1
:1040E0002800FFF7A9FB002808D10C22A35E9A053F
:1040F000EFD4032293431E43A681E4E70F4BAB6248
:104100008023A28920601343A381009B2061636107
:10411000019B002B0DD00E23E15E280000F098FBE0
:10412000002806D00322A38993431A0001231343D6
:10413000A381A0893843A081CBE7C046B93E0000E7
:1041400070477047936810B5013B9360002B05DA08
:104150009469A34208DBCBB20A2B05D01368581C24
:1041600010601970C8B210BDFFF724FDFBE7F8B569
:1041700006000F001400D518AC4201D1002007E062
:1041800021783A003000FFF7DDFF0134431CF3D102
:10419000F8BD0000F0B59FB006000F0014000593B5
:1041A000002804D08369002B01D1FFF7C7FE7F4BA5
:1041B0009F425CD17768BB891B0762D53B69002BA6
:1041C0005FD0002306AD6B6120336B761033AB7686
:1041D0000294029C2378002B5DD1029BE31A049386
:1041E0000DD0049B029A39003000FFF7C0FF431C3A
:1041F00000D1CCE06A69049B944663446B612378E8
:10420000002B00D1C3E00122002352426A6002A9C0
:104210005432521801342B60EB60AB601370AB6505
:1042200021780522624800F039FB631C9C46002877
:1042300035D12968CB0604D5532302AA20309B1818
:1042400018700B0704D553232B2002AA9B18187053
:1042500023782A2B2CD000200A21099B2278303A7F
:10426000092A00D86BE000282AD0099328E0514B96
:104270009F4201D1B7689EE74F4B9F429BD1F768A1
:1042800099E739003000FFF7EBFC002899D00120B6
:1042900040421FB0F0BD252B9FD001349AE7444B1C
:1042A0002968C01A012383400B432B606446B7E79B
:1042B000059B181D1B680590002B3ADB099364468B
:1042C00023782E2B0BD16378621C2A2B3FD1059BC0
:1042D00002341A1D1B680592002B35DB07932178E9
:1042E0000322364800F0DAFA002807D0334B2A6858
:1042F000C01A4023834013432B6001342178631C90
:1043000006222F480293297600F0C8FA002844D0EC
:104310002C4B002B2FD12968059B0722C90528D5D6
:104320009B189343083305936B69039A9B186B6141
:104330004FE75B42EB6002230B432B60BFE74B432D
:1043400001349B18012089E701235B42C6E7002363
:1043500014000A201A006B6021783039092903D92A
:10436000002BBCD00792BAE7424301345218012314
:10437000F2E70733D5E705AB00933A00124B29006B
:10438000300000E000BF0390039B0133CCD1BB8918
:104390005B0600D57BE70B987BE705AB00933A0003
:1043A000094B2900300000F07FF8ECE7A451000031
:1043B000E4510000C451000084510000EA510000A3
:1043C000EE510000000000006F410000F7B515003D
:1043D00001938A680B6900900C00934200DA130085
:1043E00022002B6043321278002A01D001332B6067
:1043F00023689B0602D52B6802332B6006272368AF
:104400001F4027D0230043331B785A1E9341226854
:10441000920630D42200019943320098089EB0479A
:10442000431C25D0062320682A68E1680340002544
:10443000042B03D18D1AEB43DB171D40A3682269BF
:10444000934201DD9B1AED180027BD4220D10020C8
:1044500010E00137E3682A689B1A9F42D2DA2200F3
:104460000123193201990098089EB047431CF0D1EE
:1044700001204042FEBD3020E11843310870210088
:104480005A1C45310978A218433202331170C1E732
:10449000220001231A3201990098089EB047431C5C
:1044A000E6D00137D1E70000F0B58BB006920A00E4
:1044B00043320793059004920A7E0C00109B6E2AEB
:1044C00000D18FE017D8632A2CD008D8002A00D159
:1044D00099E0582A54D026004236327029E0642AE6
:1044E00001D0692AF7D121681A68080623D5111D61
:1044F0001960156825E0732A00D188E008D86F2A72
:1045000029D0702AE7D1202209680A43226003E0FB
:10451000752A20D0782ADED1220078214532117008
:104520006C4A30E00E001A684236111D196013689B
:104530003370012379E04906D9D5111D1960002394
:10454000D55E002D03DA2D23049A6D421370624B61
:104550000A2703932FE020681968050603D5081D74
:1045600018600D6805E04006F9D50D68081D186053
:10457000ADB2594B082703936F2A18D00A2716E0CB
:1045800045310A70544A03921A682168101D186058
:104590001568080622D5CB0702D5202319432160D0
:1045A0001027002D03D1202322689A432260230084
:1045B000002243331A706368A360002B5CDB042283
:1045C000216891432160002D58D1049E002B64D0B6
:1045D0002600039B42361B7833705EE04806DAD52E
:1045E000ADB2D8E709681A68080605D5111D19602B
:1045F000136862691A6006E04906F7D5111D196053
:104600001368A28A1A800023049E236154E01A686A
:10461000111D1960166800216268300000F03EF933
:10462000002801D0801B6060636823610023049A26
:10463000137041E02369320006990598079DA84749
:10464000431C43D0236800259B070FD4099BE068D7
:1046500098423DDA18003BE0220001231932069906
:104660000598079EB047431C30D00135E368099A8E
:104670009B1A9D42F0DBE9E7002DA9D0049E28009B
:104680003900FFF71FF8039B013E5B5C2800337085
:104690003900FEF791FF051EF1D1082F09D12368DB
:1046A000DB0706D563682269934202DC3023013EB2
:1046B0003370049B9B1B2361079B09AA0093210075
:1046C000069B0598FFF782FE431CB3D101204042B0
:1046D0000BB0F0BD06520000F551000070B50600A9
:1046E0000D001400002804D08369002B01D1FFF7CE
:1046F00025FC124B9C4211D17468A368013BA36056
:10470000002B05DAA269934212DBEBB20A2B0FD021
:104710002368E8B25A1C22601D7070BD084B9C4291
:1047200001D1B468E9E7074B9C42E6D1F468E4E7BD
:10473000220029003000FFF73DFAEEE7A451000007
:10474000C45100008451000070B50C000E25495F73
:1047500000F0B0F8002803DB636D1B18636570BDC3
:10476000A389024A1340A381F9E7C046FFEFFFFF88
:10477000F8B51F008B8905000C001600DB0505D578
:104780000E23C95E0022022300F074F8A389054AB3
:1047900028001340A38132000E23E15E3B0000F0AD
:1047A0001FF8F8BDFFEFFFFF70B50C000E25495F45
:1047B00000F060F8A389421C03D1054A1340A3818D
:1047C00070BD802252011343A3816065F8E7C046A3
:1047D000FFEFFFFF10B50E23C95E00F015F810BD06
:1047E00070B50500080011000022064C22601A0076
:1047F000FBF778FE431C03D12368002B00D02B600D
:1048000070BDC04604060020002370B5064C0500AC
:1048100008002360FEF718FB431C03D12368002B1C
:1048200000D02B6070BDC04604060020002370B588
:10483000064C0500080011002360FEF708FB431C2E
:1048400003D12368002B00D02B6070BD040600202C
:10485000002370B5064C050008002360FEF7FCFA43
:10486000431C03D12368002B00D02B6070BDC046D1
:104870000406002070B50500080011000022064C57
:1048800022601A00FEF7EAFA431C03D12368002BCA
:1048900000D02B6070BDC04604060020C9B282184B
:1048A000904201D10020704703788B42FBD0013049
:1048B000F6E7000070B50500080011000022064C64
:1048C00022601A00FBF7ECFD431C03D12368002B88
:1048D00000D02B6070BDC0460406002000080042D6
:1048E000000C004200100042001400426E6D5F6236
:1048F00075735F696F63746C00000000284150504D
:104900002928455252295B25735D5B25645D0000B3
:10491000696E76616C696420696F636C7420636D85
:1049200064000000636869705F77616B6500000078
:10493000427573206572726F72202835292E2564A6
:1049400020256C780A0000004661696C656420745B
:104950006F2077616B6520757020746865206368CF
:10496000697000006E6D5F6472765F696E69745F76
:10497000646F776E6C6F61645F6D6F6465000000DB
:104980005B6E6D692073746172745D3A2066616953
:104990006C20696E69742062757300002841505064
:1049A0002928494E464F2900436869702049442010
:1049B000256C780A00000000101A0000101A000090
:1049C000401A0000C2190000E6190000F4190000A6
:1049D000261A0000261A00006E1A0000A619000010
:1049E000A81A0000A81A0000A81A0000A81A0000BF
:1049F000021A0000C3C9C4CA7370695F636D6400A2
:104A00007370695F646174615F72737000000000AD
:104A10007370695F636D645F727370007370695F58
:104A2000646174615F726561640000007370695F46
:104A3000646174615F777269746500007370695FA7
:104A400077726974655F7265670000006E6D5F73F1
:104A500070695F7772697465000000007370695F48
:104A6000726561645F726567000000006E6D5F7360
:104A700070695F72656164006E6D5F7370695F6914
:104A80006E6974000009121B242D363F48415A53A9
:104A90006C657E7719100B023D342F265158434A1E
:104AA000757C676E323B2029161F040D7A7368618E
:104AB0005E574C452B2239300F061D14636A7178FE
:104AC000474E555C646D767F4049525B2C253E37DE
:104AD00008011A137D746F6659504B42353C272EDE
:104AE0001118030A565F444D727B60691E170C054E
:104AF0003A3328214F465D546B627970070E151CBE
:104B0000232A31384148535A656C777E09001B12BD
:104B10002D243F3658514A437C756E671019020B9D
:104B2000343D262F737A6168575E454C3B3229200D
:104B30001F160D046A6378714E475C55222B30397D
:104B4000060F141D252C373E0108131A6D647F765D
:104B500049405B523C352E2718110A03747D666F5D
:104B60005059424B171E050C333A21285F564D44CD
:104B70007B7269600E071C152A233831464F545D3D
:104B8000626B70795B6E6D69207370695D3A204667
:104B900061696C656420696E7465726E616C207207
:104BA0006561642070726F746F636F6C20776974D5
:104BB0006820435243206F6E2C20726574727969AD
:104BC0006E67207769746820435243206F66662EB3
:104BD0002E2E00005B6E6D69207370695D3A204671
:104BE00061696C656420696E7465726E616C2072B7
:104BF0006561642070726F746F636F6C2E2E2E006F
:104C00005B6E6D69207370695D3A204661696C6501
:104C10006420696E7465726E616C20777269746568
:104C20002070726F746F636F6C207265672E2E2E0A
:104C3000000000005B6E6D69207370695D3A20466C
:104C400061696C20636D64207265616420636869CA
:104C5000702069642E2E2E005B6E6D692073706962
:104C60005D3A204661696C656420636D642C207236
:104C700065616420626C6F636B2028253038782969
:104C80002E2E2E0A000000005B6E6D692073706985
:104C90005D3A204661696C656420636D64207265CD
:104CA00073706F6E73652C207265616420626C6F27
:104CB000636B202825303878292E2E2E0A0000001C
:104CC0005B6E6D69207370695D3A204661696C6541
:104CD0006420626C6F636B20646174612072656133
:104CE000642E2E2E00000000526573657420616EE4
:104CF0006420726574727920256420256C782025E3
:104D0000640A00005B6E6D69207370695D3A20462D
:104D100061696C656420636D642C207772697465C9
:104D200020626C6F636B202825303878292E2E2E58
:104D30000A0000005B6E6D6920737069205D3A2087
:104D40004661696C656420636D6420726573706F81
:104D50006E73652C20777269746520626C6F636B6B
:104D6000202825303878292E2E2E0A005B6E6D699A
:104D7000207370695D3A204661696C6564206461E6
:104D8000746120626C6F636B20636D64207772695D
:104D900074652C20627573206572726F722E2E2ED0
:104DA000000000005B6E6D69207370695D3A2046FB
:104DB00061696C6564206461746120626C6F636B0F
:104DC0002077726974652C20627573206572726F2A
:104DD000722E2E2E000000005B6E6D6920737069CC
:104DE0005D3A204661696C6564206461746120628B
:104DF0006C6F636B206372632077726974652C201B
:104E0000627573206572726F722E2E2E0000000084
:104E10005B6E6D69207370695D3A204661696C65EF
:104E20006420627573206572726F722E2E2E0000E0
:104E30005B6E6D69207370695D3A204661696C65CF
:104E400064206461746120726573706F6E73652095
:104E5000726561642C2025782025782025780A0049
:104E60005B6E6D69207370695D3A204661696C659F
:104E70006420626C6F636B20646174612077726977
:104E800074652E2E2E0000005B6E6D6920737069B4
:104E90005D3A204661696C656420636D64207772B9
:104EA0006974652C20627573206572726F722E2E84
:104EB0002E0000005B6E6D69207370695D3A2046BC
:104EC00061696C656420636D6420726573706F6ED8
:104ED000736520726561642C20627573206572723F
:104EE0006F722E2E2E0000005B6E6D69207370694C
:104EF0005D3A204661696C6564206461746120726A
:104F00006573706F6E736520726561642C206275C5
:104F100073206572726F722E2E2E00005B6E6D69AB
:104F2000207370695D3A204661696C656420646134
:104F3000746120726573706F6E7365207265616451
:104F40002E2E2E2825303278290A00005B6E6D69DE
:104F5000207370695D3A204661696C656420646104
:104F6000746120626C6F636B20726561642C2062D7
:104F70007573206572726F722E2E2E005B6E6D69D6
:104F8000207370695D3A204661696C6564206461D4
:104F9000746120626C6F636B206372632072656161
:104FA000642C20627573206572726F722E2E2E0033
:104FB0005B6E6D69207370695D3A204661696C654E
:104FC0006420636D642C20726561642072656720C3
:104FD0002825303878292E2E2E0A00005B6E6D6948
:104FE000207370695D3A204661696C656420636D69
:104FF0006420726573706F6E73652C2072656164D6
:1050000020726567202825303878292E2E2E0A0038
:105010005B6E6D69207370695D3A204661696C65ED
:1050200064206461746120726561642E2E2E00001C
:10503000526573657420616E6420726574727920A4
:10504000256420256C780A005B6E6D692073706999
:105050005D3A204661696C656420636D642C20773D
:105060007269746520726567202825303878292E8A
:105070002E2E0A005B6E6D69207370695D3A2046C2
:1050800061696C656420636D6420726573706F6E16
:1050900073652C20777269746520726567202825F6
:1050A000303878292E2E2E0A0000000052657365D4
:1050B0007420616E642072657472792025642025E5
:1050C0006C7820256C780A00F2250000EE2500009F
:1050D000EE2500005426000054260000062600009D
:1050E000F82500000C26000042260000D82700000A
:1050F000B8270000B827000044280000CA27000095
:10510000E6270000BC270000F42700003428000038
:10511000C630000044310000CE310000EC31000008
:10512000AA3200000C330000643400003033000069
:105130005433000078330000183400008634000037
:10514000B2340000E03400004C3400000E350000A2
:105150004661696C656420746F2070757420746892
:10516000652057694669204368697020696E20642C
:105170006F776E6C6F6164206D6F6465210A00004B
:1051800010000020000000000000000000000000EF
:10519000000000000000000000000000000000000F
:1051A00000000000000000000000000000000000FF
:1051B00000000000000000000000000000000000EF
:1051C00000000000000000000000000000000000DF
:1051D00000000000000000000000000000000000CF
:1051E00000000000232D302B2000686C4C00656609
:1051F0006745464700303132333435363738394128
:10520000424344454600303132333435363738393D
:105210006162636465660000F8B5C046F8BC08BC0E
:105220009E467047DD000000F8B5C046F8BC08BCDB
:085230009E467047B500000026
:10523800401F0000080000000001010010000020CD
:1052480000000000A4510000C45100008451000077
:105258000000000000000000000000000000000046
:105268000000000000000000000000000000000036
:105278000000000000000000000000000000000026
:105288000000000000000000000000000000000016
:105298000000000000000000000000000000000006
:0400000300002D418B
:00000001FF
