:020000040000fa
:10000000f0ff032021560000275d00005b5f000029
:10001000eb6a00009f7700002779000000000000d5
:100020000000000000000000000000003b7a00001b
:100030004f690000000000003b7a00003b7a00009e
:100040003b7a00003b7a00003b7a00003b7a0000dc
:100050003b7a00003b7a00003b7a00003b7a0000cc
:100060003b7a00003b7a00003b7a00003b7a0000bc
:100070003b7a00003b7a00003b7a00003b7a0000ac
:100080003b7a00003b7a00003b7a00003b7a00009c
:100090003b7a00003b7a00003b7a00003b7a00008c
:1000a0003b7a00003b7a00003b7a00003b7a00007c
:1000b0003b7a00003b7a00003b7a00003b7a00006c
:1000c0003b7a00003b7a00003b7a00003b7a00005c
:1000d0003b7a00003b7a00003b7a00003b7a00004c
:1000e0003b7a00003b7a00000000000000000000a6
:1000f000000000003b7a000089650000896500006f
:1001000089650000896500003b7a00003b7a0000a9
:100110003b7a00003b7a0000e1650000e1650000e9
:10012000e1650000e1650000592000005920000051
:100130005920000059200000952b0000952b00004d
:10014000952b0000952b00003966000039660000f1
:1001500039660000396600003b7a00003b7a0000f7
:100160003b7a00003b7a00003b7a00003b7a0000bb
:100170003b7a00003b7a00003b7a00003b7a0000ab
:10018000c1810000d1810000e1810000f181000007
:100190003b7a00003b7a00003b7a00003b7a00008b
:1001a0003b7a00003b7a00003b7a00003b7a00007b
:1001b0003b7a00003b7a00003b7a00003b7a00006b
:1001c0003b7a00003b7a00003b7a00003b7a00005b
:1001d0003b7a00003b7a00003b7a00003b7a00004b
:1001e0003b7a00003b7a00003b7a00003b7a00003b
:1001f0003b7a00003b7a00003b7a00003b7a00002b
:100200003b7a00003b7a00003b7a00003b7a00001a
:100210003b7a00003b7a00003b7a00003b7a00000a
:100220003b7a00003b7a00003b7a00003b7a0000fa
:100230003b7a00003b7a00003b7a00003b7a0000ea
:100240003b7a00003b7a00003b7a00003b7a0000da
:100250003b7a00003b7a00003b7a00003b7a0000ca
:040260003b7a0000e5
:020000040000fa
:10026400f8b500bff8bc08bc9e4670472172000078
:10027400f8b500bff8bc08bc9e467047fd7100008d
:020000040000fa
:08028400f41800000100000065
:020000040000fa
:10028c002de9f04391b0002800f06f82044600295c
:10029c0000f06d820d4640220021684607f02cffcd
:1002ac002988204607f03afd002800f053823a21b5
:1002bc00204607f02bff074638b1021b40f6c3134c
:1002cc009a42a8bf1a46561c07d16b46032210212e
:1002dc00012007f0e3fa032443e2dff8e082324620
:1002ec002146404608f0acf8002308f80630414699
:1002fc00b0b207f01bfc98f80030613b132b64d8ac
:10030c00dfe803f05f0a635f5f63636363636363e8
:10031c006363636363635f5fa74b00221a702821da
:10032c00a64807f0f3fe064688b12921a34807f03a
:10033c00edfe034600284cd0701c1b1a9bb2082bf8
:10034c00c3d11022002107f0f5fe05f035f8013776
:10035c003a21384607f0dafe804600283cd0a8eb5c
:10036c0007035e1cb1d0dff854923246394648463a
:10037c0008f066f8002309f806302821484607f0f3
:10038c00c5fe814688b38d480146a9eb000007f0f5
:10039c00cdfb894b1b78002b40f09880874b1b784a
:1003ac00613b152b00f28e80dfe803f0888c8c7794
:1003bc008c73808c8c8c8c848c8c8c8c8c8c8c8c9e
:1003cc008c287d4b30221a70a9e77b4bff221a70c8
:1003dc007be706f10803afe70a21384607f096fee3
:1003ec00804600283ff471afb9e73a21734807f013
:1003fc008dfe814600283ff468afc4e76e4b0122a6
:10040c001a7009f101092921484607f07ffe0646ba
:10041c0000283ff45aaf6a4f40f6c4120021384608
:10042c0007f06afea6eb0902664b1a8092b24946a7
:10043c00384608f005f8604b1b78f02b4bd0614e1a
:10044c005f49308806f06efe30805b4b1b78312b99
:10045c0000f0358100f2c881042b00f0048140f2d9
:10046c009781062b00f01681c0f00781072b00f056
:10047c001b81082b40f0b681534b1b68db69002baa
:10048c0000f096814e4a1078003018bf0120984732
:10049c008ce1494b02221a70b3e7484b5b78692b0d
:1004ac00454b0cbf052203221a70aae7424b0422cb
:1004bc001a70a6e7404b06221a70a2e73e4b0722a1
:1004cc001a709ee73c4bff221a70fee6302b41d08f
:1004dc00f02b40f08b8008f101080a21404607f010
:1004ec0015fe00283ff4f1aeb0eb08063ff4edae7c
:1004fc00324f32464146384607f0a2ff0023bb5527
:10050c002821384607f002fe0646002800f031810b
:10051c003946c01b07f00afb3b78692b6ad0732b5a
:10052c0074d1254bf1221a7001362921304607f07f
:10053c00edfd00283ff4c9ae831bdbb2022b7ff428
:10054c00c4ae10220021304607f0f4fdc0b204f016
:10055c0033ff74e7194b1b78693b0e2b42d8dfe84d
:10056c0003f00c414141194141084139103d4141d1
:10057c003500114bf0221a70ade70f4b31221a7077
:10058c003fe70e4b5b78652b0b4b0cbf34223222b2
:10059c001a7036e7094b5b78722b05d0772b07d195
:1005ac00054b37221a702ce7034b38221a7028e7b8
:1005bc00014bff221a7088e6ab2e00208813002016
:1005cc00c4090020a02e0020782e0020984b332246
:1005dc001a7016e7964b35221a7012e7944b362296
:1005ec001a700ee7924bff221a706ee6ff2b3ff447
:1005fc006cae06e73a218f4807f088fd034628b118
:10060c005a78732a06d08c4b02221a70884bff2220
:10061c001a7014e79a78702a07d0772af6d11b79ca
:10062c003bb1854b04221a70f0e7834b01221a7000
:10063c00ece7814b03221a70e8e7804b1b685b6880
:10064c00002b00f0b5807e497e489847aee07b4b8e
:10065c001b689b68002b00f0ab80794a79497a487b
:10066c0000689847a2e0754b1b68db68002b00f014
:10067c009f8073497348984798e0704b1b681b69bf
:10068c00002b00f095806f4a1078003018bf0120c5
:10069c0098478be0694b1b685b69002b00f08880e6
:1006ac0067496848984781e0644b1b689b69002b3d
:1006bc007ed0634a634964480068984776e05f4b94
:1006cc001b681b6a002b73d05f4a106898476de05b
:1006dc005a4b1b689b6a002b6ad0594a59495a4895
:1006ec000068984762e0554b1b68db6a002b5fd0b3
:1006fc00534a544954480068984757e04f4b1b687d
:10070c001b6b002b54d04e4a4e494f4800689847fb
:10071c004ce04a4b1b685b6b002b49d0484a49495b
:10072c0049480068984741e0444b1b689b6b002b81
:10073c003ed0434a434944480068984736e03f4b13
:10074c001b68db6b002b33d03d4a3e493e480068aa
:10075c0098472be06b4603221021012007f09ef8ee
:10076c000324204611b0bde8f083e224f9e7e2242b
:10077c00f7e73a212f4807f0c9fc00283ff4a5ad54
:10078c002c4b1b78692b61d0732b3ff4caae3de721
:10079c00022b3ff452af3ff65aaf012b20d1274b1f
:1007ac001b681b6823b1264926489847042808d1a2
:1007bc000021234b198040f6c412224807f09cfc00
:1007cc0004201b4b1b78013b022b1bd82a462146cd
:1007dc0004f020f90446002cc3d107f0adfac0e7b1
:1007ec000020eee70020ece7352b3ff47caf0fd96f
:1007fc00372b99d08dd3382ba1d0f12b16d10020cb
:10080c000f4b18802a46214604f004f90446e2e70f
:10081c00332b3ff45daf3ff671af084b1b685b6a3f
:10082c00002bc5d0084a10689847bfe70020c8e7de
:10083c00ab2e002088130020aa2e0020782e00203a
:10084c00a02e0020c40900207c2e00203a21024852
:0c085c0007f05cfc0346d3e68813002084
:020000040000fa
:100868004378002b00f0b082836b002b00f0ac8241
:100878002de9f04182b0446aa38b13f4007f06d0bf
:10088800238b13f4007f1cbf4ff40073a383a38b47
:1008980013f4807f06d0238b13f4807f1cbf4ff4a2
:1008a8008073a383a38b13f0800f05d0238b13f0e1
:1008b800800f1cbf8023a383a38b13f0400f05d0a8
:1008c800238b13f0400f1cbf4023a383a38b13f08b
:1008d800200f05d0238b13f0200f1cbf2023a383e8
:1008e8000546a38b13f0010f0ed0238b13f0010fd5
:1008f8000ad00123a383a3821023a3832383836bba
:1009080000220421406b9847a38b13f0100f0ed0e0
:10091800238b13f0100f0ad01023a383a382012383
:10092800a3832383ab6b00220321686b9847a38bb7
:1009380013f0040f0ad0238b13f0040f06d00423fe
:10094800a383ab6b00220721686b9847a38b13f036
:10095800080f03d0238b13f0080f31d194f8073117
:1009680013f0100f55d094f8093113f0100f50d030
:100978006b6cda7922f00202da71da7b22f0020279
:10098800da73186800283ed0e96c02680e68496876
:1009980016605160102284f80721402284f804214f
:1009a8000268d18831bb072285f821200222027211
:1009b8000822426082691a60c36853b3984728e0e6
:1009c800002185f82110237bc3f38103af4ad35c50
:1009d80085f83030402205f14c0007f08ffbab6bf7
:1009e8001bb100220221686b98478023a372082359
:1009f800a383b3e792f90020002ab4bf062202229b
:100a080085f82120d2e7012385f82130102384f8c6
:100a1800083194f8073113f0020f32d094f80931f5
:100a280013f0020f2dd06b6c9e6856b395f82120f9
:100a3800082a18d0316a00296ad1327c12f0800f56
:100a480056d1052285f8212000223272b2699a60b7
:100a5800f3680bb130469847022384f807314023e6
:100a680084f804310de0002285f821203272b16942
:100a780099607260f3680bb130469847022384f896
:100a8800073194f8073113f0010f00f09c8094f8b7
:100a9800093113f0010f00f09680d5f8448095f8dd
:100aa8002130052b55d0d8f80060002e6dd02f6d61
:100ab800c7f30d07336a7268f918914284bfd71ad1
:100ac800bfb2e96c30683a46184407f061f9336af6
:100ad8003b443362726893425ed2b8f80410b9425c
:100ae8005ad8402384f80431012384f807316ae096
:100af80002f07f0232742b6e23f47f5323f03f03fe
:100b08002b66022384f80731802384f80531b8e77f
:100b18009f89b94298bf8fb2e86d7368591a3368d4
:100b28003a46194407f034f9336adb1b33622b6efb
:100b380023f47f5323f03f032b662b6ec7f30d0777
:100b48001f432f66022384f80731802384f8053178
:100b580097e7d8f8000088b10023037285f82130a0
:100b6800012284f80721402284f804218269c8f808
:100b780000204360c36833b3984724e0042385f812
:100b88002130012384f808311de0032385f8213042
:100b9800012384f8083116e093422cbf0023012377
:100ba8003372072385f82130012384f80731402365
:100bb80084f80431b369c8f80030336a7360f368a5
:100bc8000bb130469847238c13f0020f00f09c803d
:100bd80094f82931dbb2019394f82731dbb2009302
:100be800009b13f0080f11d0019b13f0080f0dd0d4
:100bf80095f8863013f0020f08d095f8863003f088
:100c0800fd0385f88630082384f82731009b13f00c
:100c1800020f79d0019b13f0020f75d0ae6cb0684b
:100c2800002871d0026a002a4ad1037c13f0800f91
:100c38002ed1002303728369b360c36803b1984758
:100c4800b268002a36d0106ab389984298bf83b236
:100c58005168081a11680144e967116ac91a1162d2
:100c6800d5f8802022f47f5222f03f02c5f8802078
:100c7800d5f88020c3f30d031343c5f880300a2349
:100c880084f82731802384f825313de0d0850000a1
:100c980003f07f030374d5f8803023f47f5323f0e7
:100ca8003f03c5f880300a2384f82731802384f86d
:100cb800253129e00a2384f8283184f8273123e0f4
:100cc800b3899a4298bf93b241688a1a016811445d
:100cd800e967026ad21a0262d5f8802022f47f52ac
:100ce80022f03f02c5f88020d5f88020c3f30d0319
:100cf8001343c5f880300a2384f82731022384f887
:100d08002931802384f82531238c13f0020f4fd02a
:100d180094f82931dbb2019394f82731dbb20093c0
:100d2800009b13f0040f0dd095f8763013f0020fe6
:100d380005d095f8763003f0fd0385f87630042366
:100d480084f82731009b13f0010f31d0019b13f079
:100d5800010f2dd0ae6c306850b32a6fc2f30d026c
:100d6800036a1344036241688b420cd2b1889142f2
:100d780021d802681344eb66052384f82731402301
:100d880084f8243114e00023037283693360036a12
:100d98004360c36803b1984733687bb11b68eb664f
:100da800052384f8273184f82931402384f8243135
:100db80002b0bde8f08101230372e6e7052384f859
:0c0dc800283184f82731f3e7704700bfa2
:020000040000fa
:100dd4002de9f04f242985b006460f46144601d864
:100de400012903d1b64b16221a6050e0f36bf26c62
:100df400934220d25a1cf26318782028f6d0a0f12e
:100e04000903042bf2d92b2801d02d281bd1f36b15
:100e1400f26c2d284ff0ff3a18bf4ff0000a9342ae
:100e24000dd25a1cf2631878f26c7fb1102f4ed198
:100e340030280dd04be0304605f030fddde730467c
:100e440005f02cfdf0e74ff0000aede730283dd126
:100e5400f36b934222d25a1cf263187840f02003b9
:100e6400782b2ad1f36bf26c93421bd25a1cf26397
:100e74001878944b03445b780f2b40f2c180f36cd9
:100e8400002b00f09581f36b84b1023bf3630024e3
:100e940000252046294605b0bde8f08f304605f010
:100ea400fdfcdbe7304605f0f9fce2e7013bf363c8
:100eb4000021304607f07ef8e9e7002f00f0eb80d0
:100ec4000a2f40f09e8000247f4d1ae00a277d4bb4
:100ed40003445b78bb42f3d312b1f36b013bf3637e
:100ee4000021304607f066f87ce70a2303fb04047c
:100ef400f26bf36c9a42a4f130046bd2531cf3638b
:100f04001078a0f13003092b01d8ac42edd90025ab
:100f1400a0f1300109293dd86c4b4ff09932ab4216
:100f240008bfa24217d34fea850ca3001b194cea51
:100f3400947245eb020213eb03086fea010300937a
:100f44004ff0ff33019342eb0209dde900234b45e7
:100f540008bf424542d25b4b184498464278ba4295
:100f640018d2f36bf26c934280f00a815a1cf2633c
:100f7400187840444378bb42f3d3514b0e99222254
:100f84001a60dde90e45002301f00102134318bf86
:100f94004ff0000af36c13b1f36b013bf363dde92b
:100fa4000e239d4208bf9442c0f0fa800e9900239c
:100fb40001f00102134340f0e780baf1000f40f062
:100fc400e3803f4b22221a600f9b11f1ff3443f15f
:100fd400ff355ee7304605f061fc92e718eb01044b
:100fe4004ff0000349eb0305f26bf36c9a4203d212
:100ff400531cf36310788be7304605f04ffc87e70a
:1010040010277c1e3c402f4d40f0b48017237b43b7
:10101400c3f342132b4493f801b12b185b789f421e
:1010240002d9b4f1006f38d34ff0ff33cbf1200174
:10103400abf1200223fa0bf803fa01f148ea0108a4
:1010440023fa02f2002548ea020823fa0bf91d4ba1
:10105400034459788f427ff67eafa94508bfa04567
:10106400fff479afabf1200004fa00f005fa0bf2bb
:10107400cbf12003024324fa03f342ea0305f26ba3
:10108400f36c04fa0bf09a4241ea000414d2531ca4
:10109400f3631078dbe70827b3e704fa0bf41c4387
:1010a400f26bf36c9a4203d2531cf3631078b4e7e7
:1010b400304605f0f3fbb0e7304605f0effbc6e73a
:1010c400942e0020c8390000989999199999991972
:1010d40004fb0734f26bf36c9a4247d2531cf3635c
:1010e40010782b185b789f4202d9334a9442efd987
:1010f4000025324b034459788f427ff62caf4ff0d2
:1011040000084ff0000965b1a4fb07234ff0000c61
:101114001a466346e5fb07231bb14ff001084ff065
:10112400000958ea09037ff416af5ffa81f86fea01
:10113400080102914ff0ff310391dde902bca7fbe6
:10114400042307fb05339c4508bf93454ff0000972
:10115400fff401af12eb080443eb0905f26bf36ce7
:101164009a4209d2531cf3631078c2e7304605f063
:1011740095fbb6e70024b4e7304605f08ffbb8e7eb
:10118400304605f08bfbf4e6dde90e23ab4208bfe5
:10119400a24205d20a4b22221a60dde90e4578e606
:1011a400baf1ff3f7ff475ae644265eb450570e626
:1011b400002c7ff46cae7be6c6711c07c8390000b6
:0411c400942e002045
:020000040000fa
:1011c800431e13f1030f00f294812de9f04f85b00f
:1011d80001f00f0a4fb292f90830022b00f38c810c
:1011e80011f00e0f40f08b81d0f824b000eb8a0389
:1011f800d3f844903e1106f0080676b209eb0608cb
:1012080098f8073013f0010f00f07c81154604466a
:101218005268b8f80410b2fbf1f301fb132373b161
:10122800002f80f27281e378002b40f07381a37b5a
:10123800012b1cd06ff07e0005b0bde8f08f002fa9
:101248000bdbc278002af2d00022aa61032129729e
:10125800039202920192009265e12b7c13f0010f38
:10126800e1d0002adfd063f07f032b74dbe74ff077
:101278000003a373a07a05f0adfe0090e07a05f0b4
:10128800a9fe0190207b05f0a5fe0290607b05f089
:10129800a1fe03900023ab6103232b72002fa8bf8c
:1012a800002380f240813de193f90030002bb4bf68
:1012b8000623022384f8213067e1276dc7f30d0761
:1012c8002b6a6a68f918914284bfd21a97b2e16c06
:1012d80028683a46184406f05bfd2b6a3b442b62ab
:1012e8006a68934218d300232b72082384f82130ac
:1012f80001238bf807318bf8093140238bf804312f
:101308002b6a6b60ab6949f80630eb68002b00f07c
:10131800b98028469847b5e0b8f80430bb4217d9d9
:1013280001232b72082284f821208bf807318bf8cf
:10133800093140238bf804312b6a6b60ab6949f89b
:101348000630eb68002b00f09d802846984799e00e
:1013580001238bf807318bf8093140238bf80431ce
:1013680090e0002384f821302b7201238bf8073199
:101378008bf8093140238bf80431ab6949f8063002
:10138800eb68002b7ed0284698477be094f8213004
:10139800062b13d0072b75d1082384f82130236e30
:1013a80023f47f5323f03f03236602238bf807318e
:1013b8008bf8093180238bf8053163e02b6ab8f884
:1013c8000460b34238bf9eb2e06d3246296806f029
:1013d800dffc2b6a9b1b2b62092384f82130236ec8
:1013e80023f47f5323f03f032366226ec6f30d03d5
:1013f8001343236602238bf807318bf809318023c6
:101408008bf805313ee0002f0fdb29684fea4a13bd
:10141800e218d1640beb4a1a05228af807218af8e8
:10142800092140238af804312ce0296ab8f80430ed
:10143800994298bf8bb26a68511a2a6811444fead8
:101448004a102218d165296ac91a2962116e21f435
:101458007f5121f03f011166116ec3f30d030b4359
:1014680013660beb4a1a0a238af807318af80931fe
:1014780080238af8053105e01a469369002bfbd1d1
:101488009561ea61e378002b42d1009b4bb1a37ac6
:10149800590903f01f03012202fa03f3414a42f8f3
:1014a8002130019b4bb1e37a590903f01f03012254
:1014b80002fa03f33b4a42f82130029b4bb1237beb
:1014c800590903f01f03012202fa03f3354a42f8cf
:1014d8002130039b4bb1637b590903f01f030122a1
:1014e80002fa03f32f4a42f821300123a3730020a4
:1014f800a2e66ff07c0070476ff07a009ce66ff010
:101508007b0099e66ff0750096e66ff07c0093e635
:10151800002091e60023ab6103222a720393029311
:10152800019300936b682b6259f80620002aa4d116
:1015380004232b720023eb6149f80650baf1000f1f
:101548007ff461af9f42fff621af94f82130032b5f
:101558003ff4b3ae042b3ff404af012b92d1e26cfd
:101568002b681168526819605a6040238bf804315f
:1015780010238bf807318bf809312b689a79002ae8
:101588007ff492ae072384f82130ab6949f806301e
:1015980002232b72eb68002b3ff474af2846984760
:0815a80070e700bf00e100e064
:020000040000fa
:1015b0002de9f041aeb00646154605910027059984
:1015c0000b78002b00f0fa8000244ff0ff33cde9b8
:1015d00009430eab0c9380230b940d930b5d0bb161
:1015e000252b26d134b12246304606f0c5f9059b9d
:1015f00023440593059b1a78252a40f0d78003f1f0
:101600000108cdf81480059803782b2b1ad025d823
:10161000202b1bd0232b1dd02a2b27d005f0bbfc61
:101620000b90059b1a78303a092a2ed8013305937e
:10163000f7e70134d2e7099b43f001030130099336
:101640000590e0e7099b43f00403f7e7099b43f0ab
:101650000803f3e7099b43f01003efe72d2bead0d3
:10166000302bd9d1099b43f00203e7e72b681a1d01
:101670001b682a600130002b05900b9305da099a4c
:101680005b4282f0010209920b93099bda0744bf87
:1016900023f002030993059b1a782e2a0dd100220c
:1016a000581c0a9205905a782a2a25d102330593ac
:1016b0002b681a1d1b682a600a9305a805f098fe7e
:1016c000059b0390187806f011fe6928039979d0dc
:1016d00032dc632800f0cb8019dc252800f0d980ab
:1016e000612853d000234ff0ff32cdf814800993c6
:1016f0000b930a920093d4e005f04dfc0a90059bf1
:101700001a78303a092ad8d801330593f7e76428c4
:1017100058d06728e6dc2a4606a806f0dbf8002841
:1017200000f0a180059b5a1c05921b7806aa09a906
:10173000304606f075ff38e0702873d015dc6e284f
:1017400000f08c806f28cdd12b46002206a803f034
:1017500093fc002800f08780059b06aa013309a9a5
:101760003046059306f05aff1fe075283ad07828d6
:1017700048d07328b6d1802975d1059b2a680133da
:101780000593131d2b60126800237de02a4606a8ee
:1017900006f0a0f8002866d0059b5a1c05921b781d
:1017a00006aa09a9304606f03bff04443c44a74280
:1017b0007add3e4b4f221a604ff0ff3738462eb08d
:1017c000bde8f0812b46012206a803f055fc002855
:1017d00049d0059b06aa013309a93046059306f0b6
:1017e0001dffe2e72b46002206a803f045fc002877
:1017f00039d0059b06aa013309a93046059306f0a6
:101800000dffd2e72b46002206a803f035fc50b3ab
:10181000059b5a1c05921b7806aa09a9304601f0bf
:101820008dfdc2e72b460022f02106a803f024fc20
:10183000c8b1059b01330593dde9062313430bd1a2
:101840001b4806f095fb099b009319490b9b024628
:10185000304604f033f8a8e77823dde72b463a1941
:1018600006a804f0a9f9059b013305939ee780299a
:10187000f9d1059b013305932b681a1d1b682a605b
:101880008df8183006aa012309a9304604f0dcffc0
:101890008be78029e7d1059b01330593099b0093d2
:1018a0000b9b04490122d3e7274688e6942e0020ab
:0818b000b4850000ba850000b8
:020000040000fa
:1018b800482e00201c000000000000004c250020dd
:1018c8001001000000000000542b002080000000e0
:1018d80000000000282e002020000000000000006a
:1018e800ac2e002050000000010000003d7a0000ee
:1018f800558100000182000011820000d1820000a1
:1019080079810000617a0000dd3f0000212a000093
:1019180015220000092d00009d2800008176000096
:10192800c9790000c9110000d53a0000bd3800008f
:1019380067810000db3f000000000000602d0020f0
:101948002c00000000000000a22e00200100000072
:10195800000000008c2d00202c000000000000007a
:10196800482900200001000000000000d42b0020be
:1019780040000000000000004c1d0020000800008e
:1019880000000000142c00204000000000000000af
:101998005c2600200002000000000000542c0020fb
:1019a8004000000000000000a32e002001000000fd
:1019b800000000009c2e0020020000000000000033
:1019c800b82d002028000000000000005c2800203e
:1019d800ec00000000000000642e00200800000059
:1019e80000000000742e0020040000000000000029
:1019f800a42e00200100000000000000102f00208d
:101a080010000000010000000000000002000000bb
:101a1800070000000000000000000020c4090000ca
:101a2800000000009e2e00200200000000000000c0
:101a3800a52e00200400000000000000942c0020c7
:101a48004000000000000000782e00200400000084
:101a580000000000c4090020c409000000000000c4
:101a6800a02e0020020000000000000088130020c3
:101a7800c4090000000000007c2e002004000000c3
:101a880000000000a92e0020020000000000000055
:101a9800ab2e00200100000001000000ff00000044
:101aa800fc2e00201400000001000000147b000040
:101ab800207b0000287b0000307b0000307b00008a
:101ac800082b00204c00000000000000482a0020dd
:101ad8007000000000000000e02d0020240000003d
:101ae800000000006c2e002008000000000000002c
:101af800802e00200c00000000000000042e0020b2
:101b08002400000000000000e02c002080000000fd
:101b1800000000008c2e00200800000000000000db
:101b2800202f002004000000010000000100000038
:101b3800942e00200400000000000000b82a0020b5
:101b48005000000000000000982e00200400000053
:101b580000000000d42c00200c0000000000000051
:101b6800000000000000000066666666666666663d
:020000040000fa
:101b78002de9f04f099f154604468e461e46002b58
:101b880040f0cc808a42b2fa82fc4cd9bcf1000ffa
:101b98000bd0ccf1200801fa0cfe20fa08f802fa62
:101ba8000cf548ea0e0e00fa0cf44fea15491ffa34
:101bb80085f8befbf9fa210c09fb1ae30afb08fbbe
:101bc80041ea03439b452ad9eb180af1ff3004d2b6
:101bd8009b4502d9aaf102002b44a3eb0b03a4b244
:101be800b3fbf9f209fb123302fb08f844ea034499
:101bf800a04516d92c1902f1ff3303d2a04501d90b
:101c0800931e2c44a4eb080443ea004027b124faad
:101c18000cf400233c607b603146bde8f08f5046f1
:101c2800dbe71346eee702b9ffdebcf1000f2ed169
:101c38008b1a01264fea154eaab2b3fbfef8210c07
:101c48000efb183308fb02f941ea0343994561d9b1
:101c5800eb1808f1ff3004d2994502d9a8f1020027
:101c68002b44a3eb0903a4b2b3fbfef10efb113323
:101c78004a4344ea0344a2424ed92c1901f1ff33e6
:101c880003d2a24201d98b1e2c44a41abce7ccf182
:101c9800200e02fa0cf521fa0ef901fa0cf320fadb
:101ca8000efe4eea03034fea154800fa0cf4b9fb9e
:101cb800f8f11ffa85fe08fb1192180c01fb0ef6cd
:101cc80040ea0242964221d9aa1801f1ff3003d214
:101cd800964201d9881e2a44921b9bb2b2fbf8f99e
:101ce80008fb192209fb0efe43ea02439e450fd961
:101cf800eb1809f1ff3604d29e4502d9a9f1020674
:101d08002b44a3eb0e0346ea004693e70846e3e7b5
:101d18004e46f6e74046a4e70b46b6e78b4206d99f
:101d2800002f7ed00026c7e90001304674e7b3fad9
:101d380083fcbcf1000f0fd18b4201d3824209d83a
:101d4800841a61eb030e0120002f6dd0c7e9004e05
:101d5800002661e76046f7e7ccf1200e03fa0cf3a2
:101d680022fa0ef521fa0ef41d4301fa0cf320fabb
:101d78000ef10b434fea154a00fa0cf6b4fbfaf9d8
:101d88001ffa85f80afb19401c0c09fb08f144ea04
:101d98000044a14202fa0cf23fd92c1909f1ff3094
:101da80004d2a14202d9a9f102002c44641a9bb2c0
:101db800b4fbfaf90afb194409fb08f843ea0441a1
:101dc80088452cd9691809f1ff3304d2884502d90e
:101dd800a9f10203294443ea0040a1eb0801a0fb52
:101de80002894945c2464c4602d306d1464504d22b
:101df800b8eb020a69eb05040138afb1b6eb0a0388
:101e080061eb040606fa0efe23fa0cf34eea03030e
:101e180026fa0cf6c7e900369ae74846c6e74b4665
:0c1e2800d9e73e463846f7e63e46f5e6b0
:020000040000fa
:101e340030b585b00e2916d000eb8003834a02eb3f
:101e4400c3031b7d6bb900eb800302ebc303dd68a6
:101e54003db100eb80027d4b03ebc2031b69002202
:101e6400a84705b030bd044600eb8003774901eb79
:101e7400c30300211975137803f07f03012b18d0d5
:101e8400212b40f0d88000eb8003704901ebc303a1
:101e9400dd68002d00f0cf805378013b0a2b00f25f
:101ea400c080dfe803f05c7280bebebebebe8aaef8
:101eb400a00053780a2b47d00b2b38d0062b09d01f
:101ec40000eb8004614b03ebc4040121606805f05e
:101ed400a5f8c6e7d378212b09d0222b17d004eb21
:101ee40084045a4b03ebc40401232375b9e700ebc4
:101ef4008003564901ebc3039868d18802688a427b
:101f040028bf0a46596a586805f020f8e7e700eb4d
:101f140080034e4901ebc3039968d0880a68824262
:101f240028bf02464968586805f010f8d7e7927848
:101f3400474b1a7000eb8004444b03ebc4040021ac
:101f4400606805f06bf88ce700eb80043f4b03eb13
:101f5400c40401223e49606804f0f8ff81e7d378a5
:101f64008df8083093788df809309379d27943ea63
:101f74000223adf80a3000eb8002344b03ebc203ba
:101f84001b6902aa0021a8476be793788df80f30ec
:101f940000eb80022d4b03ebc2031b690df10f0212
:101fa4000121a8475de700eb8002284b03ebc20345
:101fb4001b6900220221a84753e7d3788df8043027
:101fc40093788df805309379d27943ea0223adf8fa
:101fd400063000eb80021d4b03ebc2031b6901aa10
:101fe4000321a8473de753888df80e3000eb8002ab
:101ff400164b03ebc2031b690df10e020521a84722
:102004002fe7d3788df80c3093788df80d3000ebf2
:1020140080020e4b03ebc2031b6903aa0421a847e9
:102024001fe700eb8004094b03ebc403012158684c
:1020340004f0f4ff15e704eb8404044b03ebc4043d
:102044000121606804f0eaff0be700bfb82d00200f
:04205400a32e002097
:020000040000fa
:102058006c4b9b7d002b00f0d38010b56a4b9c6abb
:10206800684b5b8b13f0020f16d0674bff2283f887
:102078002020022283f82120634b93f820305bb2a2
:10208800b3f1ff3f00f08a805f4b93f820305bb2da
:10209800062b00f09c8010bd5a4b5b8b13f0010f90
:1020a80007d0594bff2283f82020022283f82120f1
:1020b800e2e7544b5b8b13f0040f07d0524bff221f
:1020c80083f82020012283f82120d5e74e4b93f88e
:1020d80020305bb2032b42d0042b10d0022bcbd183
:1020e800494b1b692bb1484b9888002104f022fd0d
:1020f800c2e7454b9888012104f01cfdbce7424a21
:10210800936912699a420bd03f4a9268d15c3d4a62
:102118009162591cd369002bfcd13b4b9961abe709
:10212800394b5b6973b1384b9b885b0043f0010303
:10213800344a5362d369002bfcd1334b032283f812
:10214800202099e72f4a536843f440335360d369fa
:10215800002bfcd12c4b062283f820208ce72a4b3d
:10216800d9695b69013b8b420bd0264ad369002ba6
:10217800fcd1244b986a244bda6850540131d96158
:102188007ae7204a536843f4e0235360d369002b6d
:10219800fcd11d4b062283f82020e6e71a4b0022cb
:1021a80083f82020174a536843f440335360d369b7
:1021b800002bfcd1134b83221a76134b5b6a002b3e
:1021c8003ff469af104b5b6a2046984763e70e4bb4
:1021d800002283f8202083f821200a4b83221a76d4
:1021e8001a46538b03f03003102bfad1064b5b6a67
:1021f800002b3ff450af044b5b6a204698474ae7f0
:0c220800704700bf00400141602d002025
:020000040000fa
:1022140011f00e0f02d0102940f0ac80b0f1ff3f56
:1022240000f0ab802de9f8430d460446466ac378b6
:10223400002b40f0a780837b012b03d06ff07e003e
:10224400bde8f88300238373807a04f0c5fe074653
:10225400e07a04f0c1fe8046207b04f0bdfe814696
:10226400607b04f0b9fe91e0102386f8083186f80b
:102274000731002586f800517f2386f8083186f857
:102284000731626cd17921f00101d171d17b21f048
:102294000101d17386f8205186f8283186f8273158
:1022a400a36cda7922f00102da71da7b22f00102fe
:1022b400da73e378002b63d14fb1a37a590903f0a1
:1022c4001f03012202fa03f33c4a42f82130b8f119
:1022d400000f09d0e37a590903f01f03012202fa1f
:1022e40003f3364a42f82130b9f1000f09d0237bb9
:1022f400590903f01f03012202fa03f32f4a42f89b
:10230400213048b1637b590903f01f03012202fa0b
:1023140003f32a4a42f821300123a37300208fe7f4
:1023240069b2002918db06eb431696f8002102f087
:10233400f80286f80021052286f8072186f808218c
:1023440004eb83035b6c091101f008011944cb7998
:1023540023f00103cb71ace706eb431696f800219a
:1023640002f08f0286f800210a2286f8072186f8f7
:102374000821e5e76ff07b0070476ff07c00704741
:1023840000205de70020814680460746102d3ff47b
:102394006baf15f00f03c3d17f2386f8083186f89d
:1023a4000731002386f80031636cda7922f00102e8
:1023b400da71da7b22f00102da737ae700e100e0f5
:020000040000fa
:1023c400624b42f206629a611a46136913f0020fd5
:1023d400fbd05f4b00221a7403f500635d4a5a6216
:1023e4001a46536813f0080ffbd15b4b4122c3f824
:1023f40084201a46d2f8843013f0400ffad0534b9d
:102404004ff400629a6377225a631a46d36b13f02f
:10241400040ffbd14d4b022283f830201a46d36bb4
:1024240013f0020ffbd1494a136c03f00303032b8f
:10243400fad1494b4122c3f888201a46d2f8843095
:1024440013f0400ffad0414b4ff40062da645f227c
:102454009a641a46136d13f0040ffbd13b4b02220e
:1024640083f844201a46136d13f0020ffbd1374a48
:10247400536d03f00303032bfad1384b02225a7134
:102484001a46d37813f0010ffbd0334b344a1a6247
:102494001a46536813f0040ffbd12f4b314a9a624a
:1024a4001a46536813f0100ffbd12b4b2c4ada62f7
:1024b4001a46536813f0200ffbd1274b4222c3f86e
:1024c4009c201a46d2f89c3013f0400ffad0224bcd
:1024d4004222c3f8a8201a46d2f8a83013f0400fbd
:1024e400fad01d4b4222c3f8dc201a46d2f8dc3065
:1024f40013f0400ffad0184b4222c3f8e0201a46da
:10250400d2f8e03013f0400ffad0134b4322c3f853
:1025140008211a46d2f8083113f0400ffad00e4bb6
:102524004222c3f80c211a46d2f80c3113f0400fa2
:10253400fad00a4b6ff07f421a6141f2ff725a617e
:10254400094a9a6103221a62704700bf00100040d2
:102554000014004001010c00001c00400008004071
:0c25640007010100080102005786010079
:020000040000fa
:102570002de9f04f83b00190002a00f0b9800029c6
:1025800000f0b98000920d469df8043043f001033d
:1025900001935d4b4ff48072c3f89820962005f0ac
:1025a00075fd0227584c89e072b608264ff00108e5
:1025b0004ff48079c4f89490404605f067fdc4f864
:1025c0009890404605f062fdc4f88490d4f8a0309d
:1025d000c4f88890c3f300232a7843ea42032b709f
:1025e0000a2005f053fd013ee2d1c4f89490062084
:1025f00005f04cfdc4f89890032005f047fd62b645
:1026000095f80090b9f1030f78d9b9f1ff0f6cd0ac
:1026100009f1ff391ffa89f972b65f463a4c0ee0ac
:10262000c4f89460062005f031fdc4f898600320da
:1026300005f02cfd0137ffb2bbb2994529d94ff007
:10264000080a07f10108a8444ff48076c4f89460a2
:10265000012005f01bfdc4f89860012005f016fd6f
:10266000c4f88460d4f8a030c4f88860c3f30023b1
:1026700098f8002043ea420388f800300a2005f069
:1026800005fdbaf1010adfd109f1ff339f42d1da2a
:10269000c6e762b61c4c4ff48076c4f89460012003
:1026a00005f0f4fcc4f89860082005f0effc2b78e6
:1026b000009a13800de0f0280bd1013f012101a801
:1026c00002f024fb834600283ff46eaf7b1c002bf6
:1026d000f1dc0d4b4ff48072c3f89820962005f082
:1026e000d5fc584603b0bde8f08f4ff0ed0bf0e796
:1026f0004ff0e20bf5e74ff0e20bf2e77b1c002b0b
:0c270000dbdc4ff0f00be4e70080004150
:020000040000fa
:10270c0030b4624c247f002c40f0b980054604f0b4
:10271c00ff00002953d0002d51d04ff0864464683f
:10272c0004f00704012c68d058480560426000246e
:10273c0044618461046155488160002a63d0534a26
:10274c00d360524a012111774ff08642127e12f06b
:10275c00040f06d04ff08642916a117e11f0040fdf
:10276c00fad14ff08642518b41f004015183117e16
:10277c0041f08001117645498a68c968914203d9b4
:10278c004248c168891a01614ff08641496811f0cd
:10279c00070f49d13d498969914238d23b4a1168aa
:1027ac0008784ff086418862916901319161002b64
:1027bc0060d04ff0864304229a75012060e0002b14
:1027cc005ed0002a5cd04ff08644646804f00704a5
:1027dc00012c0cd02d4805604260002444618461ba
:1027ec000461002da7d1294900208860a5e70029a4
:1027fc0048d113f0010fedd042e011f0010f3fd1a1
:10280c00002be7d0f5e7214a0021d16099e71f4a58
:10281c001269002acbd04ff08642ff2191621b49ee
:10282c000a69013a0a61c2e7184a9168490891603d
:10283c00116949081161d1684908d16091689269a0
:10284c008a4209d2114a116808884ff08641886281
:10285c00916901319161aae70c4a1269002aa6d04c
:10286c004ff086424ff6ff71916208490a69013aae
:10287c000a619ce701204ff08643987500e0002028
:10288c0030bc704711f0010fb3d0f9e78c2d00204c
:020000040000fa
:10289c0011f00e0f40f08d802de9f04f83b001f058
:1028ac000f05b0f1ff3f00f087808b460446466a67
:1028bc0000eb85035f6cc378002b40f08280837b38
:1028cc00012b04d06ff07e0003b0bde8f08f002325
:1028dc008373807a04f07cfb0190e07a04f078fb3f
:1028ec008146207b04f074fb8246607b04f070fb15
:1028fc0080466ce0f72386f804317f2386f8073195
:10290c00fb7923f00203fb716ff00301384604f0ee
:10291c00f0fffb7b23f00203fb736ff0030107f165
:10292c00080004f0e6ffe378002b48d1019b4bb183
:10293c00a37a590903f01f03012202fa03f3344a64
:10294c0042f82130b9f1000f09d0e37a590903f0ac
:10295c001f03012202fa03f32d4a42f82130baf187
:10296c00000f09d0237b590903f01f03012202fa3f
:10297c0003f3274a42f82130b8f1000f09d0637bea
:10298c00590903f01f03012202fa03f3204a42f80b
:10299c0021300123a373002096e706eb4515202375
:1029ac0085f80431402385f80731022385f804317a
:1029bc00b9e76ff07b0070476ff07c0084e7002074
:1029cc0082e74ff00008c246c146cdf80480002dc6
:1029dc0090d04ffa8bfb4fea2b1000f008003844d4
:1029ec00c37923f00203c3716ff0030104f081ff7c
:1029fc00bbf1000fd1db06eb4515102385f8043134
:102a0c00202385f80731012385f804318be700bfbb
:042a1c0000e100e0f5
:020000040000fa
:102a20002de9f04111f00e0440f0a88001f00f07ed
:102a3000a3f10805adb2b5f57e7f00f2a280b0f13a
:102a4000ff3f00f0a180466a082b06d90825013413
:102a5000e4b26d00adb2ab42f9d800eb87056d6c06
:102a6000002a35d12a60ab80aa71e97941f00101d1
:102a7000e971aa60ab81aa73eb7b43f00103eb73ae
:102a800086f80021112386f80031036d23f0e0431e
:102a90000365036e23f0e0430366036d240704f02f
:102aa000e04423430365036e1c4304660369c36467
:102ab0004369c365036d23f000430365036e23f090
:102ac00000430366132386f809311046bde8f08100
:102ad00049b24fea211c0cf0080c4ffa8cfc05ebb4
:102ae0000c0e4ff0000845f80c80aef804308ef85c
:102af00006209ef8073043f001038ef80730414569
:102b000027db06eb471696f8003103f0f80386f84a
:102b1000003196f800311e4d15f81220134386f847
:102b20000031402386f805317b0003ebd17100ebc7
:102b30000110036d23f0e0430365036d240704f0e7
:102b4000e0441c430465036d23f00043036500204b
:102b5000bce706eb471696f8003103f08f0386f8c2
:102b6000003196f800310a4d05eb420252781343ca
:102b700086f80031802386f80431d5e76ff07b00ba
:102b8000a4e76ff07b00a1e76ff07c009ee700bf39
:042b90008484000039
:020000040000fa
:102b94005a4b586a4ff086439b7d002b00f0ac8063
:102ba40070b54ff086414c6804f00704534b5a69e2
:102bb4009d699e680b7e13f0040f5ed0896a4f4bab
:102bc400db68934259d9002c47d14c4b5b6899542c
:102bd40001324ff086431b7e13f0010f17d04ff0e4
:102be400864301211975454b9b68ab425ed9434b23
:102bf4001b68595d4ff08643996201353f4b1b6951
:102c04000bb9b5426dd03d4bdb6893426dd03b4b65
:102c14005a619d614ff086431b7e13f0020f14d05e
:102c2400374b1b78c3b1354bdb68934210d1334b20
:102c340000221a774ff0864107240c7530490a7038
:102c44001b6a4bb12d4b1b6a98472d4b1b781bb14c
:102c54004ff0864302229a7570bd284b5b6823f8b7
:102c6400121001324ff086431b7e13f0010fced0b9
:102c74004ff08643012119750be04ff086431b7e0c
:102c840013f0010fc3d04ff0864301211975002cb6
:102c9400a9d01a4b9b68ab4215d9184b1b6833f863
:102ca40015104ff0864399620135a7e7134b1b6952
:102cb400002ba3d04ff08643ff2199620f490b6983
:102cc400013b0b619ae70d4b1b69002b96d04ff02b
:102cd40086434ff6ff71996208490b69013b0b610a
:102ce4008ce7074b0121197091e74ff086430121ce
:102cf4009975042119758ae7704700bf8c2d00204f
:042d0400a22e0020db
:020000040000fa
:102d080011f00e0f46d12de9f04f83b001f00f05f9
:102d1800b0f1ff3f41d001910446d0f8248000eb88
:102d280085035f6cc378002b3cd1837b012b04d0d7
:102d38006ff07e0003b0bde8f08f00238373807ac4
:102d480004f048f98146e07a04f044f98246207b91
:102d580004f040f98346607b04f03cf9064625e020
:102d6800202388f80531102388f805316ff0020117
:102d7800384604f0c0fdfb7943f00203fb716ff0a5
:102d8800020107f1080004f0b6fdfb7b43f00203e3
:102d9800fb7326e06ff07b0070476ff07c00c9e79b
:102da8000020c7e70026b346b246b146002dd7d06b
:102db8009df90410002905f1080508eb4518b4bf72
:102dc8002023102388f80530091101f008010f4469
:102dd8006ff00201384604f08efdfb7943f00203e0
:102de800fb71e378002bdbd1b9f1000f09d0a37a8e
:102df800590903f01f03012202fa03f3154a42f8a6
:102e08002130baf1000f09d0e37a590903f01f0302
:102e1800012202fa03f30f4a42f82130bbf1000ff6
:102e280009d0237b590903f01f03012202fa03f397
:102e3800084a42f821304eb1637b590903f01f0359
:102e4800012202fa03f3034a42f821300123a37353
:082e580000206fe700e100e03b
:020000040000fa
:102e60000138032857d8dfe800f02c0217412b4b1c
:102e70002b4a1a602b4a5a602b4a9a602b4ada6016
:102e80002b4a5a612b4a1a612b4a1a622b4a9a61c1
:102e90002b4ada6100207047204b2a4a1a602a4ade
:102ea0005a602a4a9a602a4ada602a4a5a612a4aa9
:102eb0001a612a4a1a622a4a9a612a4ada61002069
:102ec0007047164b284a1a60284a5a60284a9a6066
:102ed000284ada60284a5a61284a1a61284a1a623e
:102ee000284a9a61284ada61002070470b4b274a2a
:102ef0001a60274a5a60274a9a60274ada60274aa6
:102f00005a61274a1a61274a1a62274a9a61274a50
:102f1000da6100207047e220704700bfe02d0020fa
:102f20008384000029860000f9540000d561000068
:102f30003d7200007d720000997c00006574000005
:102f400061340000918200002d860000634400007f
:102f5000115e00006f84000065840000416700007e
:102f60009d740000e13e0000c17b00002b86000044
:102f7000157a0000e1850000e5850000e985000084
:102f8000ed850000b96c0000dd3b0000a180000071
:102f9000138000009b6a00001d6400009d840000f7
:102fa0005d7c00007b7c0000516900007125000001
:020000040000fa
:102fb000002800f0928070b505460468002c00f0ef
:102fc0008e80484b002908bf1946b1eb041f48d337
:102fd00000260a4633462005210b04f099fbc0f574
:102fe00080303346404a116821f0020111601146d9
:102ff000ca69002afcd180b23b4a90816a68022ae1
:1030000059d03948026822f0706222f4604242eae4
:10301000433242f0807202604268ab68e9680b4359
:1030200022f4015222f0070213436a6813434360fb
:103030002d4ad369002bfcd12b4a136843f00203bd
:103040001360d369002bfcd1274b5b6803f00703a7
:10305000012b264b14bf802240221a631a610120e3
:103060003ee0b1ebc40f09d30a460023e004610b34
:1030700004f04efbc0f580300223b3e704eb4403b9
:103080008b4215d80022201942eb0203001943ebb2
:103090000204230443ea1043020410461c460a4675
:1030a0000023214604f034fbc0f58030042399e767
:1030b0000023184696e70c490a6822f0706222f451
:1030c000604242ea43320a604a68ab68e8680343f8
:1030d00022f0470213434b60aae70020704700200c
:1030e00070bd00bf006cdc0200300040d42b00201b
:020000040000fa
:1030f00030b44749cb6823f4e0631b041b0c43f056
:10310000bf6343f40033cb60bff35f8f62b6414bc4
:10311000e02283f82e234ff48040586083f82f2359
:103120004ff40040586083f830234ff480345c60e3
:1031300083f831234ff40030586083f836234ff47e
:1031400080055d6083f837234ff400055d6083f8e8
:1031500038234ff080755d6083f839234ff0007598
:103160005d6083f83a234ff080655d6083f83b2310
:103170004ff000655d6083f83c234ff080555d6043
:1031800083f83d234ff000555d6083f83e234ff0f8
:1031900080455d6083f83f234ff000455d6083f814
:1031a000402301259d6083f8412302259d6083f81b
:1031b000422304259d6083f8432308259d6083f8fe
:1031c000442310259d6083f8452320259d6083f8c6
:1031d00050239c6083f85123986083f852234ff466
:1031e0008020986083f853234ff400229a604b6a42
:1031f00003434b624b6943f010034b614b6a43f44a
:1032000000334b624b6a23434b6230bc704700bfb4
:0832100000ed00e000e100e028
:020000040000fa
:1032180070b582b004460d4649784b1e082b00f263
:103228008280dfe803f05f8066800580808012007e
:10323800037843f080030370ab7880f8ac3000214a
:10324800204603f0e9fe02b070bd6b8823b9c2784e
:1032580002f00702052a2dd094f8ad20dbb29a427d
:1032680063d094f8ae208ab1d4f8b060331f013a25
:10327800d2b206eb820600bf53f8042f5079a97822
:10328800884208bfc4f8b420b342f5d16b8884f8eb
:10329800ad30204602f0f0fde378052262f3020328
:1032a800e3706b888df8043094f8d530012b0fd07b
:1032b8000021c5e70b2380f8b83003f0c2fb0021da
:1032c80084f8ad10e378042262f30203e370b7e7f1
:1032d800d4f8d8305bb3d4f8dc2001a90a20984789
:1032e8000021ade76b88012baad1002180f8c0101e
:1032f800a6e76b88012b03d0022b05d001219fe79d
:1033080080f8c03000219be7037803f00e03022bfe
:1033180001d0012194e76b798370437843f001036e
:10332800437000218ce701218ae7002188e700210a
:0433380086e700bf65
:020000040000fa
:10333c002de9f04f0e4649683568d6f80890f768c5
:10334c008bb0cde903230029acbf25f00205012188
:10335c0015f010030593039b8346d3e900232fd06c
:10336c0052ea03002cd0a9f10208346915f00800c8
:10337c0004f1ff3408904ff00000385518bf08f1e5
:10338c00ff388a46012c1ddc059b002b54d1089b71
:10339c0013b1013c20233b5532690095013a4b4651
:1033ac00121b3919584602f083fadbf80430db059e
:1033bc0003d573689842b8bf18460bb0bde8f08fc0
:1033cc00c846d2e752ea030009d1baf1000f06dc75
:1033dc00a8eb010050440028d6dda807d4d502f094
:1033ec000f000928d4bf00f1300e00f1570e0498dd
:1033fc00a0f1410cbcf1190f04f1ff3410d84ef0c0
:10340c00200cacf1610cbcf1190f09d87046099174
:10341c00cde9062304f06bffdde906230999864606
:10342c00100940ea03704fea131c07f804e00af194
:10343c00ff3a02466346a5e7039bd3e9000150ea35
:10344c000103a4d03a19049b02f8013c023c30233e
:04345c003b559ce759
:020000040000fa
:103460002de9f04383b00123adf80630ff238df83a
:103470000530002a75d01646002974d00d4607463f
:10348000002313803d4b187804f05cffa0b12b782b
:103490008df805306b78ac7804eb0324a4b20df101
:1034a00006020df10501384603f0dcff0346002853
:1034b0005bd14ff0020803e04ff001084ff4806445
:1034c0009df80530102b16d0ff2b14d003f07f038e
:1034d000302b01d0012c3dd101222946384604f081
:1034e000e3fa03460124002b18bf444634801846f3
:1034f00003b0bde8f08342462946384604f0d4faca
:103500000346b0bbb8f1010f0ed02b7895f80190af
:1035100009eb03291ffa89f94c4529d308f1020365
:103520004b4504dbe62324e095f80090f4e7134bc9
:10353000187804f007ff10b9b9f1fe0f1bd8a9ebfa
:10354000080292b205eb0801384604f0adfa0346d2
:103550004c46c8e722462946384604f0a5fa0346f9
:10356000c1e7e223c3e7e223c1e74ff0020800e02e
:10357000ed234446bae7e723fbe700bfa92e00206e
:020000040000fa
:1035800000287dd1414b1b78002b7cd130b583b016
:103590003e4b01229a731a7083f820204c685c62bb
:1035a000c87b587200205870986318718d7a9d728c
:1035b000cd7add720d7b1d734d7b5d73d8702270eb
:1035c0005a6a937813f0010ffbd10a23d370304b62
:1035d0001b680193019b03f01f031f2b08bf0523ea
:1035e0002a4a526a108d40ea83131385019bc3f364
:1035f00044131f2b08bf1d23108d03431385019b0c
:10360000c3f38223072b08bf0323108d40ea033343
:1036100013850b7a1bb1137843f0040313701b4b13
:103620005b7a012b11d0194a516a0b7843f00203df
:103630000b70526a937813f0020ffbd1134b0222e6
:1036400083f82020002003b030bd104b5a6a03f1ec
:103650004c005062002283f83c200a6a1a645a6abd
:1036600013899bb223f00c03897b032908bf43f025
:1036700004039bb213810021044804f091f8d2e7bf
:103680004ff0ff3070474ff0ff3070474c2500205f
:043690008400800032
:020000040000fa
:10369400f0b585b004460f460578032d75d8dfe8ec
:1036a40005f002243f593a4e0fce20606160a260bb
:1036b400e36003ce2061616133782376204604f011
:1036c40055fc0a230293012301930223009303234d
:1036d4000022304914fa80f004f086fb204604f0fe
:1036e40045fc3880284605b0f0bd2b4b03cb206049
:1036f40061601b782372204604f038fc0a2302938d
:10370400002501950423009301232a46214914fa34
:1037140080f004f069fb204604f028fc3880e1e7df
:103724001e4b03cb206061601b782372204604f09b
:103734001dfc0a23029300250195012300932a46c8
:10374400144914fa80f004f04ffb204604f00efcf8
:103754003880c7e7124b03cb206061601b7823726b
:10376400204604f003fc0a2302930025019502235a
:10377400009301232a46074914fa80f004f034fb2d
:10378400204604f0f3fb3880ace7e225aae700bf4b
:1037940008680000f067000024680000306800003a
:0437a4003c6800007d
:020000040000fa
:1037a800f0b583b000268df80760404f702231468f
:1037b800384604f0a3fc0320fff74efb3c4d2b6872
:1037c8009847ab680df10701384698479df80740c0
:1037d8008df807600220fff73ffb2b689847c4eb82
:1037e800c400ab680df1070107eb400098479df84e
:1037f80007301c44e4b28df807600120fff72cfb6a
:103808002b689847c4ebc400ab680df1070107ebc0
:10381800400098479df807301c44e4b28df80760d3
:103828000420fff719fb2b689847c4ebc400ab686a
:103838000df1070107eb400098479df807301c443d
:103848008df8076014f0ff032cd03d467c1c013b2b
:10385800dbb2c3ebc3030f3505eb430505e0207866
:1038680003f0f0fe0e34ac421cd014f8013c013bce
:10387800032bf7d801a252f823f000bf9d380000af
:103888009538000067380000a5380000207803f05c
:10389800d9fee7e7207803f0d5fee3e7207803f0c8
:1038a800d1fedfe7014b187803b0f0bd482a0020ad
:0438b800e02d0020df
:020000040000fa
:1038bc0011f00e0f40d101f00f03b0f1ff3f3ed0dd
:1038cc002de9f0470d46044600eb83035e6cc3788c
:1038dc00002b39d1837b012b03d06ff07e00bde828
:1038ec00f08700238373807a03f072fb8246e07ac0
:1038fc0003f06efb0746207b03f06afb8046607b7f
:10390c0003f066fb814645f3031101f008006ff0ec
:10391c000101304403f0edffe3789bb9baf1000fdd
:10392c0021d0a37a590903f01f03012202fa03f3f1
:10393c00214a42f8213016e06ff07b0070476ff09f
:10394c007c0070470020cae741f3031101f0080026
:10395c006ff00101304403f0ccffe7780fb1002089
:10396c00bde7b946b8464fb1e37a590903f01f03d6
:10397c00012202fa03f3104a42f82130b8f1000f89
:10398c0009d0237b590903f01f03012202fa03f328
:10399c00094a42f82130b9f1000f09d0637b59096b
:1039ac0003f01f03012202fa03f3034a42f8213009
:0c39bc000123a373002092e700e100e06b
:020000040000fa
:1039c800ffffffffffffffffffffffffffffffffff
:1039d800ffffffffffffffffffffffffffffffffef
:1039e800ffffffffffffffffffffffffffffffffdf
:1039f800ff00010203040506070809ffffffffff98
:103a0800ffff0a0b0c0d0e0f1011121314151617c9
:103a180018191a1b1c1d1e1f20212223ffffffff40
:103a2800ffff0a0b0c0d0e0f1011121314151617a9
:103a380018191a1b1c1d1e1f20212223ffffffff20
:103a4800ffffffffffffffffffffffffffffffff7e
:103a5800ffffffffffffffffffffffffffffffff6e
:103a6800ffffffffffffffffffffffffffffffff5e
:103a7800ffffffffffffffffffffffffffffffff4e
:103a8800ffffffffffffffffffffffffffffffff3e
:103a9800ffffffffffffffffffffffffffffffff2e
:103aa800ffffffffffffffffffffffffffffffff1e
:103ab800ffffffffffffffffffffffffffffffff0e
:0a3ac800ff000102040703060500d9
:020000040000fa
:023ad20070473b
:020000040000fa
:103ad400b0f1ff3f24d031b32de9f84391f9083018
:103ae400012b23dd0c460546c37823bb837b012bc6
:103af40003d06ff07e00bde8f88300238373807adf
:103b040003f06afa0746e87a03f066fa8046287bef
:103b140003f062fa8146687b03f05efa06460ee023
:103b24006ff07c0070476ff07c0070476ff07c0092
:103b3400e1e70020dfe70026b146b0463746fe2322
:103b4400237200236360e36963b1a2699a61a36984
:103b54000bb1e269da610023e361a361e3680bb1ad
:103b640020469847eb78002be3d14fb1ab7a590943
:103b740003f01f03012202fa03f3164a42f821302c
:103b8400b8f1000f09d0eb7a590903f01f030122a1
:103b940002fa03f30f4a42f82130b9f1000f09d0b9
:103ba4002b7b590903f01f03012202fa03f3094a8c
:103bb40042f821304eb16b7b590903f01f030122f7
:103bc40002fa03f3034a42f821300123ab730020c5
:083bd40091e700bf00e100e0f1
:020000040000fa
:103bdc00002a75d0f0b583b01646002973d00023a7
:103bec0013800b788df807304a788d7805eb022519
:103bfc00adb203f07f03302b19d0012d0cbf2f4633
:103c0c0002270c46314b4ff08052c3f8942001210f
:103c1c000df1070004f078fb58b9f0232b4a4ff054
:103c2c008051c2f898103780184603b0f0bd0127b8
:103c3c00e7e70121264803f031fa03460028edd1cd
:103c4c009df8073003f0bf03902b06d03946204671
:103c5c0004f0e8fa80b9e623e0e72946204604f0b0
:103c6c00e1fa10b92f46e623d8e72946184803f0a5
:103c7c0015fa03462f46d1e73946154803f00efadc
:103c8c0003460028cad1012fc8d02378677807ebe8
:103c9c000327bfb2bd4211d3042f01d8e623bde7e1
:103cac00b91ea01c04f0befa08b9e623b6e7b91e8b
:103cbc0089b2074803f0f2f90346afe7ed23ade70d
:103ccc00e22318467047e223aee700bf00800041b4
:043cdc0040420f0053
:020000040000fa
:103ce00000283cd00368384a002908bf1146b1ebd0
:103cf000430f36d3354a934235d807ee901af8ee83
:103d0000677a07ee103af8ee476a87eea67adfed9b
:103d1000306a67eea67af2ee046a77eea67a77ee5c
:103d2000677afceee77a17ee902a2a498b4206d88a
:103d3000b2f5ff7f19d8012a3dd9500816e0b2f537
:103d4000bf7f3ad2032a3bd950002349a1fb00c0d0
:103d50004008a1fb0212520842ea002006e00020bf
:103d600070470020704700207047ff2019498b42a0
:103d700094bf00210121194a136823f00203136044
:103d8000d369002bfcd1154ad060136823f040732f
:103d900043ea01631360136843f002031360d369bd
:103da000002bfcd10d4b10225a831a46d369002bed
:103db000fcd1012070470120d8e74ff67f70d5e78e
:103dc00040f20120d2e700bf006cdc0240420f004d
:103dd00095bfd633801a0600abaaaaaa00400141bb
:020000040000fa
:103de000f0b583b00c461746087804f09df800281b
:103df0006bd00546407840bbab786bb3344e0fceea
:103e000020606160a260e3602b78022b38d0032b26
:103e100040d0042b48d0012b50d12e4b596820465e
:103e200004f0d6f8204604f0a3f880b2ab780a225a
:103e3000009200222849204403f0d8ff204604f0d5
:103e400097f83880002003b0f0bd03f0fffb014677
:103e5000204604f0f5fad7e71e4b1968204604f017
:103e6000effa204604f084f80a221c4914fa80f084
:103e700003f0bcff204604f07bf83880c520e2e761
:103e8000144b9968204604f0a3f8204604f070f81b
:103e900080b2cbe70f4bd968204604f099f8204652
:103ea00004f066f880b2c1e70a4b1969204604f0b5
:103eb0008ff8204604f05cf880b2b7e7054b19682c
:103ec000204604f085f8c520bde7c520bbe700bf4c
:103ed000d07a0000fc2e0020e07a0000cc7a0000ae
:020000040000fa
:103ee0002de9f04782b00e46924600238df8073048
:103ef00013800b7013254ff088094ff05a085ee0cd
:103f0000337823433370640014f0ff040dd08df830
:103f100007700df1070001f043ff30b99df807303d
:103f200083f07f03012beed8eae73378002b41d0f2
:103f3000aaf80030013d6db2b5f1ff3f01d1eb248d
:103f40002ee0002d30dd3378032b2fd9c82b2fd84e
:103f5000751c013bdbb201331e4400274ff0010802
:103f600018e02b7823432b70600010f0ff040ed074
:103f70008df807700df1070001f012ff30b99df8c0
:103f8000073083f07f03012beed8eae704460135c2
:103f9000b54202d02f704446eae75a2004f076f882
:103fa000204602b0bde8f087eb24f9e7e624f7e706
:103fb000ed24f5e7013d6db2b5f1ff3fbfd003f051
:103fc000a5fe484603f05afc0446404604f05ef85d
:0a3fd000002cefd10124002799e72f
:020000040000fa
:023fda0070472e
:020000040000fa
:103fdc00b0f1ff3f72d02de9f84303780bb9bde87f
:103fec00f8830446456a1021fef70ef9e378002b9e
:103ffc0054d1a37b012bf2d14ff0000984f80e9021
:10400c00a07a02f0e5ff8046e07a02f0e1ff064676
:10401c00207b02f0ddff0746607b02f0d9ff84f8bd
:10402c00069040f2fd33ab8285f80a902b8943f061
:10403c0001032b81e378002bd1d1b8f1000f09d00b
:10404c00a37a590903f01f03012202fa03f31c4a55
:10405c0042f821304eb1e37a590903f01f030122d3
:10406c0002fa03f3164a42f821304fb1237b590967
:10407c0003f01f03012202fa03f3114a42f8213024
:10408c0048b1637b590903f01f03012202fa03f3c1
:10409c000b4a42f821300123a373a0e70023a3713c
:1040ac0040f2fd32aa82ab722b8943f001032b81c3
:1040bc00e678002e93d130463746cbe7704700bfe9
:0440cc0000e100e02f
:020000040000fa
:1040d00070b582b000238df807300e2901d002b0f0
:1040e00070bd14460646354bec2505fb0035d388dc
:1040f000a5f8e030d5f8e4301b6c8021e8699847da
:10410000237803f01f03032be9d8dfe803f0022232
:104110002851237813f060020cd113f0800f04d1e2
:1041200021462846fff778f8d9e72146284600f0cf
:104130002bf9d4e7402a06d0202ad0d101212846e5
:1041400002f06effcbe722460e21284603f010fb5b
:10415000c5e722462179284602f088fdbfe721798c
:1041600051b9237813f0600f1bd122469df8071038
:10417000284601f09cfdb2e70df10702284603f046
:10418000fbf80e4bec2202fb0636f37803f0070334
:10419000052b01d10028e4d10121284602f040ff7f
:1041a0009de722469df80710284602f05ffd96e73e
:1041b00022460e21284603f0dbfa90e75c28002017
:020000040000fa
:1041c00038b590f9083013f1020f3cd00546446928
:1041d000022b07d04268002a3cd1002184f8c41089
:1041e0000f201ae094f8c4305bb1d4f8d03043b15a
:1041f000d4f8d850ab4227d000220c21b4f8c80024
:104200009847012384f8c430274bc4f8d030238b5f
:10421000a4f8c83004f124010e20d4f8d030d4f82a
:10422000d850ab423bd00a460146b4f8c800984784
:104230004023c4f88c30d4f8e4309b6b04f188023e
:104240000021e069984738bdd4f8dc2000210c201b
:10425000a847d6e794f8c430f3b194f8c53094f881
:10426000c610994202d800210d20d6e7d4f8cc0020
:1042700004f12401184403f08ffd6b6894f8c50025
:104280001844c3b284f8c53094f8c600002198429f
:104290008cbf01200d20c0e700210120bde7d4f82c
:0c42a000dc20a847c4e700bfd1400000ac
:020000040000fa
:1042ac00b0f1ff3f67d02de9f843334aec2303fb11
:1042bc00002393f90830002b32dd0646ec2303fb78
:1042cc00002393f8d430bbb1012b29d1ec2303fb91
:1042dc000023b3f81080b8f1000f21d02649ec234d
:1042ec0003fb00f3ca18cf5cc7f3420792f8ad90fa
:1042fc005569103500241ee01f4bec2404fb0034e0
:10430c00d4f8e4301b680f21b4f8e8009847e0615a
:10431c00b0f1ff3f04d0012384f8d4300223237280
:10432c00bde8f88335f80c0c98470134e4b210352d
:10433c00a3b24345f4d215f8103c1f42f5d015f842
:10434c000f3c4b45f1d10c49ec2303fb0613db78f6
:10435c0003f00703052be8d1ec2303fb06135b7872
:10436c0013f0040fe1d155f8043c002bddd0db68d1
:0c437c00002bd7d1d9e770475c28002047
:020000040000fa
:1043880030b583b004460d46002301934b78062bc5
:1043980012d0082b50d0002b37d1a0f8bc300378ae
:1043a80003f0010390f8c02062f34103024602f8cb
:1043b800bc3f0192022043e0c068cb78013b062b4a
:1043c80049d8dfe803f00410354848271d00237852
:1043d80003f00e03022b0cbfc3680368019312207d
:1043e800019971bb11e08b7894f8ae209a420cd9f0
:1043f800d4f8b02052f823303bb1019358881fe01d
:10440800237803f07003102b23d00121204602f0fb
:1044180003fe1ee0237803f07002102af5d103f0a2
:104428000e03022b0cbf036a436a01930a20d7e7e5
:1044380001aa01f0fbfbd3e700f1ad0301930120d2
:104448000199ea88824228bf024692b2204602f0c9
:0a4458007bfd03b030bd0020c2e779
:020000040000fa
:10446200f0b5c3b007460e4604258df8045111235a
:104472008df8053133238df8063143238df807314a
:10448200fe2200210deb050003f03bfe00243470f8
:10449200adf80250204603f0e9ff0a2003f007fdc1
:1044a200204601f0b4fc1e2003f001fd0df10202d2
:1044b2000deb05012046fff712fd30b92a4641a94e
:1044c2000deb050003f059fc20b1002003f0cefff4
:1044d20043b0f0bd07238df8043030228df805205b
:1044e20020468df806408df807408df808400322db
:1044f2008df809205d228df80a20adf802300df109
:1045020002020deb050102f01af90028ddd10debd4
:10451200050002f0deff0028d7d0ddf805307b6011
:10452200bc700324384600f8044b01f01ffe78707b
:0a4532007c73337801333370c7e760
:020000040000fa
:10453c002de9f84300295ed00f4600242f4e304b56
:10454c0000f1010edff8bcc006e00cf801809a60a7
:10455c00621c0134974244d9726802f00702012aa6
:10456c0018d09968dd684a1cd3f81080424528bfe2
:10457c000022954236d010f80480756805f00705c6
:10458c00012de2d14d000cf81180691c00250cf8ae
:10459c000150dce7d3f80880d96808f101021d69e5
:1045ac00aa4228bf002291421cd01ef8145010f8c9
:1045bc00141041ea0521756805f00705012d05d099
:1045cc00c9b20cf808109a60621cc2e74fea4805a1
:1045dc005ffa81f90cf818900135090a0cf80510ee
:1045ec00f1e7144603f00afc10b1044b01229a7552
:1045fc002046bde8f8830c46f4e700bf00300040cd
:08460c00d42b0020c829002076
:020000040000fa
:104614002de9f84300295ed00f4600242f4e304b7d
:1046240000f1010edff8bcc006e00cf801809a60ce
:10463400621c0134974244d9726802f00702012acd
:1046440018d09968dd684a1cd3f81080424528bf09
:104654000022954236d010f80480756805f00705ed
:10466400012de2d14d000cf81180691c00250cf8d5
:104674000150dce7d3f80880d96808f101021d690c
:10468400aa4228bf002291421cd01ef8145010f8f0
:10469400141041ea0521756805f00705012d05d0c0
:1046a400c9b20cf808109a60621cc2e74fea4805c8
:1046b4005ffa81f90cf818900135090a0cf8051015
:1046c400f1e7144603f0b6fb10b1044b01229a75ce
:1046d4002046bde8f8830c46f4e700bf0020014102
:0846e400142c00204c210020e1
:020000040000fa
:1046ec001a00000004860000160000006883000019
:1046fc000e000000c484000006000000cc84000002
:10470c0013000000d48400000b0000008c83000018
:10471c0011000000f484000005000000fc8400007f
:10472c0002000000d4830000040000001485000087
:10473c00000000001c850000170000000886000027
:10474c00120000000c8500000d0000002485000004
:10475c000a0000000c8600000c000000e083000042
:10476c000300000034850000090000003c850000b7
:10477c00070000004485000018000000548500006c
:10478c0001000000f8830000140000000484000005
:10479c0015000000108400001900000010860000b5
:1047ac000f0000007c85000010000000a4850000b4
:0847bc0008000000ac850000bc
:020000040000fa
:1047c400002856d1002957d0c869002857d0f8b519
:1047d4002c4b01241c7200221a83dd7862f302053b
:1047e400dd70d8608e8a1e828d695d61187891f8bb
:1047f400207067f3061083f8c02000f0fe0062f317
:10480400c7101870587803f12407c3f8887040273c
:10481400c3f88c7083f8984083f890201a4fc3f83b
:104824009470c3f89c30194f1f679b6783f87440da
:1048340000f0fe0062f38200587083f8d4208a6a84
:10484400c3f8e420ca8ca3f8e82086b100241e46ed
:1048540005e010350134e4b2338aa34207d9eb688a
:10486400002bf6d01b69002bf3d09847f1e700200a
:10487400f8bd4ff0ff3070474ff0ff3070474ff0f6
:10488400ff3070475c280020c1410000096100002e
:020000040000fa
:104894002de9f04182b09df824300a9c042b44d0c9
:1048a400052b53d1e37803f00303032b4ed18c463d
:1048b4000646a27812f0800f1bd1264d4fea8008dd
:1048c40008eb0007ff00eb191a76a1885983a38827
:1048d400009303230021604603f087f8eb5d43f067
:1048e4000403eb5508eb060005ebc00500232b621f
:1048f4002ce0184d4fea800808eb0007ff00eb1985
:104904005a75a188d982a3880093032300216046a5
:1049140003f06bf8eb5d43f00203eb5508eb060084
:1049240005ebc0050023eb6110e00a4b8600351847
:10493400ed0003eb050c5f5d47f001075f55ccf814
:104944000410ccf808200934ccf8244002b0bde8a7
:08495400f08100bfb82d002026
:020000040000fa
:10495c0000eb00122e4b03eb021393f92030002bcb
:10496c0055dd13462a4a02eb03139b6b002b4ed0ea
:10497c0070b500eb001302eb03135d7a012d00d030
:10498c0070bd044600eb0012214b03eb02131b6cb1
:10499c00fbb19847064604eb04131d4a02eb0313c4
:1049ac0093f83c308342ebd001281bd004eb04136a
:1049bc00174a02eb03131b790bbb04eb041502eb38
:1049cc000515ab6b00220921686b984701232b71ed
:1049dc0015e000eb00130e4a02eb031393f83c3086
:1049ec00012bcdd004eb0416094b03eb0616b36b6d
:1049fc0000220821706b9847002333712e4604eb7c
:104a0c000410034b03eb001080f83c60b8e77047d0
:044a1c004c25002005
:020000040000fa
:104a2000f0b583b00d46042849d004461646284bfd
:104a30001b78052b1bd00ed9062b10d0f12b21d1c2
:104a40000a2302462349284603f0d0f9284603f0fa
:104a50008ffa308039e0013bdbb2022b12d81e4bbb
:104a60001a8832801d49284603f096f92de00a2362
:104a700002461849284603f0b9f9284603f078faa7
:104a8000308022e0144b188890b1144f394600f062
:104a9000d7ff114b18800a2300933b46224610494a
:104aa000284603f0a3f9284603f062fa30800ce0b0
:104ab0000a2322460749284603f098f9f3e70a2318
:104ac00004220449284603f091f9002003b0f0bd08
:104ad000ab2e0020f87e0000a02e0020c40900208c
:044ae000047f00004f
:020000040000fa
:104ae4002de9f041294e2a4c4ff00108294f13e0db
:104af400226afab1616a236a40469847a36a01337d
:104b0400226b934228bf002314e0a26aedb2bd5485
:104b1400a36294f83430fbb9337e13f0040f32d01f
:104b2400b56aa36a0133226b934228bf0023e26a69
:104b34009a42ddd0e26a9a42eed0726802f007022d
:104b4400012ae2d1a16a4a00e8b207f81100013251
:104b5400c5f30725bd54dbe703f060f9236a002b96
:104b6400dad0616a94f83c3033b1a36b9842d3d362
:104b7400236a00209847cfe7a36b9842ccd1236add
:104b840000209847c8e7bde8f08100bf003000402e
:084b9400d42b00204829002069
:020000040000fa
:104b9c002de9f041294e2a4c4ff00108294f13e022
:104bac00226afab1616a236a40469847a36a0133c4
:104bbc00226b934228bf002314e0a26aedb2bd54cd
:104bcc00a36294f83430fbb9337e13f0040f32d067
:104bdc00b56aa36a0133226b934228bf0023e26ab1
:104bec009a42ddd0e26a9a42eed0726802f0070275
:104bfc00012ae2d1a16a4a00e8b207f81100013299
:104c0c00c5f30725bd54dbe703f01cf9236a002b21
:104c1c00dad0616a94f83c3033b1a36b9842d3d3a9
:104c2c00236a00209847cfe7a36b9842ccd1236a24
:104c3c0000209847c8e7bde8f08100bf0020014183
:084c4c00142c00204c1d002077
:020000040000fa
:104c54002de9f041294e2a4c4ff00108294f13e069
:104c6400226afab1616a236a40469847a36a01330b
:104c7400226b934228bf002314e0a26aedb2bd5414
:104c8400a36294f83430fbb9337e13f0040f32d0ae
:104c9400b56aa36a0133226b934228bf0023e26af8
:104ca4009a42ddd0e26a9a42eed0726802f00702bc
:104cb400012ae2d1a16a4a00e8b207f811000132e0
:104cc400c5f30725bd54dbe703f0d8f8236a002bae
:104cd400dad0616a94f83c3033b1a36b9842d3d3f1
:104ce400236a00209847cfe7a36b9842ccd1236a6c
:104cf40000209847c8e7bde8f08100bf00040043e6
:084d0400542c00205c26002065
:020000040000fa
:104d0c00002851d02de9f04f83b0824672b60020b6
:104d1c00002943d08b464ff00009dff894801de04a
:104d2c00c8f89470012003f0abf9c8f89870012012
:104d3c0003f0a6f9c8f88470d8f8a030c8f88870c9
:104d4c0013f4807f29d10a2003f09af909f10109a3
:104d5c005ffa89f91ffa89f35b4523d20825802471
:104d6c001af80920114b1988adf800109b88adf882
:104d7c00043014420cbf01ae6e464ff48077c8f875
:104d8c009470307803f07cf9c8f89870707803f060
:104d9c0077f96408013de3d1c2e7f02062b603b0b5
:104dac00bde8f08f0020f9e7e2207047a4840000f2
:044dbc000080004132
:020000040000fa
:104dc00051000000048600002800000074830000e9
:104dd00024000000c48400001c0000008083000048
:104de00043000000f484000015000000048500006a
:104df000400000000c850000300000001c85000011
:104e000056000000088600001700000024850000fe
:104e1000080000000c860000160000002c85000031
:104e200046000000ec8300001b0000003c850000f1
:104e3000020000004485000080000000f8830000ac
:104e40007700000004840000410000007c85000021
:104e5000470000001086000020000000348400009d
:104e600045000000a485000012000000ac85000091
:020000040000fa
:104e70000700000074850000080000001c8400008a
:104e800009000000bc8400000a0000005c830000f0
:104e90000b000000dc8400000c0000009883000080
:104ea0000d000000a48300000e000000b08300008d
:104eb00010000000bc83000011000000c883000047
:104ec0000f000000288400001200000094850000fc
:104ed000130000009c850000140000008c85000079
:104ee00015000000e4840000160000008485000026
:104ef00017000000ec840000180000004c85000042
:104f0000190000005c8500001a00000064850000a4
:104f10001b0000006c85000000000000b082000053
:020000040000fa
:104f2000284b012283f8442083f8562083f8572029
:104f300083f8582083f85920032183f83210222067
:104f400083f83b00772183f83c101f49c3f8801099
:104f50004ff00041c3f89010022183f8c81083f885
:104f6000d02083f8d12083f8d82083f8d92083f883
:104f7000da2083f8db2083f8dc1083f8dd200621bb
:104f800083f8df10002283f8b42083f8b8003320c0
:104f900083f8bc0083f8bd00302083f8be0083f89e
:104fa000bf204ff48020c3f8000100f18040c3f817
:104fb000100183f8401183f8522183f8302183f8df
:0c4fc00039217047008000410001001002
:020000040000fa
:104fcc00f0b583b004460e4603f0f9fa002c45d038
:104fdc00002e45d002460021204603f08df8002318
:104fec003380fef7dbfb05461e4b03cb2060616074
:104ffc00adb91d4b1968204602f0e4ff0a238df869
:10500c00043000258df8055001a9204602f0daff86
:10501c00204602f0a7ff3080284603b0f0bd0020e8
:10502c0002f07cff0746407802f00afb014610b103
:10503c00204602f0c7ff0c4b53f82510204602f017
:10504c00c1ff204602f08eff3b78022b04d0fb7888
:10505c0014fa80f04370d1e7bb78f9e7e220dce783
:0c506c00e220dae7b4840000fc2e0020f3
:020000040000fa
:10507800882910b536d012dc812943d003dc802979
:1050880040d0002010bd82290ed08429f9d119689a
:1050980002b30a1d1a60b1f90020d3171ee0a02937
:1050a8002bd00bdc9029ecd11968073121f00701ce
:1050b80001f108021a60d1e900230fe0c02901d0ec
:1050c800f029ded11a68111d1960136803600023e6
:1050d800436005e00a1d1a600a880023c0e900231e
:1050e8000120cfe7196822b10a1d1a6091f9002042
:1050f800d3e70a1d1a600a78efe71a68111d1960cc
:105108001268cae719681ab10a1d1a600a68c4e762
:0c5118000c1d1c600b68c0e90032e1e7d0
:020000040000fa
:10512400b0f1ff3f4ad038b500eb0013244a02eb3c
:10513400031393f92030022b00d038bd044600eb52
:1051440000121f4b03eb02139a7a550902f01f0257
:10515400012101fa02f21b48603540f82520da7a71
:10516400550902f01f0201fa02f2603540f82520c9
:105174001a7b550902f01f0201fa02f2603540f869
:1051840025205a7b550902f01f0201fa02f260350c
:1051940040f82520d9705b7a8b4207d004eb0410c9
:1051a400074c04eb00100023c370c6e704eb0413a0
:1051b400034800eb0310fbf755fbefe7704700bf14
:0851c4004c25002000e100e091
:020000040000fa
:1051cc0070b582b0254d264c264e14e0f25c8df85d
:1051dc000620013322699a4298bf0023e3606b6872
:1051ec0003f00703012b14bf9df80630bdf8063001
:1051fc00ab62237dbbb92b7e13f0010f2cd0a268c0
:10520c00e3689a4225d06a6802f00702012addd1d0
:10521c005a0016f813108df806100132b25c8df896
:10522c0007200133d6e702f0effe2368002be2d013
:10523c006168237f33b1a3699842dcd323680320d0
:10524c009847d8e7a3699842d5d12368032098479b
:10525c00d1e7024b01221a7502b070bd003000403c
:08526c00d42b0020c82900200a
:020000040000fa
:1052740070b582b0254d264c264e14e0f25c8df8b4
:105284000620013322699a4298bf0023e3606b68c9
:1052940003f00703012b14bf9df80630bdf8063058
:1052a400ab62237dbbb92b7e13f0010f2cd0a26817
:1052b400e3689a4225d06a6802f00702012addd128
:1052c4005a0016f813108df806100132b25c8df8ee
:1052d40007200133d6e702f0a5fe2368002be2d0b5
:1052e4006168237f33b1a3699842dcd32368032028
:1052f4009847d8e7a3699842d5d1236803209847f3
:10530400d1e7024b01221a7502b070bd00200141a1
:08531400142c00204c210020a4
:020000040000fa
:10531c0070b582b0254d264c264e14e0f25c8df80b
:10532c000620013322699a4298bf0023e3606b6820
:10533c0003f00703012b14bf9df80630bdf80630af
:10534c00ab62237dbbb92b7e13f0010f2cd0a2686e
:10535c00e3689a4225d06a6802f00702012addd17f
:10536c005a0016f813108df806100132b25c8df845
:10537c0007200133d6e702f05bfe2368002be2d056
:10538c006168237f33b1a3699842dcd3236803207f
:10539c009847d8e7a3699842d5d12368032098474a
:1053ac00d1e7024b01221a7502b070bd0004004314
:0853bc00542c00205c270020a6
:020000040000fa
:1053c400f8b50546224b18600024224e05e0837888
:1053d400ab421cd00134082c29d0e0b202f0a2fd6b
:1053e4003378002bf3d08278aa42f3d10778bb42fa
:1053f40005d0032beed1fb1edbb2012bead8437898
:10540400154a1370447b134a0021117004e0077895
:105414004378114a1370447b022f01d0042f0bd11f
:10542400184602f011f9204602f094fd00e000272e
:10543400384602f083fdf8bd07f0fd02012af7d1da
:10544400184602f001f9204602f084fdf0e700bf9f
:0c5454007c2e0020aa2e0020a92e002093
:020000040000fa
:10546000f0b5adf20c4d05460e4617464ff480627e
:10547000002102a802f046fe0a238df80a30c2235a
:105480008df8113070238df812300b23adf80630f3
:105490000d23adf80430174b12221a700df10602dd
:1054a00002a9284601f0deff044630b1114b00226c
:1054b0001a7020460df20c4df0bd052002f0f8fcec
:1054c00001aa02a9284601f0b3fc04460028edd148
:1054d0000b2102a802f0a0f80028e7d0ddf80b208d
:1054e000ddf80f3032607360304602f039fc3870fe
:0854f000dce700bfa92e00203b
:020000040000fa
:1054f8002de9f04383b006460f464ff00008adf89b
:10550800068081f80080404600f060fe1e2002f010
:10551800cbfcff241ee006f1040806f101094a4607
:105528004146284600f04cfd4a4641462846fff7ca
:1055380093ff013db570022333703b780133dbb232
:105548003b7096f80180082b19d00e360be0023c10
:10555800012c14d0e5b20df106020021204601f01d
:105568007dff0028d7d0b8f1000ff0d0a8f11503bf
:10557800dbb2062bebd9204601f05cfee7e703b06f
:04558800bde8f08307
:020000040000fa
:10558c0038b51a4b1b681b780bb3194b1c6819499f
:10559c00204600f0adfed8b1174b01221a70174807
:1055ac0001f0f4f8164c124d21682868faf768fee1
:1055bc00144801f0ebf82268134b5b6811882868db
:1055cc009847226800231380084a1268137038bd6c
:1055dc000e49204600f08cfe0028ddd10c492046f7
:1055ec0000f086fe0028d7d1d9e700bf802e00201e
:1055fc00842e0020f07a0000a82e0020007b0000f2
:10560c00882e00200c7b00006c2e0020f47a000009
:04561c00f87a000018
:020000040000fa
:1056200008b5194b9847194b9847eff3108172b69c
:10563000174ad2f8883043f47003c2f88830bff3b9
:105640004f8fbff36f8f01b962b6124a936823f090
:10565000010393601346da6812f0010ffbd10d4b82
:1056600024225a6001229a6001f06cff0a4b23f059
:105670007f03074a9360094b9847094b9847094baa
:10568000984702f02df8fee7077e0000077e000035
:1056900000ed00e0006000410000000079640000bf
:0856a000077e0000077e0000f8
:020000040000fa
:1056a800f0b5adf20c4d05460e4617464ff4806234
:1056b800002102a802f022fd0a238df80a30c22335
:1056c8008df8113070238df812300b23adf80630a9
:1056d8000d23adf804300df1060202a9284601f0a9
:1056e800e7fa044618b120460df20c4df0bd05202e
:1056f80002f0dafb01aa02a9284601f0b9fb044628
:105708000028f0d10b2102a801f082ff0028ead07e
:10571800ddf80b20ddf80f3032607360304602f0a0
:065728001bfb3870dfe7f7
:020000040000fa
:02572e007047c2
:020000040000fa
:105730002de9f0411c4ad36a956a89b30e46ab4203
:1057400008bf002227d00122dff864c0174ca0f167
:10575000020e0138144f0ce0e15c81540133396bc7
:10576000994298bf0023b24214d2511cab4212d0ce
:105770000a46dcf8041001f007010129ecd15900b8
:1057800014f813800ef812800131615c00f81210d9
:105790000133e4e71d46044bdd621046bde8f081ad
:1057a0001d460a46f7e700bfd42b002048290020f9
:0457b0000030004085
:020000040000fa
:1057b4002de9f0411c4ad36a956a89b30e46ab427f
:1057c40008bf002227d00122dff864c0174ca0f1e3
:1057d400020e0138144f0ce0e15c81540133396b43
:1057e400994298bf0023b24214d2511cab4212d04a
:1057f4000a46dcf8041001f007010129ecd1590034
:1058040014f813800ef812800131615c00f8121054
:105814000133e4e71d46044bdd621046bde8f08128
:105824001d460a46f7e700bf142c00204c1d00203b
:04583400002001410e
:020000040000fa
:10583800f0b51f4c2568a446002d36d00022294615
:1058480016461346d1f800e00f6986450ad132b1f1
:10585800176101f110031846f0bd3946f2e7ccf89c
:105868000070f6e705d9ebb11c68a6453cbf1646a3
:105878000b460a46002ff0d1002becd019461f69c1
:1058880051f8102b121a102a05d918600844103a3a
:105898000761026007469d420cbfccf80070376173
