:020000040000fa
:10000000f07f0020fd930000379700000f9a00005a
:1000100000000000000000000000000000000000e0
:100020000000000000000000000000009f9300009e
:1000300000000000000000009f9300009f9300005c
:100040009f9300009f9300009f9300009f930000e8
:100050009f9300009f9300009f93000005b0000055
:100060009f930000c5470000b14a0000a94400006a
:100070009f93000000000000000000009f9300001c
:100080009f9300009f9300009f9300009f930000a8
:100090009f93000000000000000000009f930000fc
:1000a0009f9300009f9300009f9300009f93000088
:020000040000fa
:1000b000f8b5c046f8bc08bc9e46704741980000a1
:1000c000f8b5c046f8bc08bc9e46704719980000b9
:020000040000fa
:0800d000e868000001000000d7
:020000040000fa
:1000d800302f00201c00000000000000000000205d
:1000e8001001000000000000002e00205000000059
:1000f80001000000a9a50000a9af000015b000008c
:1001080005b1000013b10000bbaf00003daa00001c
:10011800f580000049460000e14e0000256100001e
:10012800955800009da3000091a9000071350000ba
:10013800ad760000b97b00009b6a00007b7a000066
:100148000000000010010020a000000000000000d6
:10015800dc2e00202c00000000000000a02f002052
:100168000100000000000000b00100202c00000089
:1001780000000000e02800209001000000000000be
:10018800c82c0020c800000000000000dc0100208e
:100198003800000000000000dc2b0020ec0000000c
:1001a80000000000a12f0020010000000000000056
:1001b80014020020720000000000000088020020e5
:1001c8000800000000000000bc200020040000001f
:1001d8000000000090020020240000000000000041
:1001e800a22f00200100000000000000602f002066
:1001f80010000000010000000000000002000000e4
:100208000700000000000000a32f002001000000ec
:1002180000000000a42f00200100000000000000e2
:100228009c2e00204000000000000000b4020020c6
:100238000800000000000000702f002004000000eb
:1002480000000000f8160020c409000000000000ab
:100258009c2f00200200000000000000742f0020e6
:100268000400000000000000a52f0020010000008d
:1002780000000000a62f002001000000010000007f
:10028800ff0000004c2f00201400000001000000b7
:10029800f07d0000fc7d0000047e00000c7e000064
:1002a800147e0000bc020020c40900000000000009
:1002b800502e00204c00000000000000902d00206f
:1002c8007000000000000000800c00200c000000fe
:1002d80000000000a72f002001000000000000001f
:1002e800a82f002001000000000000009e2f002021
:1002f80002000000000000008c0c0020c80900006b
:1003080000000000782f002004000000000000001a
:100318007c2f00200400000000000000541600207c
:10032800a000000000000000802f00200400000052
:1003380001000000c0200020c02000201804000098
:100348000100000000000000ac2300201024002061
:1003580074240020000000000000000000000000dd
:100368000000000000000000000000000000000085
:100378000000000000000000000000000000000075
:100388000000000000000000000000000000000065
:100398000000000000000000000000000000000055
:1003a8000000000000000000000000000000000045
:1003b8000000000000000000000000000000000035
:1003c8000000000000000000000000000000000025
:1003d8000000000000000000000000000000000015
:1003e8000000000000000000000000000100000004
:1003f800000000000e33cdab34126de6ecde0500d4
:100408000b000000000000000000000000000000d9
:1004180000000000000000000000000000000000d4
:1004280000000000000000000000000000000000c4
:1004380000000000000000000000000000000000b4
:1004480000000000000000000000000000000000a4
:10075800000000000000000000000000702a0020d7
:100768006c010000010000004300000000000000d0
:100778000000000000000000000000000000000071
:10078800000000000000000043000000000000001e
:100798000000000000000000000000000000000051
:1007a80000000000000000004300000000000000fe
:1007b8000000000000000000000000000000000031
:1007c80000000000000000004300000000000000de
:1007d8000000000000000000000000000000000011
:1007e80000000000000000004300000000000000be
:1007f80000000000000000000000000000000000f1
:10080800000000000000000043000000000000009d
:1008180000000000000000000000000000000000d0
:10082800000000000000000043000000000000007d
:1008380000000000000000000000000000000000b0
:1008480000000000000000005dae000095a8000058
:10085800000000002060000071b2000070b20000cb
:1008680070b2000070b2000070b2000070b20000f8
:1008780070b2000070b2000070b2000070b20000e8
:10088800ffffffffffffffffffffffffffff00006e
:1008980001004153434949000000000000000000e6
:1008a8000000000000000000000000000000000040
:1008b80000004153434949000000000000000000c7
:1008c8000000000000000000000000000000000020
:1008d80000000000082f0020280000000000000091
:1008e800842f00200400000000000000882f002052
:1008f80004000000000000008c2f0020040000000d
:1009080000000000d82400200804000001000000b6
:100918000000000000000000d8240020d824002097
:10092800e0240020e0240020e8240020e82400201f
:10093800f0240020f0240020f8240020f8240020cf
:10094800002500200025002008250020082500207b
:10095800102500201025002018250020182500202b
:1009680020250020202500202825002028250020db
:10097800302500203025002038250020382500208b
:10098800402500204025002048250020482500203b
:1009980050250020502500205825002058250020eb
:1009a800602500206025002068250020682500209b
:1009b800702500207025002078250020782500204b
:1009c80080250020802500208825002088250020fb
:1009d80090250020902500209825002098250020ab
:1009e800a0250020a0250020a8250020a82500205b
:1009f800b0250020b0250020b8250020b82500200b
:100a0800c0250020c0250020c8250020c8250020ba
:100a1800d0250020d0250020d8250020d82500206a
:100a2800e0250020e0250020e8250020e82500201a
:100a3800f0250020f0250020f8250020f8250020ca
:100a48000026002000260020082600200826002076
:100a58001026002010260020182600201826002026
:100a680020260020202600202826002028260020d6
:100a78003026002030260020382600203826002086
:100a88004026002040260020482600204826002036
:100a980050260020502600205826002058260020e6
:100aa8006026002060260020682600206826002096
:100ab8007026002070260020782600207826002046
:100ac80080260020802600208826002088260020f6
:100ad80090260020902600209826002098260020a6
:100ae800a0260020a0260020a8260020a826002056
:100af800b0260020b0260020b8260020b826002006
:100b0800c0260020c0260020c8260020c8260020b5
:100b1800d0260020d0260020d8260020d826002065
:100b2800e0260020e0260020e8260020e826002015
:100b3800f0260020f0260020f8260020f8260020c5
:100b48000027002000270020082700200827002071
:100b58001027002010270020182700201827002021
:100b680020270020202700202827002028270020d1
:100b78003027002030270020382700203827002081
:100b88004027002040270020482700204827002031
:100b980050270020502700205827002058270020e1
:100ba8006027002060270020682700206827002091
:100bb8007027002070270020782700207827002041
:100bc80080270020802700208827002088270020f1
:100bd80090270020902700209827002098270020a1
:100be800a0270020a0270020a8270020a827002051
:100bf800b0270020b0270020b8270020b827002001
:100c0800c0270020c0270020c8270020c8270020b0
:100c1800d0270020d0270020d8270020d827002060
:100c2800e0270020e0270020e8270020e827002010
:100c3800f0270020f0270020f8270020f8270020c0
:100c4800002800200028002008280020082800206c
:100c5800102800201028002018280020182800201c
:100c680020280020202800202828002028280020cc
:100c7800302800203028002038280020382800207c
:100c8800402800204028002048280020482800202c
:100c980050280020502800205828002058280020dc
:100ca800602800206028002068280020682800208c
:100cb800702800207028002078280020782800203c
:100cc80080280020802800208828002088280020ec
:100cd800902800209028002098280020982800209c
:100ce800a0280020a0280020a8280020a82800204c
:100cf800b0280020b0280020b8280020b8280020fc
:100d0800c0280020c0280020c8280020c8280020ab
:100d1800d0280020d0280020902f002004000000b8
:100d280001000000ffffffff942f002004000000d7
:100d38000100000000000200f4160020040000007a
:100d480000000000982f00200400000000000000b0
:100d5800000000000000000022222222222222227b
:020000040000fa
:100d6800f0b5b1b00690039114001d001f000028d3
:100d780005d0836b0493002b01d108f0fdfd039b84
:100d88000c229a5e80239b011a4209d11343039acd
:100d98009381136e0493049ab34b1340039a13661a
:100da800039b9b891b0719d5039b1b690493002b85
:100db80014d01a22039b9b8913400a2b18d1039b3a
:100dc8000e229b5e002b13db2b0022000399069852
:100dd80007f016fe0b900b9831b0f0bd03990698fa
:100de80006f094f90028e4d001235b420b93f2e764
:100df80020ab139300230794159314930c930b9330
:100e0800079d2b78002b01d0252b4ad1079bee1a82
:100e180049d02093159b21969b191593149b22acbe
:100e2800049301331493072b08dd13aa039906983a
:100e380007f01efe002800d062e320ac0b9b9b1934
:100e48000b932b78002b00d175e3002210abda71dd
:100e580001235b4204932133691c160015009c464c
:100e680008924b1c07930b78632b00d115e15bdcd0
:100e78002d2b00d1cfe021dc232b00d1c0e014dce6
:100e8800202b00d1b6e0002a01d010aad671002b81
:100e980000d150e3002616aa137010abde71059737
:100ea80003e10135ade720accbe72a2b00d1aae05e
:100eb8002b2be8d101221e000799d2e7392b09dc38
:100ec800312b00dbd4e02e2b00d1a6e0302bdad179
:100ed800802396e0582bd6d1002a01d010aad671cb
:100ee800624a110011310c91582b00d10c9220222a
:100ef8002a4000d140e20722073797433a000832d8
:100f0800059239687a68009101920222e90700d4b3
:100f1800ede000990198014300d1e8e0302012a9e2
:100f280008704b701543e2e06f2b00d1d1e04edc26
:100f3800682b00d1ade03ddc642ba4d1002a01d0a0
:100f480010abde71ab0600d4b4e0072307379f432c
:100f58003b00083305933a687b6800920193019b34
:100f68000122002b0ada00980199002342428b41a2
:100f7800009201932d2210abda712c3a0199009b53
:100f88000b430499013100d1dfe280212e008e430a
:100f9800002b00d0dde2049b002b00d13fe2012aa8
:100fa80000d103e2022a00d11fe2002200230092ae
:100fb8000193d4e2692bc1d06c2b00d063e7079b67
:100fc8001b786c2b67d1079b0133079309e0732bc0
:100fd80000d1b7e007dc702b00d1a2e0712b00d064
:100fe80051e763460de0752b00d1a5e1782b00d1c0
:100ff80072e748e7002e00d05ee7012266465be70d
:1010080001231d4358e73b6804370893002b00db96
:1010180052e75b4208930423f3e7079b591c1b78ac
:101028002a2b0ad00591002104911900303905981e
:10103800079109290cd9079016e738683b1d0490d9
:10104800002802da0120404204901f00079133e78c
:101058000a21049b4b430799cb1805990493059bd8
:1010680001311b780591e0e7ffdfffff18aa0000b8
:10107800002108910a200899303b41435b180893e6
:10108800079b581c1b780790190030390929f1d99a
:10109800d1e74023b5e71023b3e700263b1d0593ae
:1010a8003b6816aa137010abde7101230a960493ed
:1010b80017005ce03a1deb0605d53b6805920093e6
:1010c800db1701934be73b6805926906f7d51bb21e
:1010d800f5e7202129400ed0072307379f433b001f
:1010e800083305933a687b68009201930022002137
:1010f80010abd97142e71023381d2b4004d03b6850
:10110800059000930191f1e7402205902a4004d010
:101118003a68019392b20092e8e73b680192009323
:10112800e5e73b1d05933b6830210093002302222d
:10113800019312ab197048315970c94b15431133db
:101148000c93d4e700263b1d059310abde71049b7e
:101158003f68013300d1eae0049a3100380009f011
:101168009cfe0a90b04202d0c31b04930a960a9bc5
:10117800049a0993934200da099210ab07331b785b
:101188005a1e9341099ad318099302232b400d93b1
:1011980002d0099b0233099384232b400e931dd15f
:1011a800089b099a9e1a002e18ddae4b2360102e5c
:1011b80000dd3fe1159b66609e19149b15960f9301
:1011c800013314930834072b08dd13aa03990698f2
:1011d80007f04efc002800d092e120ac10abda7981
:1011e8000733002a15d0236001236360159b083458
:1011f80001331593149b0f9301331493072b08ddc8
:1012080013aa0399069807f033fc002800d077e169
:1012180020ac0d9b002b16d012ab23600223636019
:10122800159b083402331593149b0d9301331493c3
:10123800072b08dd13aa0399069807f019fc002864
:1012480000d05de120ac0e9b802b1dd1089b099a34
:101258009e1a002e18dd844b2360102e00dd05e158
:10126800159b66609e19149b15960d930133149374
:101278000834072b08dd13aa0399069807f0f8fb32
:10128800002800d03ce120ac0a9b049a9e1a002e4c
:1012980018dd754b2360102e00ddfde0159b6660a0
:1012a8009e19149b15960a93013314930834072b3f
:1012b80008dd13aa0399069807f0dafb002800d086
:1012c8001ee120ac049b27606360159b08340a93d9
:1012d8000a9a049b944663441593149b0493013320
:1012e8001493072b08dd13aa0399069807f0c0fb8f
:1012f800002800d004e120ac6b0700d5e2e0089b91
:10130800099a934200da13000b9ad3180b93159b92
:101318000493002b07d013aa0399069807f0a8fb9b
:10132800002800d0ece00023059f149368e53800fe
:1013380009f0f2fe049019e720232b400bd0072375
:1013480007379f433b00083305933a687b68009250
:1013580001930122cbe63a1d0592e90603d53a68c6
:1013680000920193f5e76b0604d53b689bb20093a6
:101378000023f6e73b68fae71021381d294004d01e
:101388000590396801920091bfe5402205902a40f6
:10139800f7d03a68019192b20092b6e53b00e1e0dd
:1013a800019b002b0ad1009b092b07d8009b18aa88
:1013b8003033d3773f2710abff18eee020af00980b
:1013c80001990a22002308f0cbfc009801993032d9
:1013d800013f3a7000230a2208f0c2fc00900191f4
:1013e800009b019a1343ead1d7e000220023009220
:1013f80001930f2020af009b0c9a0340d35c013f60
:101408003b70019b1907009b1a09019b11431b099b
:1014180001930b00019a00911343ecd1bde020af7a
:10142800002a00d0b9e0eb0700d4b6e0303218aba0
:10143800da77bfe710236360159b083410331593e0
:10144800149b0f9301331493072b07dd13aa0399f9
:10145800069807f00dfb002852d120ac103ea4e6f8
:1014680018aa0000d4b00000e4b0000010236360a4
:10147800159b083410331593149b0d930133149363
:10148800072b07dd13aa0399069807f0f1fa00283d
:1014980036d120ac103edee610236360159b08347d
:1014a80010331593149b0a9301331493072b07dd0c
:1014b80013aa0399069807f0dbfa002820d120ac7c
:1014c800103ee6e6089b099a10269d1a002d00dcbe
:1014d80015e7354b2360102d18dc159b65605d19e9
:1014e800149b1595049301331493072b00dc06e72e
:1014f80013aa0399069807f0bbfa002800d1fee664
:10150800039b9b895b0600d465e46de4159b6660cc
:1015180010331593149b0834049301331493072b49
:1015280007dd13aa0399069807f0a2fa0028e7d165
:1015380020ac103dcde7159b0093002be0d013aafb
:101548000399069807f094fadae72e00002b00d1e9
:1015580025e5012a00d123e7022a00d149e707221d
:10156800944620ab624600995f1e0a4001993032ca
:101578004d0700993a70c80801990543c9080191b7
:10158800290001980095014300d007e7f10704d529
:10159800302a02d09f1e30233b70049b35000a93eb
:0c15a80020abdb1b0493e2e5d4b0000094
:020000040000fa
:1015b400f0b5ce46474680b591b004000e00002831
:1015c40000d147e3e225002900d144e34022002171
:1015d400684609f06dfd3188200009f05dfa0028a5
:1015e40000d12ae33a21200009f03efb071e07d070
:1015f400051b0135c64b9d4200dd1d00002d06d1a3
:101604006b4603221021012009f058f820e3c14b56
:1016140098462a002100180008f0aeff0023424635
:1016240053552d04280c414608f07cfb43461b7897
:10163400613bdab2132a53d89300b74ad3589f4672
:101644000022b64b1a702821b24809f00dfb051e82
:1016540011d02921af4809f007fb002844d00135f7
:10166400431b9bb2082bcbd110220021280009f088
:101674004df806f06bf801373a21380009f0f4fa16
:10168400051e34d0eb1b01339846002bb8d0a14b78
:10169400994642463900180008f06eff00234a4676
:1016a400414653542821484609f0defa071e26d045
:1016b4009849781a08f036fb984b1b78002b00d019
:1016c4009ce0944b1b78613bdab2152a00d991e077
:1016d4009300934ad3589f463022904b1a70b2e736
:1016e400ff228e4b1a708be728000830b7e70a21d7
:1016f400380009f0b9fa051e00d181e7c2e73a21a2
:10170400844809f0b1fa071e00d179e7d0e7012235
:10171400824b1a7001372921380009f0a5fa814655
:10172400002800d16ce77a4a00217e4809f0c0fc09
:101734004b46db1b7c4a13801b041a0c3900794886
:1017440008f01aff754b1b78f02b00d19ee0764d04
:101754002888744907f0fcfe2880704b1b78312bd5
:1017640000d1bee1dab2312a00d90ee1042b00d156
:101774006ae1042a00d8dde0062b00d18be1dab25d
:10178400062a00d272e1072b00d196e1082b00d083
:1017940051e2664b19680b7f4a7f12021a438b7f12
:1017a4001b041a43cb7f1b06134300d139e25d4a65
:1017b4001078421e9041c0b29847d3e00222574ba2
:1017c4001a70a7e7534b5b78692b03d10522534b5f
:1017d4001a709fe70322514b1a709be704224f4b68
:1017e4001a7097e706224d4b1a7093e707224b4b6a
:1017f4001a708fe7ff22494b1a7001e7302b05d08e
:10180400f02b9fd0ff2b00d1fae683e7414b1b78e6
:10181400693bdab20e2a35d89300454ad3589f461d
:10182400f0223e4b1a708de731223c4b1a7071e75f
:10183400384b5b78652b03d13422384b1a7069e737
:101844003222364b1a7065e7324b5b78722b05d027
:10185400772b07d13722314b1a705be738222f4b95
:101864001a7057e7ff222d4b1a70c9e633222b4b0f
:101874001a704fe73522294b1a704be73622274b53
:101884001a7047e7ff22254b1a70b9e601350a2181
:10189400280009f0e9f9002800d1b1e6471b00d17e
:1018a400aee61c4b98463a002900180008f064fe86
:1018b40000234246d3552821404609f0d5f9051e98
:1018c40000d19de6134fc01b390008f02bfa3b787a
:1018d400732b18d1f122114b1a70013529212800dc
:1018e40009f0c2f9002800d18ae6401bc0b20228e0
:1018f40000d085e610220021280008f007ffc0b2be
:1019040005f024ff23e7ff22044b1a701fe7c046ab
:10191400c4090000bc020020d4680000a62f0020e7
:1019240024690000f81600209c2f0020702f00204e
:101934007c690000022b61d0022a71d8012b00d0ef
:1019440079e1c84b19680b784a7812021a438b78ec
:101954001b041a43cb781b06134300d161e1c2492f
:10196400c2489847042800d15be1c14b1b78013b76
:10197400022b21d83200210005f09cfa0500002d2d
:1019840000d068e109f046f965e1352b00d1d5e0d6
:10199400dab2352a16d9372b00d114e1dab2372a54
:1019a40000d2f9e0382b00d124e1f12a00d042e141
:1019b4000022ad4b1a8000203200210005f07afa93
:1019c4000500dce7332b00d1a1e0332a00d9cce0b9
:1019d400a44b19682423cb5c25228a5c12021a4387
:1019e4002623cb5c1b041a432723cb5c1b0613431f
:1019f40000d116e19f4a10689847b3e7994b1968dc
:101a04000b794a7912021a438b791b041a43cb7956
:101a14001b06134300d104e1934994489847a1e776
:101a2400904b19680b7a4a7a12021a438b7a1b0478
:101a34001a43cb7a1b06134300d1f2e08d4a106897
:101a4400894a8a4998478de7864b19680b7b4a7bfc
:101a540012021a438b7b1b041a43cb7b1b061343d2
:101a640000d1dee08049814898477be77d4b1968c7
:101a74000b7c4a7c12021a438b7c1b041a43cb7cda
:101a84001b06134300d1cce0784a1078421e9041e3
:101a9400c0b2984766e7734b19680b7d4a7d120202
:101aa4001a438b7d1b041a43cb7d1b06134300d1c1
:101ab400b7e06d496d48984754e76a4b19680b7e47
:101ac4004a7e12021a438b7e1b041a43cb7e1b06ea
:101ad400134300d1a5e0674a1068634a63499847f5
:101ae40040e7604b19682023cb5c21228a5c1202f8
:101af4001a432223cb5c1b041a432323cb5c1b060f
:101b0400134300d18de05b4a106898472ae7554b90
:101b140019682823cb5c29228a5c12021a432a23df
:101b2400cb5c1b041a432b23cb5c1b06134378d0da
:101b3400504a10684c4a4d49984713e7494b196875
:101b44002c23cb5c2d228a5c12021a432e23cb5cfd
:101b54001b041a432f23cb5c1b06134361d0454a55
:101b64001068414a41499847fce63e4b19683023c6
:101b7400cb5c31228a5c12021a433223cb5c1b04f5
:101b84001a433323cb5c1b0613434ad0394a1068eb
:101b9400354a36499847e5e6324b19683423cb5c1d
:101ba40035228a5c12021a433623cb5c1b041a4387
:101bb4003723cb5c1b06134333d02e4a10682a4ac2
:101bc4002a499847cee6274b19683823cb5c39223b
:101bd4008a5c12021a433a23cb5c1b041a433b234c
:101be400cb5c1b0613431cd0224a10681e4a1f49b3
:101bf4009847b7e61b4b19683c23cb5c3d228a5cb3
:101c040012021a433e23cb5c1b041a433f23cb5cd2
:101c14001b06134305d0174a1068134a1349984703
:101c2400a0e60022104b1a80134a00210f4809f045
:101c34003ffa042099e6002097e621000f48583027
:101c440008f04aff6b4603221021012008f036fdfc
:101c5400032500e0e225280011b00cbc904699460b
:101c6400f0bdc046702f00209c2f0020f8160020e5
:101c7400a62f0020742f0020c4090000807d0000de
:020000040000fa
:101c8400f7b50d0009036c00ed0f0095490a450fe7
:101c940029431d035e00c700d80f6b0a550f2b4361
:101ca400c14d640d760dd200ae4203d11d008446b1
:101cb400154302d101254540ac46009da01bac450f
:101cc40000d036e1002861dd002e25d11d0015432a
:101cd40000d196e2461e002e19d1ba18ba42a44188
:101ce400c91864420919170001240b0200d4bee08c
:101cf400ad4b01349c4200d180e2ac487b080140ea
:101d0400012007401f43c80707434908afe0a64d19
:101d1400a84209d1a44caae0a34dac4200d1a6e04c
:101d2400802506002d042b43382e2adc1f2e17dcb9
:101d340020201d00801b8540ac4615000190f54015
:101d4400604605430198f3408240501e824115438a
:101d5400ed195b18bd428941494259182f00c4e767
:101d640030001d002038c5400020202e03d0403014
:101d7400861bb34018000243501e824115430023c2
:101d8400e6e71a4315006a1e9541f8e7002850d08b
:101d9400002c14d10c003c4300d128e2c443002c95
:101da40007d1bf189742a441c918644209193400e5
:101db4009be77d48864209d119001700aae77a4caf
:101dc400a642f9d04442802000040143382c2bdc85
:101dd4001f2c17dc2025281b01900800019de140e1
:101de400a840844638006546e0402843019daf4042
:101df4007d1eaf413843871897429241c918524219
:101e04008918d4e720000d002038c540280000259b
:101e1400202c03d040352c1ba1400d002f437d1ee8
:101e2400af4138430021e6e70f433800471eb8416d
:101e3400f8e7661c75056d0d012d00dd69e00800ed
:101e44003843002c49d1002800d1d3e118001043b5
:101e54000dd0ba18ba42b641c918802376428919fe
:101e64001b041700194202d0504b013419407b0760
:101e740009d00f233b40042b05d03b1dbb42bf417f
:101e84007f42c9191f000b0206d5474b01349c42ff
:101e940000d1c3e1454b1940434b4807ff08384381
:101ea400c9089c4206d103000b4300d1b9e1802349
:101eb4001b031943002709033b0d1b05090b194399
:101ec4003b4b6405194064080c43009b6400d9072c
:101ed40064080c43210003b0f0bd002800d16be777
:101ee4001800104300d115e74807ff080743802076
:101ef400c9080003014207d0dc08044204d1d20817
:101f04005b0713431f002100780fc9000143ff0042
:101f140000e7254ca64200d16fe1ba18c918ba42ad
:101f24009b415b42cb18df07520817435908340022
:101f34009de700285ddd002e3cd11d00154300d136
:101f44005fe1461e002e0ed1ba1a9742bf41c91a4c
:101f54007f42c91b012417000b0200d487e7490202
:101f64004d0a3e00f9e0104da84200d1d2e6382ec9
:101f74003adc1f2e27dc20201d00801b8540ac4648
:101f840015000190f540604605430198f3408240f6
:101f9400501e824115437d1bcb1aaf4289414942f1
:101fa400591a2f00d8e7c046ff070000ffff7fff44
:101fb400ffff0f809c4dac4200d158e780252d04d3
:101fc4002b430600d3e730001d002038c540002015
:101fd400202e03d04030861bb34018000243501e0d
:101fe400824115430023d6e71a4315006a1e954122
:101ff400f8e700284dd0002c17d10c003c4300d149
:1020040001e1c443002c09d1d71bba429241591aa9
:1020140063465242891a340000939de782488642ff
:102024000ad119001700804c45e07f4ca642f8d035
:102034004442802000040143382c25dc1f2c11dc91
:102044002025281b00900800009de140a8400500c1
:102054003800e0402843009daf407d1eaf41384327
:10206400171ad2e720000d002038c54028000025ab
:10207400202c03d040352c1ba1400d002f437d1e86
:10208400af4138430021ebe70f433800471eb84106
:10209400f8e7601c4005400d01284cdc18000d00d9
:1020a40010433d43002c24d1002d07d1071e00d13d
:1020b400ade01900170063460093d8e6002800d16c
:1020c400d5e6bd1aaf42b641c81a7642801b8026b7
:1020d4003604304206d0d71bba429241591a5242b2
:1020e400891ae8e72f00074300d190e001002f0090
:1020f400bde6002d07d1071e00d18be01900634611
:102104001700009306e6002800d103e64807ff08fd
:1021140007438020c9080003014200d1f4e6dc082b
:10212400044200d0f0e6d2085b0713431f00634665
:1021340021000093e8e6be1ab7428041cd1a40421e
:102144002d1a8020000405422dd0d61bb242ad4189
:10215400591a63466d424d1b0093002d29d0280067
:1021640007f0dafe0300083b1f2b27dc2022310096
:102174009e40d21a9d40d14037000d439c4232dc30
:102184001c1b661c1f2e1edc20233a0029009b1bef
:102194009940f2409f400a43791e8f412900f14043
:1021a4001743002463e637002f43d6d139003c009f
:1021b4002ee0300007f0b0fe2030d3e73500283899
:1021c40085400027dae72a001f3ce2400023202e46
:1021d40003d040339e1b2b00b3401f437b1e9f4103
:1021e40000211743dde71149e41a29403fe61900ad
:1021f40017009ce61900170039e60b4c00210f006c
:1022040035e6040033e619001700340053e73900bb
:1022140000972ce68021044cc903f9e700210f0044
:102224003ae6190046e6c046ff070000ffff7fffbd
:10223400f7b50d0009036c00ed0f0095490a450f31
:102244005e0029431d03db0f9c466b0a550f2b438d
:10225400009d640d760dc700d200a01b654500d01b
:1022640036e1002861dd002e25d11d00154300d183
:1022740097e2461e002e19d1ba18ba42a441c918d1
:1022840064420919170001240b0200d4bee0bd4bbf
:1022940001349c4200d181e2bb487b08014001200b
:1022a40007401f43c80707434908afe0b54da8429c
:1022b40009d1b44caae0b34dac4200d1a6e08025cc
:1022c40006002d042b43382e2adc1f2e17dc202079
:1022d4001d00801b8540ac4615000190f54060460a
:1022e40005430198f3408240501e82411543ed1985
:1022f4005b18bd428941494259182f00c4e7300098
:102304001d002038c5400020202e03d04030861bfd
:10231400b34018000243501e824115430023e6e7f0
:102324001a4315006a1e9541f8e7002850d0002c86
:1023340014d10c003c4300d129e2c443002c07d142
:10234400bf189742a441c9186442091934009be795
:102354008c48864209d119001700aae7894ca64285
:10236400f9d04442802000040143382c2bdc1f2c7c
:1023740017dc2025281b01900800019de140a8409e
:10238400844638006546e0402843019daf407d1ee9
:10239400af413843871897429241c918524289186d
:1023a400d4e720000d002038c54028000025202c4b
:1023b40003d040352c1ba1400d002f437d1eaf419f
:1023c40038430021e6e70f433800471eb841f8e7d9
:1023d400661c75056d0d012d00dd69e008003843ac
:1023e400002c49d1002800d1d4e1180010430dd0ad
:1023f400ba18ba42b641c9188023764289191b0417
:102404001700194202d0604b013419407b0709d0f0
:102414000f233b40042b05d03b1dbb42bf417f42f1
:10242400c9191f000b0206d5564b01349c4200d13a
:10243400c4e1554b1940534b4807ff083843c908ba
:102444009c4206d103000b4300d1bae180231b0355
:102454001943002709033b0d1b05090b19434b4b7b
:102464006405194064080c43009b6400d9076408a0
:102474000c43210003b0f0bd002800d16be7180025
:10248400404c1043c2d04807ff0807438020c908c6
:102494000003014207d0dc08044204d1d2085b07e0
:1024a40013431f002100780fc9000143ff0000e718
:1024b400344ca64200d170e1ba18c918ba429b4103
:1024c4005b42cb18df0752081743590834009de7d5
:1024d40000285ddd002e35d11d00154300d160e1db
:1024e400461e002e0ed1ba1a9742bf41c91a7f4226
:1024f400c91b012417000b0200d487e749024d0ac7
:102504003e00fae01f4da84200d1d2e6382e33dc5b
:102514001f2e20dc20201d00801b8540ac461500aa
:102524000190f540604605430198f3408240501ef7
:10253400824115437d1bcb1aaf4289414942591a46
:102544002f00d8e70f4dac4200d15fe780252d0462
:102554002b430600dae730001d002038c540002078
:10256400202e03d04030861bb34018000243501e77
:10257400824115430023dde71a4315006a1e954185
:10258400f8e7c046ff070000ffff7fffffff0f8053
:1025940000284dd0002c17d10c003c4300d102e19f
:1025a400c443002c09d1d71bba429241591a63463d
:1025b4005242891a340000939de7834886420ad127
:1025c40019001700804c45e07f4ca642f8d04442e5
:1025d400802000040143382c25dc1f2c11dc20252d
:1025e400281b00900800009de140a8400500380029
:1025f400e0402843009daf407d1eaf413843171a89
:10260400d2e720000d002038c54028000025202cea
:1026140003d040352c1ba1400d002f437d1eaf413c
:1026240038430021ebe70f433800471eb841f8e771
:10263400601c4005400d01284ddc18000d001043be
:102644003d43002c24d1002d07d1071e00d1aee05c
:102654001900170063460093d8e6002800d1d5e698
:10266400bd1aaf42b641c81a7642801b8026360492
:10267400304206d0d71bba429241591a5242891aa3
:10268400e8e72f00074300d191e001002f00bde6e9
:10269400002d07d1071e00d18ce0190063461700f6
:1026a400009306e6484c002800d1afe64807ff082f
:1026b40007438020c9080003014200d1f3e6dc0887
:1026c400044200d0efe6d2085b0713431f006346c1
:1026d40021000093e7e6be1ab7428041cd1a40427a
:1026e4002d1a8020000405422dd0d61bb242ad41e4
:1026f400591a63466d424d1b0093002d29d02800c2
:1027040007f00afc0300083b1f2b27dc20223100c2
:102714009e40d21a9d40d14037000d439c4232dc8a
:102724001c1b661c1f2e1edc20233a0029009b1b49
:102734009940f2409f400a43791e8f412900f1409d
:102744001743002462e637002f43d6d139003c00fa
:102754002ee0300007f0e0fb2030d3e735002838c6
:1027640085400027dae72a001f3ce2400023202ea0
:1027740003d040339e1b2b00b3401f437b1e9f415d
:1027840000211743dde71149e41a29403ee6190008
:1027940017009be61900170038e60b4c00210f00c8
:1027a40034e6040032e619001700340052e7390019
:1027b40000972be68021044cc903f9e700210f00a0
:1027c40039e6190045e6c046ff070000ffff7fff1a
:020000040000fa
:1027d400f0b5c64600b582b005004378002b00d1a1
:1027e400aae2836b002b00d1a6e2446aa38b9b056b
:1027f40005d5238b9b0502d580239b00a383a38b44
:10280400db0505d5238bdb0502d580235b00a38381
:10281400a38b1b0604d5238b1b0601d58023a3831e
:10282400a38b5b0604d5238b5b0601d54023a383ce
:10283400a38b9b0604d5238b9b0601d52023a3835e
:10284400a38bdb0703d5238bdb0700d57be0a38bae
:10285400db0603d5238bdb0600d580e0a38b5b0767
:1028640003d5238b5b0700d585e0a38b1b0703d51a
:10287400238b1b0700d586e00823ff33e35cdb06cc
:1028840030d50a23ff33e35cdb062bd56e6cf3797a
:1028940002229343f371f37b9343f3733768002f5e
:1028a40000d197e0e96c0632386808f096fb1022f4
:1028b4000823ff33e2543032033be2543a689179ff
:1028c400d3791b020b437ad107222133ea54022322
:1028d4003b7206337b60bb693360fb68002b01d01d
:1028e400380098470823ff33e35c9b0700d4bae021
:1028f4000a23ff33e35c9b0700d4b4e06b6c9e684f
:10290400002e00d1afe02122aa5c082a69d0316ae6
:10291400002900d086e0327c51b2002972db052107
:102924002122a95400223272b2699a60f368002b02
:1029340001d03000984702220823ff33e2543e328c
:10294400033be2548fe00123a383a3820f33a383c9
:10295400238300220421686bab6b984777e710232d
:10296400a383a3820f3ba383238300220321686be9
:10297400ab6b984772e70423a38300220721686b9b
:10298400ab6b984771e700222123ea54237b1b0792
:102994009b0fab4ad25c3023ea5428004c304022cf
:1029a400002108f085fbab6b002b03d00022022131
:1029b400686b98478023a372783ba3835ce7137802
:1029c4007f2b03d802222123ea5480e70622212305
:1029d400ea547ce701222123ea540f32e733e2541c
:1029e40080e7002221216a543272b16999607260d1
:1029f400f368002b01d03000984702220823ff33ec
:102a0400e25430e07f231a4032742b6e9b0b9b03fd
:102a14002b6602220823ff33e2547e320623ff335f
:102a2400e25420e09f89b94200d88fb2e86d736800
:102a3400591a33689c4661443a0008f0cefa336a66
:102a4400db1b33622b6e9b0b9b032b662b6ebf042d
:102a5400bf0c1f432f6602220823ff33e2547e3249
:102a64000623ff33e2540823ff33e35cdb076fd50f
:102a74000a23ff33e35cdb076ad56b6c984621239a
:102a8400eb5c052b28d043461e68002e43d02f6de7
:102a9400bf04bf0c306a73683a189a4201d91f1aee
:102aa400bfb2e96c33689c4660443a0008f095fa7a
:102ab400336afb1833627268934233d243469b886d
:102ac400bb4200d9a1e0402282235b00e2543f3a9a
:102ad4000823ff33e2543be043461868002813d030
:102ae400002303722122ab5401210822ff32a15496
:102af4003f31033aa1544246816911604360c3687f
:102b0400002b25d0984723e004222123ea54033ada
:102b1400e733e2541ce003222123ea54023ae73368
:102b2400e25415e00023337207222123ea54063ac3
:102b34000823ff33e2543f32033be2544346b26975
:102b44001a60336a7360f368002b01d03000984731
:102b5400238c9b0700d497e02a23ff33e35cdbb28a
:102b640001932823ff33e35cdbb20093009b1b0734
:102b74000fd5019b1b070cd58623eb5c9b0708d55f
:102b84008622ab5c02218b43ab547e3a2823ff336d
:102b9400e254009b9b0777d5019b9b0774d5ae6cd1
:102ba400b068002870d0026a002a4bd1037c5ab264
:102bb400002a2ddb002303728369b360c368002bf2
:102bc40000d09847b268002a32d0116ab38999427a
:102bd40000d88bb25068411a106884466144e96792
:102be400116ac91a11628022a958890b8903a95054
:102bf400a9589b049b0c0b43ab500a212823ff3399
:102c0400e1542623ff33e2543ee0012333728be781
:102c14007f22134003740132ab589b0b9b03ab50d0
:102c24000a212823ff33e1542623ff33e2542be007
:102c34000a232932ff32a3542822ff32a35423e06b
:102c440090b30000b3899a4200d893b241688a1abb
:102c540001688c466244ea67026ad21a02628022e0
:102c6400a958890b8903a950a9589b049b0c0b43b1
:102c7400ab500a212823ff33e15408392a23ff33b8
:102c8400e1542623ff33e254238c9b0754d52a2393
:102c9400ff33e35cdbb201932823ff33e35cdbb255
:102ca4000093009b5b070cd57623eb5c9b0704d554
:102cb4007622ab5c02218b43ab5404222823ff33de
:102cc400e254009bdb0737d5019bdb0734d5ae6ca0
:102cd4003068002830d02b6f9b049b0c026a9a1832
:102ce400026241688a420dd2b188994228d80368a9
:102cf4009a18ea6605222823ff33e2543b32033b49
:102d0400e25419e00023037283693360036a436069
:102d1400c368002b00d098473368002b13d01b687e
:102d2400eb6605232822ff32a3542a22ff32a35440
:102d3400e93a2033ff33e25402b004bc9046f0bdbc
:102d440001230372e0e7052394225200a3542822ae
:082d5400ff32a354f0e7c04672
:020000040000fa
:102d5c00f0b58bb001920593ca0f0c034b00060023
:102d6c00240b5b0d0492039245d0c64a934265d066
:102d7c008022410f12040a43e4001443c24ac500e6
:102d8c009b1800270293059b019a1e035800db0f2a
:102d9c00360b400d059360d0ba4b984200d180e0c1
:102dac008023520f1b041343f6001e43b64a019bab
:102dbc008218db0094460022059804994140019149
:102dcc000299b80061441043079101380131069112
:102ddc000e2879d808f0baf8740074007b017101e0
:102dec007101bc017b017101bc0171017b016f019f
:102dfc006f016f0164012500054326d0002c13d010
:102e0c00200007f085f801000b391c2910dc1d236c
:102e1c0002005b1a31003500083a9440d9409540c5
:102e2c000c439a4b1b1aace707f072f82030eae718
:102e3c0003003400283b9c400025f2e705002543a5
:102e4c0007d00500029303279de72c00029501276c
:102e5c0099e72c000293022795e7019b334327d077
:102e6c00002e13d0300007f053f801000b391c2949
:102e7c0011dc1d2302005b1a0199083ad940019b11
:102e8c00964093400e43814a121a93e7100007f0c4
:102e9c003ff82030e9e70300019e283b9e400023c9
:102eac00f1e7019b334307d013008446032283e7e9
:102ebc001e009c4601227fe71e00844602227be70f
:102ecc0034001d001700f8e0190c9bb20291190098
:102edc002a0c514318008c46029f0299adb26843ec
:102eec0051436f4304916744010cc91903908c45fd
:102efc0006d9049f380080277f02bc4660440490aa
:102f0c00684680890f0c090409180991310cb6b276
:102f1c00039130003100bc46039f694350437d430d
:102f2c007a432d180f0c7d19a84202d9802040023b
:102f3c001218280c82182d0489b205926a1808926e
:102f4c001800089962468c46029f210ca4b260437b
:102f5c004b43674362449446029dff18020cd219fe
:102f6c004d43934202d980235b02ed183700130cba
:102f7c005b190293039b67434e435c435943a4196b
:102f8c003b0c120480b21c191018a64202d98023e3
:102f9c005b02c918049b220463441e00089bbfb249
:102fac009e42ad418619d2198642bf410298059bbb
:102fbc0084466d42d218ab189c440393059b604623
:102fcc009a429241039b5242ab429b415b427f42ed
:102fdc001a43029b3818240c1219b842bf419c4565
:102fec00a4417f4264423c4314196418c30d64022b
:102ffc001c43099b75021d43691e8d41f60d35431b
:10300c0040020543e30167d501226b0815401d43bf
:10301c00e307d4401d43069b1d4a9b18002b5edd25
:10302c006a0709d00f222a40042a05d02a1daa4279
:10303c00ad416d4264191500e20106d58022d20023
:10304c009446144b1c40069b6344134a934200dd88
:10305c008be06207ed081543e408002124030a0df8
:10306c001205240b14430d4a5b0514405b082343e3
:10307c00019a5b00d2075b081343280019000bb0c0
:10308c00f0bdc046ff07000001fcffff0dfcffff79
:10309c00ff030000fffffffefe070000ffff0f8095
:1030ac0080221203144257d0164255d134001d0011
:1030bc00059b039350e0049b0193022f55d0032fe3
:1030cc0051d0012fa7d100252c002b00c5e71d00e6
:1030dc00059b34000193f5e6079b06939be70122c1
:1030ec00d21a382aefdc1f2a20dc202321009b1a5d
:1030fc0028009d409940d0406b1e9d41d440014317
:10310c000d436b0709d00f232b40042b05d02b1d2f
:10311c00ab42ad416d4264191d0080231b0423405a
:10312c0000d196e700240123250096e71f21494290
:10313c00cb1a2100d9400023202a03d040339a1afd
:10314c00230093401d436b1e9d4100240d43d8e783
:10315c00802400252403039580231b031c43039b1d
:10316c000193034b79e7019ba3e700252c00f8e7bb
:04317c00ff07000049
:020000040000fa
:10318000f0b50f0085b00b370190162f08d9072234
:10319000974306d50c23019a1360002005b0f0bdbb
:1031a00010278f42f6d3019807f0c1fff823ff33b1
:1031b000b74a9f421ad839000831511808004c68a4
:1031c0000838fb08844203d1cc680233a14224d0e2
:1031d00003236268a1689a431300e268e318ca6097
:1031e0009160012259680a435a602de0790a3f2311
:1031f000002903d004292dd8bb09383303218c467c
:10320000d8008018c468844206d065466168a94326
:10321000ce1b0f2e36dd013b013310001469083040
:10322000844253d0032165688d432900ed1b0f2d87
:1032300036dd0126e31937432e436760536113617e
:10324000d86098605e606550019808f022f8200010
:103250000830a3e7142902d80b005b33cee75429ca
:1032600002d83b0b6e33c9e7aa235b00994202d810
:10327000fb0b7733c2e787487e238142bed8bb0c65
:103280007c33bbe7e568002e08dba368dd60ab603c
:10329000012361184a6813434b60d5e72c00b2e75d
:1032a00050611061002df3da7b48814240d8c90893
:1032b000ff388d10ff38a8405568c900284350607a
:1032c0008a189168e260a1609460cc600122991034
:1032d0008a406f494868824200d995e0104205d182
:1032e0000324a343520004331042fbd0d800081833
:1032f000844602936446e468644557d10824032554
:10330000a444029c013402942c42f3d103242342ae
:1033100074d14b6893434b6048685200824273d823
:10332000002a71d0029b1042e0d104335200fae728
:103330004d0a042d16d888093830c600b518032662
:103340000295b446ad68029eae4227d1012180109d
:103350008140506801435160029aa560e260946028
:10336000ec60b3e7142d02d828005b30e5e7542d5c
:1033700002d8080b6e30e0e7aa204000854202d850
:10338000c80b7730d9e7434e7e20b542d5d8880c9c
:103390007c30d2e7ad68029aaa4204d060466a68df
:1033a00082439142f6d3ea680292d5e70326656824
:1033b000b5430395ed1b0f2d11dd0122e068a668d2
:1033c000e319174367600831f0602a438660cb60d9
:1033d0008b60d96099605a60039be55034e7e668da
:1033e000002d09db039be71801237a6813437b60f8
:1033f000a368de60b36027e734007de7083884689f
:10340000013ba04282d087e703238c6862689a431d
:103410000292974203d8d11b0f2900dd99e0029b4d
:10342000e31803931d4b1d681d4b7d191b68013369
:1034300029d110352900019807f050fa0600431ce5
:103440005fd0039a124b824201d99c4259d115494f
:103450000a68aa180a600399b14229d1490627d1fe
:103460009a68029b5c1901231c4354600d4b0e4a61
:103470001b6811688b4200d913600c4a11688b429b
:103480003fd913603de07f238f359d43d2e7c0468f
:10349000d824002054050000ff0100008c2f0020dc
:1034a000902f0020082f0020842f0020882f00203c
:1034b0002c4b1968013132d11e600723334002d0f2
:1034c0000822d31af6187f207519803305405d1b3a
:1034d0002900019807f002fa431c01d130000025b1
:1034e000214a801b13685b19136001231f4a451989
:1034f0001d43966075609442b8d0029a0f2a14d882
:1035000073600322194b9b685b689343d91b9f42ee
:1035100001d80f291ddc019807f0bbfe3de6039b97
:10352000f31a9b18104a1360c7e7072202990c3957
:1035300091436268134005220b43636063185a602d
:103540009a600f2992d921000198083101f066fb99
:103550008ce70122130005483b4384686360e3194c
:10356000836040e6902f0020082f0020d824002000
:020000040000fa
:10357000f0b5d6464f464646c0b5050016000f27a3
:103580000f404cb2e20f431e033300d97be1082306
:10359000f356022b00dd79e1012f00d979e1436a6e
:1035a00098463b0010339b00c3185b68d2009a46d4
:1035b00092445346db79db0700d46de1736899468a
:1035c00053469988484604f08bfd00290cd0002c06
:1035d00000db64e1eb78002b00d063e1ab7b012bd7
:1035e00024d07f20404249e1002c09dbeb78002bfe
:1035f000f4d00023b36103333372002399465ae1b8
:10360000337cda0706d54a46002a03d0802252428c
:1036100013433374eb78002be0d00023b361033302
:103620003372002399467368336246e10023ab731b
:103630000a20285606f036fc814635e11b787f2ba0
:1036400003d802222123ea546ae106222123ea5404
:1036500066e12c6da404a40c306a736822189a42a7
:1036600001d91c1aa4b2e96c33689c46604422005c
:1036700007f0b5fc336ae3183362726893421cd3d7
:103680000023337208222133ea54203b0822ff3200
:1036900041468b540a22ff328b54c93a0433ff331c
:1036a000ca54336a73605346b2691a60f368002bd8
:1036b00000d1cfe030009847cce053469b88a3422e
:1036c0001bd90123337208212122a9540822ff3279
:1036d00041468b540a22ff328b54c93a0433ff33dc
:1036e000ca54336a73605346b2691a60f368002b98
:1036f00000d1afe030009847ace001230822ff3250
:1037000041468b540a22ff328b54c93a0433ff33ab
:10371000ca549fe000232122ab54337201330822a4
:10372000ff3241468b540a22ff328b54c93a04338c
:10373000ff33ca545346b2691a60f368002b00d1b4
:1037400088e03000984785e02123eb5c062b16d0fb
:10375000072b00d07ee008222123ea542b6e9b0b1e
:103760009b032b6602230822ff3241468b540a2218
:10377000ff328b54893a0623ff33ca546ae0336a16
:1037800052469488a34200d29cb2e86d2200316870
:1037900007f025fc336a1b1b336209222123ea54fc
:1037a0002b6e9b0b9b032b662a6ea3049b0c13436f
:1037b0002b6602230822ff3241468b540a22ff3235
:1037c0008b54893a0623ff33ca5443e0002c12dba2
:1037d00031687b01ea18d1641f00474405220821a3
:1037e000ff317a543b000a33ff331a703b32822395
:1037f0005b00fa542ee0306a53469b88984200d80a
:1038000083b27268101a3268944660447a01a9182b
:10381000c865306ac01a3062086e800b8003086683
:10382000086e9b049b0c03430b66170047440a2356
:103830000821ff317b543a000a32ff321370802294
:103840000623ff33fa5405e01a009369002bfbd1dd
:103850009661f261eb780020002b0fd14b46002bd4
:1038600009d0ab7a5ab2002a05db1f221a40012385
:103870009340314a13600123ab7300201cbc904677
:103880009946a246f0bd7d204042f7e77b204042aa
:10389000f4e77c204042f1e776204042eee77d20cd
:1038a0004042ebe7002399460023b36103333372b0
:1038b000002c00dab7e60023336253461a68002a68
:1038c000c3d1042333720023f36153461e60002fdb
:1038d00000d07be7002c00da36e72123eb5c032bda
:1038e00000d1b6e6042b00d114e7012bb2d1e96c6c
:1038f0000832306807f073fb402282235b004146a8
:10390000ca54f43b0822ff328b540a22ff328b54f4
:1039100033689a79002a00d090e607322123ea54ce
:103920005346b2691a6002233372f368002b91d0b8
:0c393000300098478ee7c04600e100e040
:020000040000fa
:10393c00f0b587b002900c1e049206d11100fff76f
:10394c0019fc0600300007b0f0bd27000298083fb4
:10395c0007f0e7fb786803230200049e9a430b36ba
:10396c000392162e08d904339e43019606d50c23d8
:10397c00029a00261360e5e710230193019b049a39
:10398c009342f4d3019b039a934200dc41e1bb18b0
:10399c00a44a91688c468b4206d001255968a943ec
:1039ac0059184968294242d103215d688d43290089
:1039bc00039d6e18634516d1019d1035ae4238db60
:1039cc00019b0298ff1897600122f61a23001643f8
:1039dc007e60083b5e681640019a16435e6007f0f5
:1039ec0052fc2600aee7019ab24222dcda689b68f0
:1039fc00da609360019b0122f41ab8197b680f2cd2
:103a0c0000d808e10199019d134079182b43144308
:103a1c007b604c60436808311a434260029801f0a5
:103a2c00f7f83e00029807f02efc08368ae70021d2
:103a3c000b00c20700d588e02200083a1568032263
:103a4c007d1b68689043020003988218002b78d085
:103a5c00634550d153180593019b05991033994236
:103a6c006fdbaa68eb682e00d3609a600200043a00
:103a7c000836242a3ad8132a35d92368ab606368f0
:103a8c00eb601b2a1bd82b00220010330832116864
:103a9c0019605168596092689a60019b0199ea1803
:103aac00604b9a60059b5f1a01231f4357606a683d
:103abc0013400b436b60029807f0e5fb42e7a368e9
:103acc002b61e3686b61242a04d02b00220018338d
:103adc001032dce723692200ab612b0061692033d3
:103aec001832e961d3e733002200d0e7210030001f
:103afc0006f0dcfed1e756180199b14221dcda68f8
:103b0c009b68da6093602800aa68eb680830d36081
:103b1c009a60039a043a242a41d82300132a08d91c
:103b2c002368ab606368eb601b2a24d82300083041
:103b3c0008331a6802605a6842609b6883602f00e1
:103b4c0058e7019b16009342dddd04990298fff7bc
:103b5c0011fb061eafd0230001210200083b5b685d
:103b6c00083a8b43fb189a421dd1032356689e4397
:103b7c00039bf6183ee7a3682b61e3686b61242a6c
:103b8c0004d02800230018301033d2e72369280012
:103b9c00ab612300626920301833ea61c9e7210068
:103bac0006f084fecbe7039a043a242a2dd8132a74
:103bbc0028d923680360636843601b2a0ed803006e
:103bcc0022000833083211681960516859609268f4
:103bdc009a602100029801f01bf86ce7a3688360df
:103bec00e368c360242a04d003002200103310328f
:103bfc00e9e7236922000361030061691833183275
:103c0c004161e0e703002200dde7210006f04efef3
:103c1c00dfe7039eeee613401e437e6043681a43c3
:083c2c004260fee6d8240020ee
:020000040000fa
:103c3400f0b5936887b002900c001700002b02d1f6
:103c4400002007b0f0bd8b891b0723d50b69002b1f
:103c540020d002253b680193a3891d402bd000236b
:103c64001d000093002d1ed09f4a2b00954200d9c1
:103c74001300009ae1690298666ab047002800dce4
:103c840092e0009b2d1a1b180093bb68181ab860a9
:103c9400e8d1d5e72100029803f03afa0028d8d0f9
:103ca40001204042cde7019b1b680093019b5d68a6
:103cb40008330193d6e70122134047d02800039527
:103cc40000950592009b002b00d1e9e000280bd160
:103cd4001a000a21039807f0e2f8009b5d1c0028f3
:103ce40002d0039b0130c51a009b04959d4200d964
:103cf4000493206822696369904200d8dbe0a268db
:103d04009e18049ab24200dcd5e00399320006f012
:103d1400d1fd236821009b192360029806f00afd57
:103d2400002841d1ad1b059805d12100029806f069
:103d340001fd002838d1039b9b190393009b9b1b17
:103d44000093bb689e1bbe60bcd179e703930093cc
:103d5400009b002b2dd08023a2899b00a5681a42ca
:103d64006dd0009bab4243d39023db001a423cd07e
:103d740003262169236800985b1a049363695e43f0
:103d8400f30f9e19049b761001331b18b34200d91c
:103d94001e00530544d531000298fff7eff9051ec4
:103da40011d10c23029a13604023a2891343a381e7
:103db40076e7019b1b680393019b5b680093019b5f
:103dc40008330193c4e7049a216907f006f9a3892b
:103dd400464a1a4080231343a381049b2561ed18ae
:103de40025606661009df61aa660009bab4200d276
:103df400009d2a000399206806f05cfda3685b1b04
:103e0400a36023685d192560009d039b5b190393e0
:103e1400009b5b1b0093bb685d1bbd6098d10fe7e3
:103e240032000298fff788fd051ed6d12169029859
:103e340000f0f2fe8022a3899343a381b1e72068b6
:103e44002369984203d86669009bb34216d2009b4b
:103e54009d4200d91d002a00039906f02bfda3689a
:103e640022685b1b5219a3602260002bcdd1210074
:103e7400029806f05ffc0028c7d095e700981c4b19
:103e8400984200d91800310003f0bafb3300656a88
:103e94004343039ae1690298a847051eb5dc83e70a
:103ea400019b00201b680393019b5b680093019bab
:103eb4000833019306e7049a9a4208db666a039a78
:103ec400e1690298b047061e00dd2be76ce7049a0f
:103ed400039906f0effc049aa36816009b1aa360ea
:103ee40023689b1823601de700fcff7f7ffbffff17
:043ef400ffffff7f4e
:020000040000fa
:103ef80030b585b004000e2917d083001b18db00ed
:103f0800874ad3181b7d002b0dd183001b18db00bb
:103f1800d318dd68002d06d083001b18db00d318ea
:103f28001b690022a84705b030bd83001b18db00c1
:103f38007b49cb180021197511787f230b40012b81
:103f480013d0212b00d0e1e083001b18db0074495b
:103f5800cb18dd68002d00d1d8e053780b2b00d9a1
:103f6800cae09b006f49cb589f4653780a2b57d01d
:103f78000b2b48d0062b09d083001c18e400684b93
:103f88001c196068012105f01efccce7d378212bb1
:103f980009d0222b1fd0a3001c19e400604b1c1968
:103fa80001232375bfe783001b18db005c49cb188e
:103fb80099689079d3791b0203430a689a4200d919
:103fc8001a00a3001b19db005549cb18596a586819
:103fd80005f0f6fcdfe783001b18db005049cb181f
:103fe8009b689079d2791202196802438a4200d9f3
:103ff8000a005968a3001b19db004948c318586810
:1040080005f0defcc7e79278474b1a7083001c184e
:10401800e400434b1c196068002105f0d4fb82e7db
:1040280083001c18e4003e4b1c19606801223e49bd
:1040380005f0c6fc77e702a9d3780b7093784b702c
:104048009079d3791b0203434b80a3001b19db0033
:10405800334ad3181b690a0000212000a84762e7e9
:104068000f20684493780370a3001b19db002c49c8
:10407800cb181b69020001212000a84753e78300e1
:104088001b18db00264ad3181b6900220221a84707
:1040980049e701a9d3780b7093784b709079d3795d
:1040a8001b0203434b80a3001b19db001c4ad318d7
:1040b8001b690a0003212000a84734e70e20684442
:1040c80093780370a3001b19db001549cb181b69f3
:1040d800020005212000a84725e703a9d3780b7023
:1040e80093784b7083001b18db000d4ad3181b69ab
:1040f8000a000421a84716e7a3001c19e400084b8e
:104108001c196068012105f05efb0ce7a3001c196f
:10411800e400034b1c196068012105f054fb02e719
:0c412800140200207ca20000a12f002047
:020000040000fa
:10413400f0b5c30f85b0440245000391640a2d0e07
:10414400029301930ad0ff2d38d08023e400db04ce
:104154007f3d1c432e00002300930ae0002c33d043
:10416400200005f0d9fe7626431f9c407642361a7d
:104174000095039b5f025d00db0f7f0a2d0e039306
:1041840025d0ff2d2dd0802228000025ff00d20449
:1041940017437f38039b029a361a5a40009b9800b3
:1041a400284301380e2824d806f0cafe4e9d639d8c
:1041b400979d634e4e976379797954002e000323bb
:1041c400002cc9d10223c7e726000123c4e7381e07
:1041d4000dd005f0a1fe431f9f4076235b42181ac1
:1041e400d8e728000325002fd4d10225d2e70125e2
:1041f400d0e764017801844228d31a210123241ac8
:10420400012527005b006400002f01dba04201d8d8
:10421400241a2b4301390029f3d1611e8c411c431c
:1042240031007f3100293cdd630704d00f23234094
:10423400042b00d00434230103d531002b4b8031ef
:104244001c40e308fe2921dd002310e0013e1b2170
:104254000023d5e78023db031c4204d01f4202d194
:104264003c00039b01938023019adb032343ff213a
:104274000ce03c00039a0095009b022be4d0032b36
:104284002fd00023009819000128c9d15802c9b2bf
:10429400c905400ad2070843104305b0f0bd029a8d
:1042a400eae70120411a1b291ddc23001f30cb4003
:1042b400411a8c40611e8c412343590704d00f21bd
:1042c4001940042900d004338021c9041940db08b3
:1042d4000029dbd000230121d8e780240023e40354
:1042e400c0e70192bfe700231900cfe7fffffff704
:020000040000fa
:1042f400022841d021d903285bd0042800d075e0de
:104304003b4a3c4b1a603c4a3c4b1a603c4a3d4b8e
:104314001a603d4a3d4b1a603d4a3e4b1a603e4a84
:104324003e4b1a603e4a3f4b1a603f4a3f4b1a606d
:104334003f4a404b1a6000203ae0012856d13e4ad9
:104344002c4b1a603d4a2d4b1a603d4a2d4b1a6086
:104354003c4a2e4b1a603c4a2e4b1a603b4a2f4b68
:104364001a603b4a2f4b1a603a4a304b1a603a4a59
:10437400304b1a6000201be0384a1e4b1a60384a42
:104384001e4b1a60374a1f4b1a60374a1f4b1a607c
:10439400364a204b1a60364a204b1a60354a214b64
:1043a4001a60354a214b1a60344a224b1a600020a5
:1043b4007047334a0f4b1a60324a104b1a60324a24
:1043c400104b1a60314a114b1a60314a114b1a6072
:1043d400304a124b1a60304a124b1a602f4a134b60
:1043e4001a602f4a134b1a600020e1e7e220dfe74e
:1043f40085b00000a80200200bad0000b002002030
:104404001d7b000098020020a99800009002002063
:10441400adb20000a4020020d7ac0000940200203a
:10442400fdab0000a002002001a000009c020020bf
:104434003b790000ac020020c5ab0000a7a500003a
:1044440071a600009db30000a1b30000a5b3000055
:10445400a9b3000061980000ed6d0000a79b000067
:10446400679e000099780000119a0000559a000098
:10447400999a0000a9ab0000299e00000167000082
:1044840075b000003baa00004d700000978c00003e
:104494007fb2000075b2000001950000e5a10000a4
:0444a400515600006d
:020000040000fa
:1044a80010b5654b9b7d002b17d0634b5b8b9b072f
:1044b80014d5624bff2120229954fd3901329954b9
:1044c80020235e4ad35c5bb2013300d183e0202312
:1044d8005a4ad35c062b00d195e010bd564b5b8b36
:1044e800db0707d5554bff2120229954fd390132ae
:1044f8009954e5e7504b5b8b5b0707d54f4bff2182
:1045080020229954fe3901329954d9e720234b4a85
:10451800d35c5bb2032b40d0042b0fd0022bcfd13e
:104528001369002b04d09088002104f0bbffc7e773
:10453800424b9888012104f0b5ffc1e73f4a9369cf
:104548001269934208d03d4a9168581c9061c95c31
:104558002823394ad154b3e7384b5b69002b0ed076
:10456800364b9b885b0001221343334a5362d3695d
:10457800002bfcd103212033304ad154a0e72e4a26
:104588005168c0239b020b435360d369002bfcd1b5
:1045980006212033294ad15492e7284a5369013b1e
:1045a800d2699a4209d0254bd968da69501cd8617a
:1045b80028232148c35c8b5482e71f4a5168e023b3
:1045c800db020b435360d369002bfcd10621203357
:1045d8001a4ad154e7e700212023d154164a5168da
:1045e800c0239b020b435360d369002bfcd1832269
:1045f800114b1a76114b5b6a002b00d16de70f4afd
:10460800906a984769e71300002220215a54013123
:104618005a548332084b1a761900533a4b8b13407d
:10462800102bfbd1054b5b6a002b00d155e7034ae1
:10463800906a984751e7c04600100042dc2e0020df
:020000040000fa
:10464800f0b5ce46474680b50f260e40b146012e3e
:1046580000d9a5e0fe25ad001c00083ca4b2ac4280
:1046680000d9a0e0441c00d1a0e0476a0024082b30
:1046780006d908250134e4b26d00adb2ab42f9d8d1
:104688004d461035ad0045196d68002a3ed049b237
:104698008c46c90fce00b046454400262e60ab803c
:1046a800aa71eb790126b04646463343eb7163465f
:1046b800002b60db4b465b01ff1880235b00fd5c31
:1046c8000726b543fd54fd5c52003a4e925d2a43dd
:1046d800fa5440220623ff33fa544b465e007618fc
:1046e80036018019036d344a13400365036d2407ae
:1046f800e022d20514401c430465036d5b005b088f
:10470800036500200cbc90469946f0bd2a60ab803a
:10471800aa710126e9793143e971aa60ab81aa73cc
:10472800eb7b3343eb7380235b00fa541132fa546a
:10473800026d21490a400265036e0b400366036d52
:104748002407e022d205144023430365036e1c436b
:1047580004660369c3644369c365036d5b005b0852
:104768000365036e5b005b08036613220a23ff33ad
:10477800fa540020c6e74b465b01ff1880235b0014
:10478800fd5c7026b543fd54fd5c52009446094a11
:10479800624452782a43fa5480220433fa549ce73c
:1047a8007c204042aee77c204042abe77d2040427f
:0c47b800a8e7c04694b20000ffffff8f8e
:020000040000fa
:1047c40070b55a4b9b7d002b15d0584b9b7ddb0756
:1047d40003d5564b1b7edb070ed4544b9b7d5b07e6
:1047e40003d5524b1b7e5b073bd4504b9b7d5bb286
:1047f400002b00da7de070bd4d4b9a68db689a426d
:1048040000d18fe04a4ad368591cd1604949cb5c36
:10481400d268c72a02d90021454ad1609bb2434ad3
:104824001385434b1b7c002bd7d006f091fc404be7
:104834001b68002bd1d03e4a127e002a08d03c4a85
:1048440052699042c9d33a4a516803209847c4e751
:10485400374a52699042c0d1354a5168032098477b
:10486400bbe7324b1c8de4b2314b5b6a01339022bf
:10487400ff32934200d900232d4a926a9a421ed0f5
:104884002b4a926a9a42b0d0294a516a2a4844541f
:1048940053622c23d35c002ba7d006f059f9244b88
:1048a400db69002ba1d0342221498a5c002a16d06e
:1048b4000a6b904299d3096a0020984795e71c4aed
:1048c400d269002adcd01a4d296a012090476b6a0c
:1048d40001339022ff329342d2d90023d0e7144a05
:1048e400126b904200d080e7114a116a0020984769
:1048f4007be70e4b1b7e5bb2002b00db7be70b4b95
:104904005b8b5b0700d176e78022084b1a75084b56
:10491400db69002b03d0064a116a0220984705f090
:1049240093ff68e70122014b1a757ae700080042f9
:0c493400dc010020c82c0020e02800203e
:020000040000fa
:10494000f0b5ce46474680b583b06b46dd1d0027e7
:10495000df71524e70220021300006f0abfb0320c5
:10496000fff7c8fc4e4b99461b6898474d4b98463d
:10497000290030001b6898472c782f700220fff721
:10498000b9fc4b461b689847e000001b40003018fc
:10499000290043461b6898472b78e418e4b22f702f
:1049a0000120fff7a7fc4b461b689847e000001b5f
:1049b00040003018290043461b6898472b78e418bc
:1049c000e4b22f700420fff795fc4b461b68984714
:1049d000e000001b4000301843461b682900984740
:1049e0002b78e318dbb22f70002b4fd02b4c013b00
:1049f000dbb20133de00f61a7600a6192a4b10222c
:104a0000944663449846284f2c3720e0012b1bd155
:104a100005f04cfc0100637b022b35d89b00234a38
:104a20009a582148203006f059f80de005f03efc78
:104a30000100637b1c4a022b02d89b001b4a9a5838
:104a4000194b181d06f04af80e34b4421ed0607897
:104a50000028f9d02378022b0ed0dab2022ad5d959
:104a6000032be3d0042befd105f020fc0100a2784a
:104a7000380006f033f8e7e705f018fc0100a278eb
:104a8000404606f02bf8dfe7074acae7034b1878e1
:104a900003b00cbc90469946f0bdc046902d002056
:104aa000a80200209802002020920000a4b000007c
:020000040000fa
:104ab00010b5564b9b7d002b78d0544a5168072384
:104ac0000b40127e520730d5504a906a50494a69cd
:104ad000c9688a4229d2002b0cd14d4b5968541c0d
:104ae0005c618854494b1b7edb073dd50122474b57
:104af0001a7523e0464b5968541c5c6152005052b1
:104b0000424b1b7edb072fd50122404b1a75404ad2
:104b100093699268934255d23d4a1168581c90613e
:104b20005b005a5a394b9a6214e0384a127ed20717
:104b30001ad50121354a1175002be8d1344a936901
:104b40009268934233d2324a1168581c9061ca5c11
:104b50002e4b9a622e4b9a699b689a423dd02c4b01
:104b60005a69db689a4244d0284b1b7e9b0716d5b6
:104b7000284b1b78002b19d0254b5a69db689a42c9
:104b800011d1234b00221a770720204908752149ab
:104b90000a701b6a002b09d01d4a506a98471d4baa
:104ba0001b78002b02d00222184b9a7510bd184baf
:104bb0001b69002b23d0ff21144a9162013b144a48
:104bc0001361c7e7124b1b69002b18d012490f4a1b
:104bd0009162013b0e4a1361bce70d4b1b69002b30
:104be000bdd101220b4b1a70084b1b7e9b07c3d40f
:104bf000d9e7064b01229a7503321a75b4e7044bc4
:104c00009a699b689a42aad1ebe7c046000c004221
:0c4c1000b0010020a02f0020ffff0000da
:020000040000fa
:104c1c00f7b50d1e01902dd006f083fa0123290063
:104c2c009c4608394f6862463b0066469343c81859
:104c3c004568023295434a4a37409668b0421ad1c9
:104c4c005b19002f06d10868091a8d681b18c868f3
:104c5c00e86085600120184348609160414a126801
:104c6c00934204d3404b0198196803f065f90198fd
:104c7c0006f009fbf7bd00264560b74209d10f6865
:104c8c003a4cc91bdb198f68a7422bd0cc68fc604f
:104c9c00a76047197c6801273c420bd15b198568da
:104cac00002e21d1314ca5421ed13e005161116123
:104cbc00cd608d60012005001d434d60cb50002e52
:104ccc00d5d12b4dab4213d8db089d10a8405468ae
:104cdc00db00204350609a189368ca608b60916027
:104cec00d960c4e76646d4e7c068e8608560e1e750
:104cfc005d0a042d12d898093830c600b618b5686c
:104d0c000327ae4225d10123801083405068034312
:104d1c005360ce608d60b160e960a8e7142d02d8b5
:104d2c0028005b30e9e7542d02d8180b6e30e4e70d
:104d3c00aa204000854202d8d80b7730dde70d4e13
:104d4c007e20b542d9d8980c7c30d6e7ad68ae42ff
:104d5c0003d06a68ba439342f8d3ee68d9e7c046e9
:104d6c00d8240020942f00208c2f0020e024002039
:084d7c00ff01000054050000d6
:020000040000fa
:104d840010b54b4b1b78012b14d0002b02d0022bf7
:104d940022d010bd0321002005f0a0f8444b586038
:104da400431cf6d00022434905f038fc0122404b55
:104db4001a70eee73e4b1b7c002bead03c490023e3
:104dc4004b7701338b7701330b708a6818313e338c
:104dd400002001f019fcdce7354b1b7c002b54d080
:104de400334b5b7f002b54d1314b9b7f002bd0d0b6
:104df400314b1b78002bccd0304b1b881a1c9bb238
:104e0400402b00d9402292b22d4b1a60284c00232b
:104e1400a37740220021e06806f04af9284b1a687b
:104e2400284b1968284bc918e06805f043fde2686f
:104e3400210014314023002001f06cfb0028a8d18c
:104e44001f4b19681f4b1a6852181a601b4a1388a3
:104e54005b1a9bb21380002b9bd10024164b1c7051
:104e64001a4a0021184806f023f9164b1c60144b0b
:104e74001c600f494c770422154bda618a6818319b
:104e84004023002001f0c0fb83e70122084b1a7085
:104e94007fe7104804f0cef80f4b1b78012b03d0aa
:104ea4000022034b5a7774e70422094bda61f7e7cf
:104eb4009416002099960000a82f00209e2f002011
:104ec4007c2f0020782f0020900c0020c4090000c3
:0c4ed40000440041b4160020a72f00206d
:020000040000fa
:104ee000f8b504000e000f250d40012d01d9102941
:104ef00067d1631c68d0676ae378002b67d1a37b16
:104f0000012b02d07f2040428be00023a3730a20b4
:104f1000205604f0c7ff02005ae08420400010230e
:104f20003b540821ff317b540026f033fe54813b73
:104f30003b547b54606cc5790739ff398d43c5718b
:104f4000c57b8d43c573902040003e5408303b54d0
:104f50002820ff303b54a36cd8798843d871d87b84
:104f60008843d8734ae076b2002e1adb6b01ff1833
:104f7000802149007b5c072083437b540523082163
:104f8000ff317b540937ff373b701035ad00651991
:104f90006b68f60ff6009e19f37901218b43f371cc
:104fa0002ce06b01ff18802149007b5c702083435b
:104fb0007b540a230821ff317b540937ff373b70ac
:104fc000e3e77c2040422ce07d20404229e00022a3
:104fd000102ea2d0002dc6d17f23842149007b54fe
:104fe0000821ff317b5400218133f954636cd97956
:104ff00001208143d971d97b8143d973e3780020a3
:10500000002b0ed1002a09d0a37a5ab2002a05db60
:105010001f221a4001239340024a13600123a37305
:085020000020f8bd00e100e0f2
:020000040000fa
:10502800f0b583b005000c004b78032b00d17ae073
:10503800dab2032a21d9052b2ed0092b00d08de016
:105048008a78cb781b02134304d1c17807220a401f
:10505800052a2fd0ad22aa5cdbb29a4200d17fe0ac
:10506800ae23ea5c002a3fd00233eb58013ad1b2b2
:10507800013189005918b4272fe0012b00d06de0c9
:105088008a78cb781b0213430121012b0dd1002212
:10509800bf33c254002108e0027880235b421343e7
:1050a80003708a78ac23c2540021280004f08bfbdb
:1050b80003b0f0bd0632b833c25404f011fb00222d
:1050c800ad23ea54eb780732934304221343eb7081
:1050d8000021eae704338b4206d01a685679a07893
:1050e8008642f7d1ea51f5e7a278ad23ea542800c1
:1050f80003f04af9eb780722934305221343eb7038
:10510800a27801ab1a70d523eb5c0021012bccd11e
:10511800d733eb58002b25d0dc22aa5801a90a2046
:1051280098470021c1e78a78cb781b021343012beb
:105138000fd00121022bb8d102780c331340022b77
:10514800b3d16379837043780122134343700021fc
:10515800abe70122bf33c2540021a6e70121a4e72f
:085168000021a2e70021a0e7ed
:020000040000fa
:1051700070b5050000294dd000284bd04948007f6c
:10518000002800d08be0484c666807243440012c8e
:1051900047d0444805604260002444618461046152
:1051a000002d47d08160002a48d03e4ad3600121bb
:1051b0003c4a11773c4a127e520705d53a4a0424ec
:1051c000916a117e2142fbd1374a518b0420014361
:1051d0005183117e7c3001431176324ad168926846
:1051e000914202d9881a2f4c20612f48406840070d
:1051f00033d12c4989698a4224d928782a4a906275
:105200000131284a9161002b44d10122264b9a7525
:10521000012045e00020002b42d0002aaed1002022
:105220003ee0002901d0cc073ad4002bb1d0dc07f6
:10523000afd535e000201b498860b4e70021194a4a
:10524000d160b4e7174a1269002adcd0ff20164962
:105250008862013a13490a61d5e752081148826011
:105260000469640804614908c16081698a4208d9f7
:105270002a88d205d20d0c4882620131094a916117
:10528000c1e7002cbfd00949074a9162013c054a99
:105290001461b8e70422044b9a75012000e0002055
:1052a00070bdc046b0010020000c0042ff010000ac
:020000040000fa
:1052b000f0b51d004c4b85b01e6804000f00009235
:1052c000002e05d0b36b002b02d1300004f058fb48
:1052d000009b022b05d0012b00d982e0002d00dac3
:1052e0007fe02100300005f027fa216b002908d06b
:1052f00023004033994202d03000fff78ffc002397
:1053000023630023a3616360a3891b0603d521697e
:105310003000fff783fca389344a1340a381009b2c
:10532000022b58d003ab02aa2100300003f0d8ffb3
:10533000a3891843a081002d1ad1029d280005f0f1
:1053400015fe0195071e40d1029b0193ab4237d158
:10535000012040420223a2891343a3810023a360ba
:1053600023004333236023610123636105b0f0bd53
:10537000002fe3d0b36b002b02d1300004f000fb10
:10538000029b9d4204d08023a2891b011343a38169
:10539000009b012b03d1a389009a1a43a281082004
:1053a000a389276027616561184018d00120184043
:1053b0000023984211d06d42a360a5611800d5e783
:1053c000019805f0d3fd071ec2d08023a289019d5c
:1053d0001343a381cee70020bce7a560c6e7a06029
:1053e000c4e701204042c1e7802f00205cf3ffffab
:020000040000fa
:1053f000f0b583b004000d0016000823c356002b3f
:105400004ddd092900d97be08b00444ad3589f46e3
:105410004378042293434370e427c3591b6c002153
:10542000c0699847e3591b6c8021e06998472000c8
:1054300004f05af9e3595b6a1021e0699847e3598f
:105440001f6a402300228021e069b8479023e35679
:10545000022b26dde3780722934303221343e370f4
:10546000e423e3581b69e0699847072303405b0086
:1054700020780e22904318432070e2680e231840d3
:10548000022817d0b0239168e1501279023be25410
:105490000022ad23e254d523e35c012b33d003b0cb
:1054a000f0bd22008832e423e3589b6b0021e069c1
:1054b0009847cfe7a2335169e150127c023be25496
:1054c000e6e74378042293434370e4e743780422f9
:1054d00013434370dfe7e423c3585b69c06998470f
:1054e00001ae30800725d6e7c37807229343012217
:1054f0001343c370cfe7c37807229343c370cae74f
:10550000002dccd0c7e7d733e358002bc7d0dc221f
:10551000a258310028009847c1e7c046f8a500000e
:020000040000fa
:10552000f7b50c228b5e0c0099b205000a0700d576
:1055300068e0802212011a436368a281002b04dc18
:10554000e36b002b01dc0020febda76a002ffad020
:1055500000232e682b6080235b011a4038d0206d19
:10556000a3895b0706d56368c01a236b002b01d0a3
:10557000e36bc01a0200e16900232800a76ab8475c
:10558000a189431c06d12b681d2b35d82e4ada4041
:10559000d30731d500222d4b62600b4022691bb22c
:1055a000a3812260db0405d5431c02d12b68002bac
:1055b00000d12065216b2e600029c4d02300403328
:1055c000994202d02800fff729fb00202063bbe7a7
:1055d0000123e1692800b847431cc1d12b68002b87
:1055e000bed01d2b01d0162b01d12e60abe740237e
:1055f000a2891343a381a7e740230b430120a38182
:105600004042a1e72769002f9dd023682760db1b5c
:10561000019300238a0700d16369a360019b002bdb
:1056200000dc90e7019b3a00e1692800666ab04718
:10563000002803dc4023a2891343dfe7019b3f18c6
:105640001b1a0193eae7c04601004020fff7ffff65
:020000040000fa
:10565000f0b5de4657464e464546e0b583b08a462d
:10566000934600236a46d3715a4613800b70132366
:105670009946002398466de06400e4b2002c11d0f6
:1056800043463370300003f065fa051e0ad13378c3
:105690007b40dbb2012befd853461b7823435246a5
:1056a0001370e9e753461b78002b4dd05a46138000
:1056b0004b46013b5bb25a1c08d1eb25280003b0d6
:1056c0003cbc90469946a246ab46f0bd002b39dd66
:1056d00053461b78032b01d8e625efe7c82b01d9e9
:1056e000ed25ebe7013bdbb25246571c002b25ddd5
:1056f00001339a4400239b4698467f23994617e03e
:105700006400e4b2002c10d043463370300003f044
:1057100021fa051e09d133784a465340dbb2012bea
:10572000eed83b7823433b70eae70137ba4505d012
:105730005b463b7001246b46de1de5e75a2005f011
:10574000d9fbbbe7eb25b9e74b46013b5bb299467a
:105750000133b2d005f044fa882004f09dff040024
:105760005a2005f0c7fb002ceed101346b46de1d3c
:045770007f2785e723
:020000040000fa
:1057740030b583b0002803d00120404203b030bdcf
:10578400414b1b78002b02d001204042f6e73e4bf0
:1057940001229a731a7020301a544c685c62c87bd8
:1057a400587200205870986318718d7a9d72cd7a62
:1057b400dd720d7b1d734d7b5d73d87022705a6a48
:1057c400013093780342fcd10a23d3702f4b1b681a
:1057d4005b0b0193019a1f2313401f2b32d02a4adb
:1057e400526a108d9b0103431385019b9b05db0ebd
:1057f4001f2b29d0108d03431385019bdb045b0f02
:10580400072b23d0108d1b03034313850b7a002b26
:1058140003d013780420034313701b4b5b7a012bd2
:1058240016d0194a516a0b78022003430b70516a4f
:1058340002228b781342fcd102212023124ad15434
:1058440000209be71a3bcae7023bd3e7043bd9e7b6
:105854000d4b5a6a18004c30506200203c22985478
:105864000a6a1a645a6a13890c308343897b0329b0
:1058740006d09bb213810021034804f0a3fdd0e7b6
:1058840001310b43f5e7c04600000020246080008e
:020000040000fa
:10589400f8b5ce46474680b505000f000f240c40ee
:1058a400012c5ad8431c5bd0436a9846230010331a
:1058b4009b00c3185e68c378002b54d1837b012bf3
:1058c40002d07f20404236e0002383730a2028560a
:1058d40004f0e6fa814648e0f72282235b00414661
:1058e400ca54783a0823ff33ca54f3790227bb43d6
:1058f400f371042464422100300004f013fef37bae
:10590400bb43f37330000830210004f00bfeeb7846
:105914000020002b0fd14b46002b09d0ab7a5ab292
:10592400002a05db1f221a40012393401e4a1360fc
:105934000123ab7300200cbc90469946f8bd64016a
:10594400444482235b002022e25440210822ff3297
:10595400a154063aff3ae254d9e77c204042eae7f0
:105964007d204042e7e700239946002cb4d07fb263
:10597400f80fc0003018c37902229343c371042185
:10598400494204f0cffd002fd9db64014444822353
:105994005b001022e25420210822ff32a154073a6e
:0c59a400ff3ae254b3e7c04600e100e027
:020000040000fa
:1059b000f8b500284ad00468002900d139496300ad
:1059c000002099426bd3384b9c4268d8080002f003
:1059d00001ff051c200002f0fdfe011c281cfef743
:1059e000a9fb02f019fa06000f00281c02f014fab5
:1059f0002e4a2f4bfdf7b2f900222e4bfcf71afc72
:105a000002000b0030003900fcf73cf904f030fbd9
:105a10000500294b9c4208d8ff235b00ff209d42d4
:105a200019d8012d14d9680815e07e23ff33984258
:105a300010d8032834d94000032102f015fb0602d8
:105a40000321280002f010fb304304e0002026e090
:105a5000012000e019481849a14289414942184ae9
:105a600013680224a3431360d369002bfcd1144ba9
:105a7000d8601a68090613480240114319601a6871
:105a800002210a431a601a00d369002bfcd11022ac
:105a90000b4b5a831a00d369002bfcd10120f8bdaf
:105aa0000948d8e7006cdc0240420f0048afbc9abe
:105ab000f2d77a3e00002440801a06007fff0000e3
:0c5ac00000100042fffffffc010200008c
:020000040000fa
:105acc0070b505000e0000682b005a1e93410400af
:105adc00621e94411c403fd0002900d13a4e030174
:105aec009e423bd3010b00053200002304f036f933
:105afc0080235b02181a0021002862d0334a1368f5
:105b0c000226b3431360d369002bfcd180b22f4b18
:105b1c0098816b68022b42d02c4a136849032c489d
:105b2c00184080235b040343194311605168ab6830
:105b3c00e8680343274801400b4369680b435360f3
:105b4c00224ad369002bfcd1204a136802210b4353
:105b5c001360d369002bfcd1200070bdc3009e42a2
:105b6c000ad3410bc0043200002304f0f7f8802361
:105b7c005b02181a0221bfe743001b189e421ed37a
:105b8c00c02292020023002103f0e6ff3200002322
:105b9c0004f0e4f880235b02181a0421ace70b4aea
:105bac00136849030a480340194311605168ab68f4
:105bbc00e8680343072081430b435360c0e700248c
:105bcc00cae70024c8e7c046006cdc0200080042ab
:085bdc00ff1ffff0f8dfffffdf
:020000040000fa
:105be40070b582b00500140000226b46da710e29ec
:105bf40001d002b070bdec2646433e4b9e19a279fb
:105c0400e3791b0213433200e03213803300e433a0
:105c14001b681b6c7231f06998472378db06db0e36
:105c2400dab2012a2bd0002a09d0022a38d0032a5a
:105c3400dfd122000e21300004f0dafbd9e722780c
:105c4400602313400cd152b2002a04db210030003f
:105c5400fff7e8f9cde72100300000f061fbc8e769
:105c6400402b06d0202bc4d10121300003f0adfd20
:105c7400bfe722000e21300004f0bafbb9e7227816
:105c840060231340402b05d021792200300003f01b
:105c940089fcaee721792200300003f083fca8e7f9
:105ca400217900290ad1237860221a421bd16b463c
:105cb400d9792200300002f05ffa9ae76b46da1dc8
:105cc400300003f08fffec236b430a4ded18ea78a4
:105cd40007231340052b01d10028e4d10121300012
:105ce40003f073fd85e76b46d9792200300003f099
